{
	"Activity/SmartContract2/SMS.sol": {
		"SMS": {
			"abi": [
				{
					"inputs": [],
					"stateMutability": "nonpayable",
					"type": "constructor"
				},
				{
					"inputs": [
						{
							"internalType": "string",
							"name": "_Name",
							"type": "string"
						},
						{
							"internalType": "uint16",
							"name": "_SemNo",
							"type": "uint16"
						},
						{
							"internalType": "enum SMS.department",
							"name": "_dept",
							"type": "uint8"
						},
						{
							"internalType": "uint16",
							"name": "_CGPA",
							"type": "uint16"
						},
						{
							"internalType": "uint16",
							"name": "_Rollno",
							"type": "uint16"
						}
					],
					"name": "addstudent",
					"outputs": [],
					"stateMutability": "nonpayable",
					"type": "function"
				},
				{
					"inputs": [
						{
							"internalType": "uint8",
							"name": "_SemNo",
							"type": "uint8"
						},
						{
							"internalType": "enum SMS.department",
							"name": "_dept",
							"type": "uint8"
						},
						{
							"internalType": "uint8",
							"name": "_CGPA",
							"type": "uint8"
						},
						{
							"internalType": "uint16",
							"name": "_Rollno",
							"type": "uint16"
						}
					],
					"name": "editData",
					"outputs": [],
					"stateMutability": "nonpayable",
					"type": "function"
				},
				{
					"inputs": [
						{
							"internalType": "string",
							"name": "_Name",
							"type": "string"
						},
						{
							"internalType": "uint16",
							"name": "_Rollno",
							"type": "uint16"
						}
					],
					"name": "editName",
					"outputs": [],
					"stateMutability": "nonpayable",
					"type": "function"
				},
				{
					"inputs": [
						{
							"internalType": "uint16",
							"name": "_Rollno",
							"type": "uint16"
						}
					],
					"name": "getstudent",
					"outputs": [
						{
							"internalType": "string",
							"name": "Name",
							"type": "string"
						},
						{
							"internalType": "uint16",
							"name": "SemNo",
							"type": "uint16"
						},
						{
							"internalType": "enum SMS.department",
							"name": "dept",
							"type": "uint8"
						},
						{
							"internalType": "uint16",
							"name": "CGPA",
							"type": "uint16"
						},
						{
							"internalType": "uint16",
							"name": "Rollno",
							"type": "uint16"
						}
					],
					"stateMutability": "view",
					"type": "function"
				}
			],
			"devdoc": {
				"kind": "dev",
				"methods": {},
				"version": 1
			},
			"evm": {
				"assembly": "    /* \"Activity/SmartContract2/SMS.sol\":57:1775  contract SMS{... */\n  mstore(0x40, 0x80)\n    /* \"Activity/SmartContract2/SMS.sol\":347:403  constructor() {... */\n  callvalue\n  dup1\n  iszero\n  tag_1\n  jumpi\n  0x00\n  dup1\n  revert\ntag_1:\n  pop\n    /* \"Activity/SmartContract2/SMS.sol\":386:396  msg.sender */\n  caller\n    /* \"Activity/SmartContract2/SMS.sol\":371:383  staffadvisor */\n  0x00\n  dup1\n    /* \"Activity/SmartContract2/SMS.sol\":371:396  staffadvisor = msg.sender */\n  0x0100\n  exp\n  dup2\n  sload\n  dup2\n  0xffffffffffffffffffffffffffffffffffffffff\n  mul\n  not\n  and\n  swap1\n  dup4\n  0xffffffffffffffffffffffffffffffffffffffff\n  and\n  mul\n  or\n  swap1\n  sstore\n  pop\n    /* \"Activity/SmartContract2/SMS.sol\":57:1775  contract SMS{... */\n  dataSize(sub_0)\n  dup1\n  dataOffset(sub_0)\n  0x00\n  codecopy\n  0x00\n  return\nstop\n\nsub_0: assembly {\n        /* \"Activity/SmartContract2/SMS.sol\":57:1775  contract SMS{... */\n      mstore(0x40, 0x80)\n      callvalue\n      dup1\n      iszero\n      tag_1\n      jumpi\n      0x00\n      dup1\n      revert\n    tag_1:\n      pop\n      jumpi(tag_2, lt(calldatasize, 0x04))\n      shr(0xe0, calldataload(0x00))\n      dup1\n      0x3b92a834\n      eq\n      tag_3\n      jumpi\n      dup1\n      0x60cbc755\n      eq\n      tag_4\n      jumpi\n      dup1\n      0xce39721f\n      eq\n      tag_5\n      jumpi\n      dup1\n      0xe9a31be1\n      eq\n      tag_6\n      jumpi\n    tag_2:\n      0x00\n      dup1\n      revert\n        /* \"Activity/SmartContract2/SMS.sol\":1565:1769  function editName(string memory _Name,uint16 _Rollno) public verify(_Rollno){... */\n    tag_3:\n      tag_7\n      0x04\n      dup1\n      calldatasize\n      sub\n      dup2\n      add\n      swap1\n      tag_8\n      swap2\n      swap1\n      tag_9\n      jump\t// in\n    tag_8:\n      tag_10\n      jump\t// in\n    tag_7:\n      stop\n        /* \"Activity/SmartContract2/SMS.sol\":952:1258  function getstudent(uint16 _Rollno) public view admin returns (string memory Name, uint16 SemNo, department dept, uint16 CGPA, uint16 Rollno) {... */\n    tag_4:\n      tag_11\n      0x04\n      dup1\n      calldatasize\n      sub\n      dup2\n      add\n      swap1\n      tag_12\n      swap2\n      swap1\n      tag_13\n      jump\t// in\n    tag_12:\n      tag_14\n      jump\t// in\n    tag_11:\n      mload(0x40)\n      tag_15\n      swap6\n      swap5\n      swap4\n      swap3\n      swap2\n      swap1\n      tag_16\n      jump\t// in\n    tag_15:\n      mload(0x40)\n      dup1\n      swap2\n      sub\n      swap1\n      return\n        /* \"Activity/SmartContract2/SMS.sol\":1264:1559  function editData(uint8 _SemNo,department _dept,uint8 _CGPA,uint16 _Rollno) public admin verify(_Rollno){... */\n    tag_5:\n      tag_17\n      0x04\n      dup1\n      calldatasize\n      sub\n      dup2\n      add\n      swap1\n      tag_18\n      swap2\n      swap1\n      tag_19\n      jump\t// in\n    tag_18:\n      tag_20\n      jump\t// in\n    tag_17:\n      stop\n        /* \"Activity/SmartContract2/SMS.sol\":644:945  function addstudent(string memory _Name,uint16 _SemNo,department _dept,uint16 _CGPA,uint16 _Rollno) public  admin {... */\n    tag_6:\n      tag_21\n      0x04\n      dup1\n      calldatasize\n      sub\n      dup2\n      add\n      swap1\n      tag_22\n      swap2\n      swap1\n      tag_23\n      jump\t// in\n    tag_22:\n      tag_24\n      jump\t// in\n    tag_21:\n      stop\n        /* \"Activity/SmartContract2/SMS.sol\":1565:1769  function editName(string memory _Name,uint16 _Rollno) public verify(_Rollno){... */\n    tag_10:\n        /* \"Activity/SmartContract2/SMS.sol\":1633:1640  _Rollno */\n      dup1\n        /* \"Activity/SmartContract2/SMS.sol\":567:581  Studentrecords */\n      0x01\n        /* \"Activity/SmartContract2/SMS.sol\":567:589  Studentrecords[Rollno] */\n      0x00\n        /* \"Activity/SmartContract2/SMS.sol\":582:588  Rollno */\n      dup3\n        /* \"Activity/SmartContract2/SMS.sol\":567:589  Studentrecords[Rollno] */\n      0xffff\n      and\n      0xffff\n      and\n      dup2\n      mstore\n      0x20\n      add\n      swap1\n      dup2\n      mstore\n      0x20\n      add\n      0x00\n      keccak256\n        /* \"Activity/SmartContract2/SMS.sol\":567:595  Studentrecords[Rollno].Exist */\n      0x01\n      add\n      0x07\n      swap1\n      sload\n      swap1\n      0x0100\n      exp\n      swap1\n      div\n      0xff\n      and\n        /* \"Activity/SmartContract2/SMS.sol\":559:620  require(Studentrecords[Rollno].Exist,\"Rollno does not Exist\") */\n      tag_26\n      jumpi\n      mload(0x40)\n      0x08c379a000000000000000000000000000000000000000000000000000000000\n      dup2\n      mstore\n      0x04\n      add\n      tag_27\n      swap1\n      tag_28\n      jump\t// in\n    tag_27:\n      mload(0x40)\n      dup1\n      swap2\n      sub\n      swap1\n      revert\n    tag_26:\n        /* \"Activity/SmartContract2/SMS.sol\":1660:1683  Student storage student */\n      0x00\n        /* \"Activity/SmartContract2/SMS.sol\":1686:1700  Studentrecords */\n      0x01\n        /* \"Activity/SmartContract2/SMS.sol\":1686:1709  Studentrecords[_Rollno] */\n      0x00\n        /* \"Activity/SmartContract2/SMS.sol\":1701:1708  _Rollno */\n      dup5\n        /* \"Activity/SmartContract2/SMS.sol\":1686:1709  Studentrecords[_Rollno] */\n      0xffff\n      and\n      0xffff\n      and\n      dup2\n      mstore\n      0x20\n      add\n      swap1\n      dup2\n      mstore\n      0x20\n      add\n      0x00\n      keccak256\n        /* \"Activity/SmartContract2/SMS.sol\":1660:1709  Student storage student = Studentrecords[_Rollno] */\n      swap1\n      pop\n        /* \"Activity/SmartContract2/SMS.sol\":1741:1746  _Name */\n      dup4\n        /* \"Activity/SmartContract2/SMS.sol\":1727:1734  student */\n      dup2\n        /* \"Activity/SmartContract2/SMS.sol\":1727:1739  student.Name */\n      0x00\n      add\n        /* \"Activity/SmartContract2/SMS.sol\":1727:1746  student.Name= _Name */\n      swap1\n      dup2\n      tag_30\n      swap2\n      swap1\n      tag_31\n      jump\t// in\n    tag_30:\n      pop\n        /* \"Activity/SmartContract2/SMS.sol\":1641:1769  {... */\n      pop\n        /* \"Activity/SmartContract2/SMS.sol\":1565:1769  function editName(string memory _Name,uint16 _Rollno) public verify(_Rollno){... */\n      pop\n      pop\n      pop\n      jump\t// out\n        /* \"Activity/SmartContract2/SMS.sol\":952:1258  function getstudent(uint16 _Rollno) public view admin returns (string memory Name, uint16 SemNo, department dept, uint16 CGPA, uint16 Rollno) {... */\n    tag_14:\n        /* \"Activity/SmartContract2/SMS.sol\":1015:1033  string memory Name */\n      0x60\n        /* \"Activity/SmartContract2/SMS.sol\":1035:1047  uint16 SemNo */\n      0x00\n        /* \"Activity/SmartContract2/SMS.sol\":1049:1064  department dept */\n      dup1\n        /* \"Activity/SmartContract2/SMS.sol\":1066:1077  uint16 CGPA */\n      0x00\n        /* \"Activity/SmartContract2/SMS.sol\":1079:1092  uint16 Rollno */\n      dup1\n        /* \"Activity/SmartContract2/SMS.sol\":457:469  staffadvisor */\n      0x00\n      dup1\n      sload\n      swap1\n      0x0100\n      exp\n      swap1\n      div\n      0xffffffffffffffffffffffffffffffffffffffff\n      and\n        /* \"Activity/SmartContract2/SMS.sol\":443:469  msg.sender == staffadvisor */\n      0xffffffffffffffffffffffffffffffffffffffff\n      and\n        /* \"Activity/SmartContract2/SMS.sol\":443:453  msg.sender */\n      caller\n        /* \"Activity/SmartContract2/SMS.sol\":443:469  msg.sender == staffadvisor */\n      0xffffffffffffffffffffffffffffffffffffffff\n      and\n      eq\n        /* \"Activity/SmartContract2/SMS.sol\":435:496  require(msg.sender == staffadvisor,\"You cannot access this \") */\n      tag_33\n      jumpi\n      mload(0x40)\n      0x08c379a000000000000000000000000000000000000000000000000000000000\n      dup2\n      mstore\n      0x04\n      add\n      tag_34\n      swap1\n      tag_35\n      jump\t// in\n    tag_34:\n      mload(0x40)\n      dup1\n      swap2\n      sub\n      swap1\n      revert\n    tag_33:\n        /* \"Activity/SmartContract2/SMS.sol\":1113:1135  Student memory student */\n      0x00\n        /* \"Activity/SmartContract2/SMS.sol\":1138:1152  Studentrecords */\n      0x01\n        /* \"Activity/SmartContract2/SMS.sol\":1138:1161  Studentrecords[_Rollno] */\n      0x00\n        /* \"Activity/SmartContract2/SMS.sol\":1153:1160  _Rollno */\n      dup9\n        /* \"Activity/SmartContract2/SMS.sol\":1138:1161  Studentrecords[_Rollno] */\n      0xffff\n      and\n      0xffff\n      and\n      dup2\n      mstore\n      0x20\n      add\n      swap1\n      dup2\n      mstore\n      0x20\n      add\n      0x00\n      keccak256\n        /* \"Activity/SmartContract2/SMS.sol\":1113:1161  Student memory student = Studentrecords[_Rollno] */\n      mload(0x40)\n      dup1\n      0xc0\n      add\n      0x40\n      mstore\n      swap1\n      dup2\n      0x00\n      dup3\n      add\n      dup1\n      sload\n      tag_37\n      swap1\n      tag_38\n      jump\t// in\n    tag_37:\n      dup1\n      0x1f\n      add\n      0x20\n      dup1\n      swap2\n      div\n      mul\n      0x20\n      add\n      mload(0x40)\n      swap1\n      dup2\n      add\n      0x40\n      mstore\n      dup1\n      swap3\n      swap2\n      swap1\n      dup2\n      dup2\n      mstore\n      0x20\n      add\n      dup3\n      dup1\n      sload\n      tag_39\n      swap1\n      tag_38\n      jump\t// in\n    tag_39:\n      dup1\n      iszero\n      tag_40\n      jumpi\n      dup1\n      0x1f\n      lt\n      tag_41\n      jumpi\n      0x0100\n      dup1\n      dup4\n      sload\n      div\n      mul\n      dup4\n      mstore\n      swap2\n      0x20\n      add\n      swap2\n      jump(tag_40)\n    tag_41:\n      dup3\n      add\n      swap2\n      swap1\n      0x00\n      mstore\n      keccak256(0x00, 0x20)\n      swap1\n    tag_42:\n      dup2\n      sload\n      dup2\n      mstore\n      swap1\n      0x01\n      add\n      swap1\n      0x20\n      add\n      dup1\n      dup4\n      gt\n      tag_42\n      jumpi\n      dup3\n      swap1\n      sub\n      0x1f\n      and\n      dup3\n      add\n      swap2\n    tag_40:\n      pop\n      pop\n      pop\n      pop\n      pop\n      dup2\n      mstore\n      0x20\n      add\n      0x01\n      dup3\n      add\n      0x00\n      swap1\n      sload\n      swap1\n      0x0100\n      exp\n      swap1\n      div\n      0xffff\n      and\n      0xffff\n      and\n      0xffff\n      and\n      dup2\n      mstore\n      0x20\n      add\n      0x01\n      dup3\n      add\n      0x02\n      swap1\n      sload\n      swap1\n      0x0100\n      exp\n      swap1\n      div\n      0xff\n      and\n      0x02\n      dup2\n      gt\n      iszero\n      tag_43\n      jumpi\n      tag_44\n      tag_45\n      jump\t// in\n    tag_44:\n    tag_43:\n      0x02\n      dup2\n      gt\n      iszero\n      tag_46\n      jumpi\n      tag_47\n      tag_45\n      jump\t// in\n    tag_47:\n    tag_46:\n      dup2\n      mstore\n      0x20\n      add\n      0x01\n      dup3\n      add\n      0x03\n      swap1\n      sload\n      swap1\n      0x0100\n      exp\n      swap1\n      div\n      0xffff\n      and\n      0xffff\n      and\n      0xffff\n      and\n      dup2\n      mstore\n      0x20\n      add\n      0x01\n      dup3\n      add\n      0x05\n      swap1\n      sload\n      swap1\n      0x0100\n      exp\n      swap1\n      div\n      0xffff\n      and\n      0xffff\n      and\n      0xffff\n      and\n      dup2\n      mstore\n      0x20\n      add\n      0x01\n      dup3\n      add\n      0x07\n      swap1\n      sload\n      swap1\n      0x0100\n      exp\n      swap1\n      div\n      0xff\n      and\n      iszero\n      iszero\n      iszero\n      iszero\n      dup2\n      mstore\n      pop\n      pop\n      swap1\n      pop\n        /* \"Activity/SmartContract2/SMS.sol\":1179:1186  student */\n      dup1\n        /* \"Activity/SmartContract2/SMS.sol\":1179:1191  student.Name */\n      0x00\n      add\n      mload\n        /* \"Activity/SmartContract2/SMS.sol\":1193:1200  student */\n      dup2\n        /* \"Activity/SmartContract2/SMS.sol\":1193:1206  student.SemNo */\n      0x20\n      add\n      mload\n        /* \"Activity/SmartContract2/SMS.sol\":1208:1215  student */\n      dup3\n        /* \"Activity/SmartContract2/SMS.sol\":1208:1220  student.dept */\n      0x40\n      add\n      mload\n        /* \"Activity/SmartContract2/SMS.sol\":1222:1229  student */\n      dup4\n        /* \"Activity/SmartContract2/SMS.sol\":1222:1234  student.CGPA */\n      0x60\n      add\n      mload\n        /* \"Activity/SmartContract2/SMS.sol\":1236:1243  student */\n      dup5\n        /* \"Activity/SmartContract2/SMS.sol\":1236:1250  student.Rollno */\n      0x80\n      add\n      mload\n        /* \"Activity/SmartContract2/SMS.sol\":1171:1251  return (student.Name, student.SemNo, student.dept, student.CGPA, student.Rollno) */\n      swap6\n      pop\n      swap6\n      pop\n      swap6\n      pop\n      swap6\n      pop\n      swap6\n      pop\n      pop\n        /* \"Activity/SmartContract2/SMS.sol\":952:1258  function getstudent(uint16 _Rollno) public view admin returns (string memory Name, uint16 SemNo, department dept, uint16 CGPA, uint16 Rollno) {... */\n      swap2\n      swap4\n      swap6\n      swap1\n      swap3\n      swap5\n      pop\n      jump\t// out\n        /* \"Activity/SmartContract2/SMS.sol\":1264:1559  function editData(uint8 _SemNo,department _dept,uint8 _CGPA,uint16 _Rollno) public admin verify(_Rollno){... */\n    tag_20:\n        /* \"Activity/SmartContract2/SMS.sol\":457:469  staffadvisor */\n      0x00\n      dup1\n      sload\n      swap1\n      0x0100\n      exp\n      swap1\n      div\n      0xffffffffffffffffffffffffffffffffffffffff\n      and\n        /* \"Activity/SmartContract2/SMS.sol\":443:469  msg.sender == staffadvisor */\n      0xffffffffffffffffffffffffffffffffffffffff\n      and\n        /* \"Activity/SmartContract2/SMS.sol\":443:453  msg.sender */\n      caller\n        /* \"Activity/SmartContract2/SMS.sol\":443:469  msg.sender == staffadvisor */\n      0xffffffffffffffffffffffffffffffffffffffff\n      and\n      eq\n        /* \"Activity/SmartContract2/SMS.sol\":435:496  require(msg.sender == staffadvisor,\"You cannot access this \") */\n      tag_49\n      jumpi\n      mload(0x40)\n      0x08c379a000000000000000000000000000000000000000000000000000000000\n      dup2\n      mstore\n      0x04\n      add\n      tag_50\n      swap1\n      tag_35\n      jump\t// in\n    tag_50:\n      mload(0x40)\n      dup1\n      swap2\n      sub\n      swap1\n      revert\n    tag_49:\n        /* \"Activity/SmartContract2/SMS.sol\":1360:1367  _Rollno */\n      dup1\n        /* \"Activity/SmartContract2/SMS.sol\":567:581  Studentrecords */\n      0x01\n        /* \"Activity/SmartContract2/SMS.sol\":567:589  Studentrecords[Rollno] */\n      0x00\n        /* \"Activity/SmartContract2/SMS.sol\":582:588  Rollno */\n      dup3\n        /* \"Activity/SmartContract2/SMS.sol\":567:589  Studentrecords[Rollno] */\n      0xffff\n      and\n      0xffff\n      and\n      dup2\n      mstore\n      0x20\n      add\n      swap1\n      dup2\n      mstore\n      0x20\n      add\n      0x00\n      keccak256\n        /* \"Activity/SmartContract2/SMS.sol\":567:595  Studentrecords[Rollno].Exist */\n      0x01\n      add\n      0x07\n      swap1\n      sload\n      swap1\n      0x0100\n      exp\n      swap1\n      div\n      0xff\n      and\n        /* \"Activity/SmartContract2/SMS.sol\":559:620  require(Studentrecords[Rollno].Exist,\"Rollno does not Exist\") */\n      tag_52\n      jumpi\n      mload(0x40)\n      0x08c379a000000000000000000000000000000000000000000000000000000000\n      dup2\n      mstore\n      0x04\n      add\n      tag_53\n      swap1\n      tag_28\n      jump\t// in\n    tag_53:\n      mload(0x40)\n      dup1\n      swap2\n      sub\n      swap1\n      revert\n    tag_52:\n        /* \"Activity/SmartContract2/SMS.sol\":1387:1410  Student storage student */\n      0x00\n        /* \"Activity/SmartContract2/SMS.sol\":1413:1427  Studentrecords */\n      0x01\n        /* \"Activity/SmartContract2/SMS.sol\":1413:1436  Studentrecords[_Rollno] */\n      0x00\n        /* \"Activity/SmartContract2/SMS.sol\":1428:1435  _Rollno */\n      dup5\n        /* \"Activity/SmartContract2/SMS.sol\":1413:1436  Studentrecords[_Rollno] */\n      0xffff\n      and\n      0xffff\n      and\n      dup2\n      mstore\n      0x20\n      add\n      swap1\n      dup2\n      mstore\n      0x20\n      add\n      0x00\n      keccak256\n        /* \"Activity/SmartContract2/SMS.sol\":1387:1436  Student storage student = Studentrecords[_Rollno] */\n      swap1\n      pop\n        /* \"Activity/SmartContract2/SMS.sol\":1469:1475  _SemNo */\n      dup6\n        /* \"Activity/SmartContract2/SMS.sol\":1454:1475  student.SemNo= _SemNo */\n      0xff\n      and\n        /* \"Activity/SmartContract2/SMS.sol\":1454:1461  student */\n      dup2\n        /* \"Activity/SmartContract2/SMS.sol\":1454:1467  student.SemNo */\n      0x01\n      add\n      0x00\n        /* \"Activity/SmartContract2/SMS.sol\":1454:1475  student.SemNo= _SemNo */\n      0x0100\n      exp\n      dup2\n      sload\n      dup2\n      0xffff\n      mul\n      not\n      and\n      swap1\n      dup4\n      0xffff\n      and\n      mul\n      or\n      swap1\n      sstore\n      pop\n        /* \"Activity/SmartContract2/SMS.sol\":1508:1513  _dept */\n      dup5\n        /* \"Activity/SmartContract2/SMS.sol\":1493:1500  student */\n      dup2\n        /* \"Activity/SmartContract2/SMS.sol\":1493:1505  student.dept */\n      0x01\n      add\n      0x02\n        /* \"Activity/SmartContract2/SMS.sol\":1493:1513  student.dept = _dept */\n      0x0100\n      exp\n      dup2\n      sload\n      dup2\n      0xff\n      mul\n      not\n      and\n      swap1\n      dup4\n      0x02\n      dup2\n      gt\n      iszero\n      tag_55\n      jumpi\n      tag_56\n      tag_45\n      jump\t// in\n    tag_56:\n    tag_55:\n      mul\n      or\n      swap1\n      sstore\n      pop\n        /* \"Activity/SmartContract2/SMS.sol\":1546:1551  _CGPA */\n      dup4\n        /* \"Activity/SmartContract2/SMS.sol\":1531:1551  student.CGPA = _CGPA */\n      0xff\n      and\n        /* \"Activity/SmartContract2/SMS.sol\":1531:1538  student */\n      dup2\n        /* \"Activity/SmartContract2/SMS.sol\":1531:1543  student.CGPA */\n      0x01\n      add\n      0x03\n        /* \"Activity/SmartContract2/SMS.sol\":1531:1551  student.CGPA = _CGPA */\n      0x0100\n      exp\n      dup2\n      sload\n      dup2\n      0xffff\n      mul\n      not\n      and\n      swap1\n      dup4\n      0xffff\n      and\n      mul\n      or\n      swap1\n      sstore\n      pop\n        /* \"Activity/SmartContract2/SMS.sol\":1368:1559  {... */\n      pop\n        /* \"Activity/SmartContract2/SMS.sol\":506:507  _ */\n      pop\n        /* \"Activity/SmartContract2/SMS.sol\":1264:1559  function editData(uint8 _SemNo,department _dept,uint8 _CGPA,uint16 _Rollno) public admin verify(_Rollno){... */\n      pop\n      pop\n      pop\n      pop\n      jump\t// out\n        /* \"Activity/SmartContract2/SMS.sol\":644:945  function addstudent(string memory _Name,uint16 _SemNo,department _dept,uint16 _CGPA,uint16 _Rollno) public  admin {... */\n    tag_24:\n        /* \"Activity/SmartContract2/SMS.sol\":457:469  staffadvisor */\n      0x00\n      dup1\n      sload\n      swap1\n      0x0100\n      exp\n      swap1\n      div\n      0xffffffffffffffffffffffffffffffffffffffff\n      and\n        /* \"Activity/SmartContract2/SMS.sol\":443:469  msg.sender == staffadvisor */\n      0xffffffffffffffffffffffffffffffffffffffff\n      and\n        /* \"Activity/SmartContract2/SMS.sol\":443:453  msg.sender */\n      caller\n        /* \"Activity/SmartContract2/SMS.sol\":443:469  msg.sender == staffadvisor */\n      0xffffffffffffffffffffffffffffffffffffffff\n      and\n      eq\n        /* \"Activity/SmartContract2/SMS.sol\":435:496  require(msg.sender == staffadvisor,\"You cannot access this \") */\n      tag_58\n      jumpi\n      mload(0x40)\n      0x08c379a000000000000000000000000000000000000000000000000000000000\n      dup2\n      mstore\n      0x04\n      add\n      tag_59\n      swap1\n      tag_35\n      jump\t// in\n    tag_59:\n      mload(0x40)\n      dup1\n      swap2\n      sub\n      swap1\n      revert\n    tag_58:\n        /* \"Activity/SmartContract2/SMS.sol\":794:808  Studentrecords */\n      0x01\n        /* \"Activity/SmartContract2/SMS.sol\":794:817  Studentrecords[_Rollno] */\n      0x00\n        /* \"Activity/SmartContract2/SMS.sol\":809:816  _Rollno */\n      dup3\n        /* \"Activity/SmartContract2/SMS.sol\":794:817  Studentrecords[_Rollno] */\n      0xffff\n      and\n      0xffff\n      and\n      dup2\n      mstore\n      0x20\n      add\n      swap1\n      dup2\n      mstore\n      0x20\n      add\n      0x00\n      keccak256\n        /* \"Activity/SmartContract2/SMS.sol\":794:823  Studentrecords[_Rollno].Exist */\n      0x01\n      add\n      0x07\n      swap1\n      sload\n      swap1\n      0x0100\n      exp\n      swap1\n      div\n      0xff\n      and\n        /* \"Activity/SmartContract2/SMS.sol\":793:823  !Studentrecords[_Rollno].Exist */\n      iszero\n        /* \"Activity/SmartContract2/SMS.sol\":785:852  require(!Studentrecords[_Rollno].Exist, \"Rollno is already Exists\") */\n      tag_61\n      jumpi\n      mload(0x40)\n      0x08c379a000000000000000000000000000000000000000000000000000000000\n      dup2\n      mstore\n      0x04\n      add\n      tag_62\n      swap1\n      tag_63\n      jump\t// in\n    tag_62:\n      mload(0x40)\n      dup1\n      swap2\n      sub\n      swap1\n      revert\n    tag_61:\n        /* \"Activity/SmartContract2/SMS.sol\":892:938  Student(_Name,_SemNo,_dept,_CGPA,_Rollno,true) */\n      mload(0x40)\n      dup1\n      0xc0\n      add\n      0x40\n      mstore\n      dup1\n        /* \"Activity/SmartContract2/SMS.sol\":900:905  _Name */\n      dup7\n        /* \"Activity/SmartContract2/SMS.sol\":892:938  Student(_Name,_SemNo,_dept,_CGPA,_Rollno,true) */\n      dup2\n      mstore\n      0x20\n      add\n        /* \"Activity/SmartContract2/SMS.sol\":906:912  _SemNo */\n      dup6\n        /* \"Activity/SmartContract2/SMS.sol\":892:938  Student(_Name,_SemNo,_dept,_CGPA,_Rollno,true) */\n      0xffff\n      and\n      dup2\n      mstore\n      0x20\n      add\n        /* \"Activity/SmartContract2/SMS.sol\":913:918  _dept */\n      dup5\n        /* \"Activity/SmartContract2/SMS.sol\":892:938  Student(_Name,_SemNo,_dept,_CGPA,_Rollno,true) */\n      0x02\n      dup2\n      gt\n      iszero\n      tag_64\n      jumpi\n      tag_65\n      tag_45\n      jump\t// in\n    tag_65:\n    tag_64:\n      dup2\n      mstore\n      0x20\n      add\n        /* \"Activity/SmartContract2/SMS.sol\":919:924  _CGPA */\n      dup4\n        /* \"Activity/SmartContract2/SMS.sol\":892:938  Student(_Name,_SemNo,_dept,_CGPA,_Rollno,true) */\n      0xffff\n      and\n      dup2\n      mstore\n      0x20\n      add\n        /* \"Activity/SmartContract2/SMS.sol\":925:932  _Rollno */\n      dup3\n        /* \"Activity/SmartContract2/SMS.sol\":892:938  Student(_Name,_SemNo,_dept,_CGPA,_Rollno,true) */\n      0xffff\n      and\n      dup2\n      mstore\n      0x20\n      add\n        /* \"Activity/SmartContract2/SMS.sol\":933:937  true */\n      0x01\n        /* \"Activity/SmartContract2/SMS.sol\":892:938  Student(_Name,_SemNo,_dept,_CGPA,_Rollno,true) */\n      iszero\n      iszero\n      dup2\n      mstore\n      pop\n        /* \"Activity/SmartContract2/SMS.sol\":866:880  Studentrecords */\n      0x01\n        /* \"Activity/SmartContract2/SMS.sol\":866:889  Studentrecords[_Rollno] */\n      0x00\n        /* \"Activity/SmartContract2/SMS.sol\":881:888  _Rollno */\n      dup4\n        /* \"Activity/SmartContract2/SMS.sol\":866:889  Studentrecords[_Rollno] */\n      0xffff\n      and\n      0xffff\n      and\n      dup2\n      mstore\n      0x20\n      add\n      swap1\n      dup2\n      mstore\n      0x20\n      add\n      0x00\n      keccak256\n        /* \"Activity/SmartContract2/SMS.sol\":866:938  Studentrecords[_Rollno] = Student(_Name,_SemNo,_dept,_CGPA,_Rollno,true) */\n      0x00\n      dup3\n      add\n      mload\n      dup2\n      0x00\n      add\n      swap1\n      dup2\n      tag_66\n      swap2\n      swap1\n      tag_31\n      jump\t// in\n    tag_66:\n      pop\n      0x20\n      dup3\n      add\n      mload\n      dup2\n      0x01\n      add\n      exp(0x0100, 0x00)\n      dup2\n      sload\n      dup2\n      0xffff\n      mul\n      not\n      and\n      swap1\n      dup4\n      0xffff\n      and\n      mul\n      or\n      swap1\n      sstore\n      pop\n      0x40\n      dup3\n      add\n      mload\n      dup2\n      0x01\n      add\n      exp(0x0100, 0x02)\n      dup2\n      sload\n      dup2\n      0xff\n      mul\n      not\n      and\n      swap1\n      dup4\n      0x02\n      dup2\n      gt\n      iszero\n      tag_67\n      jumpi\n      tag_68\n      tag_45\n      jump\t// in\n    tag_68:\n    tag_67:\n      mul\n      or\n      swap1\n      sstore\n      pop\n      0x60\n      dup3\n      add\n      mload\n      dup2\n      0x01\n      add\n      exp(0x0100, 0x03)\n      dup2\n      sload\n      dup2\n      0xffff\n      mul\n      not\n      and\n      swap1\n      dup4\n      0xffff\n      and\n      mul\n      or\n      swap1\n      sstore\n      pop\n      0x80\n      dup3\n      add\n      mload\n      dup2\n      0x01\n      add\n      exp(0x0100, 0x05)\n      dup2\n      sload\n      dup2\n      0xffff\n      mul\n      not\n      and\n      swap1\n      dup4\n      0xffff\n      and\n      mul\n      or\n      swap1\n      sstore\n      pop\n      0xa0\n      dup3\n      add\n      mload\n      dup2\n      0x01\n      add\n      exp(0x0100, 0x07)\n      dup2\n      sload\n      dup2\n      0xff\n      mul\n      not\n      and\n      swap1\n      dup4\n      iszero\n      iszero\n      mul\n      or\n      swap1\n      sstore\n      pop\n      swap1\n      pop\n      pop\n        /* \"Activity/SmartContract2/SMS.sol\":644:945  function addstudent(string memory _Name,uint16 _SemNo,department _dept,uint16 _CGPA,uint16 _Rollno) public  admin {... */\n      pop\n      pop\n      pop\n      pop\n      pop\n      jump\t// out\n        /* \"#utility.yul\":7:82   */\n    tag_69:\n        /* \"#utility.yul\":40:46   */\n      0x00\n        /* \"#utility.yul\":73:75   */\n      0x40\n        /* \"#utility.yul\":67:76   */\n      mload\n        /* \"#utility.yul\":57:76   */\n      swap1\n      pop\n        /* \"#utility.yul\":7:82   */\n      swap1\n      jump\t// out\n        /* \"#utility.yul\":88:205   */\n    tag_70:\n        /* \"#utility.yul\":197:198   */\n      0x00\n        /* \"#utility.yul\":194:195   */\n      dup1\n        /* \"#utility.yul\":187:199   */\n      revert\n        /* \"#utility.yul\":211:328   */\n    tag_71:\n        /* \"#utility.yul\":320:321   */\n      0x00\n        /* \"#utility.yul\":317:318   */\n      dup1\n        /* \"#utility.yul\":310:322   */\n      revert\n        /* \"#utility.yul\":334:451   */\n    tag_72:\n        /* \"#utility.yul\":443:444   */\n      0x00\n        /* \"#utility.yul\":440:441   */\n      dup1\n        /* \"#utility.yul\":433:445   */\n      revert\n        /* \"#utility.yul\":457:574   */\n    tag_73:\n        /* \"#utility.yul\":566:567   */\n      0x00\n        /* \"#utility.yul\":563:564   */\n      dup1\n        /* \"#utility.yul\":556:568   */\n      revert\n        /* \"#utility.yul\":580:682   */\n    tag_74:\n        /* \"#utility.yul\":621:627   */\n      0x00\n        /* \"#utility.yul\":672:674   */\n      0x1f\n        /* \"#utility.yul\":668:675   */\n      not\n        /* \"#utility.yul\":663:665   */\n      0x1f\n        /* \"#utility.yul\":656:661   */\n      dup4\n        /* \"#utility.yul\":652:666   */\n      add\n        /* \"#utility.yul\":648:676   */\n      and\n        /* \"#utility.yul\":638:676   */\n      swap1\n      pop\n        /* \"#utility.yul\":580:682   */\n      swap2\n      swap1\n      pop\n      jump\t// out\n        /* \"#utility.yul\":688:868   */\n    tag_75:\n        /* \"#utility.yul\":736:813   */\n      0x4e487b7100000000000000000000000000000000000000000000000000000000\n        /* \"#utility.yul\":733:734   */\n      0x00\n        /* \"#utility.yul\":726:814   */\n      mstore\n        /* \"#utility.yul\":833:837   */\n      0x41\n        /* \"#utility.yul\":830:831   */\n      0x04\n        /* \"#utility.yul\":823:838   */\n      mstore\n        /* \"#utility.yul\":857:861   */\n      0x24\n        /* \"#utility.yul\":854:855   */\n      0x00\n        /* \"#utility.yul\":847:862   */\n      revert\n        /* \"#utility.yul\":874:1155   */\n    tag_76:\n        /* \"#utility.yul\":957:984   */\n      tag_131\n        /* \"#utility.yul\":979:983   */\n      dup3\n        /* \"#utility.yul\":957:984   */\n      tag_74\n      jump\t// in\n    tag_131:\n        /* \"#utility.yul\":949:955   */\n      dup2\n        /* \"#utility.yul\":945:985   */\n      add\n        /* \"#utility.yul\":1087:1093   */\n      dup2\n        /* \"#utility.yul\":1075:1085   */\n      dup2\n        /* \"#utility.yul\":1072:1094   */\n      lt\n        /* \"#utility.yul\":1051:1069   */\n      0xffffffffffffffff\n        /* \"#utility.yul\":1039:1049   */\n      dup3\n        /* \"#utility.yul\":1036:1070   */\n      gt\n        /* \"#utility.yul\":1033:1095   */\n      or\n        /* \"#utility.yul\":1030:1118   */\n      iszero\n      tag_132\n      jumpi\n        /* \"#utility.yul\":1098:1116   */\n      tag_133\n      tag_75\n      jump\t// in\n    tag_133:\n        /* \"#utility.yul\":1030:1118   */\n    tag_132:\n        /* \"#utility.yul\":1138:1148   */\n      dup1\n        /* \"#utility.yul\":1134:1136   */\n      0x40\n        /* \"#utility.yul\":1127:1149   */\n      mstore\n        /* \"#utility.yul\":917:1155   */\n      pop\n        /* \"#utility.yul\":874:1155   */\n      pop\n      pop\n      jump\t// out\n        /* \"#utility.yul\":1161:1290   */\n    tag_77:\n        /* \"#utility.yul\":1195:1201   */\n      0x00\n        /* \"#utility.yul\":1222:1242   */\n      tag_135\n      tag_69\n      jump\t// in\n    tag_135:\n        /* \"#utility.yul\":1212:1242   */\n      swap1\n      pop\n        /* \"#utility.yul\":1251:1284   */\n      tag_136\n        /* \"#utility.yul\":1279:1283   */\n      dup3\n        /* \"#utility.yul\":1271:1277   */\n      dup3\n        /* \"#utility.yul\":1251:1284   */\n      tag_76\n      jump\t// in\n    tag_136:\n        /* \"#utility.yul\":1161:1290   */\n      swap2\n      swap1\n      pop\n      jump\t// out\n        /* \"#utility.yul\":1296:1604   */\n    tag_78:\n        /* \"#utility.yul\":1358:1362   */\n      0x00\n        /* \"#utility.yul\":1448:1466   */\n      0xffffffffffffffff\n        /* \"#utility.yul\":1440:1446   */\n      dup3\n        /* \"#utility.yul\":1437:1467   */\n      gt\n        /* \"#utility.yul\":1434:1490   */\n      iszero\n      tag_138\n      jumpi\n        /* \"#utility.yul\":1470:1488   */\n      tag_139\n      tag_75\n      jump\t// in\n    tag_139:\n        /* \"#utility.yul\":1434:1490   */\n    tag_138:\n        /* \"#utility.yul\":1508:1537   */\n      tag_140\n        /* \"#utility.yul\":1530:1536   */\n      dup3\n        /* \"#utility.yul\":1508:1537   */\n      tag_74\n      jump\t// in\n    tag_140:\n        /* \"#utility.yul\":1500:1537   */\n      swap1\n      pop\n        /* \"#utility.yul\":1592:1596   */\n      0x20\n        /* \"#utility.yul\":1586:1590   */\n      dup2\n        /* \"#utility.yul\":1582:1597   */\n      add\n        /* \"#utility.yul\":1574:1597   */\n      swap1\n      pop\n        /* \"#utility.yul\":1296:1604   */\n      swap2\n      swap1\n      pop\n      jump\t// out\n        /* \"#utility.yul\":1610:1758   */\n    tag_79:\n        /* \"#utility.yul\":1708:1714   */\n      dup3\n        /* \"#utility.yul\":1703:1706   */\n      dup2\n        /* \"#utility.yul\":1698:1701   */\n      dup4\n        /* \"#utility.yul\":1685:1715   */\n      calldatacopy\n        /* \"#utility.yul\":1749:1750   */\n      0x00\n        /* \"#utility.yul\":1740:1746   */\n      dup4\n        /* \"#utility.yul\":1735:1738   */\n      dup4\n        /* \"#utility.yul\":1731:1747   */\n      add\n        /* \"#utility.yul\":1724:1751   */\n      mstore\n        /* \"#utility.yul\":1610:1758   */\n      pop\n      pop\n      pop\n      jump\t// out\n        /* \"#utility.yul\":1764:2189   */\n    tag_80:\n        /* \"#utility.yul\":1842:1847   */\n      0x00\n        /* \"#utility.yul\":1867:1933   */\n      tag_143\n        /* \"#utility.yul\":1883:1932   */\n      tag_144\n        /* \"#utility.yul\":1925:1931   */\n      dup5\n        /* \"#utility.yul\":1883:1932   */\n      tag_78\n      jump\t// in\n    tag_144:\n        /* \"#utility.yul\":1867:1933   */\n      tag_77\n      jump\t// in\n    tag_143:\n        /* \"#utility.yul\":1858:1933   */\n      swap1\n      pop\n        /* \"#utility.yul\":1956:1962   */\n      dup3\n        /* \"#utility.yul\":1949:1954   */\n      dup2\n        /* \"#utility.yul\":1942:1963   */\n      mstore\n        /* \"#utility.yul\":1994:1998   */\n      0x20\n        /* \"#utility.yul\":1987:1992   */\n      dup2\n        /* \"#utility.yul\":1983:1999   */\n      add\n        /* \"#utility.yul\":2032:2035   */\n      dup5\n        /* \"#utility.yul\":2023:2029   */\n      dup5\n        /* \"#utility.yul\":2018:2021   */\n      dup5\n        /* \"#utility.yul\":2014:2030   */\n      add\n        /* \"#utility.yul\":2011:2036   */\n      gt\n        /* \"#utility.yul\":2008:2120   */\n      iszero\n      tag_145\n      jumpi\n        /* \"#utility.yul\":2039:2118   */\n      tag_146\n      tag_73\n      jump\t// in\n    tag_146:\n        /* \"#utility.yul\":2008:2120   */\n    tag_145:\n        /* \"#utility.yul\":2129:2183   */\n      tag_147\n        /* \"#utility.yul\":2176:2182   */\n      dup5\n        /* \"#utility.yul\":2171:2174   */\n      dup3\n        /* \"#utility.yul\":2166:2169   */\n      dup6\n        /* \"#utility.yul\":2129:2183   */\n      tag_79\n      jump\t// in\n    tag_147:\n        /* \"#utility.yul\":1848:2189   */\n      pop\n        /* \"#utility.yul\":1764:2189   */\n      swap4\n      swap3\n      pop\n      pop\n      pop\n      jump\t// out\n        /* \"#utility.yul\":2209:2549   */\n    tag_81:\n        /* \"#utility.yul\":2265:2270   */\n      0x00\n        /* \"#utility.yul\":2314:2317   */\n      dup3\n        /* \"#utility.yul\":2307:2311   */\n      0x1f\n        /* \"#utility.yul\":2299:2305   */\n      dup4\n        /* \"#utility.yul\":2295:2312   */\n      add\n        /* \"#utility.yul\":2291:2318   */\n      slt\n        /* \"#utility.yul\":2281:2403   */\n      tag_149\n      jumpi\n        /* \"#utility.yul\":2322:2401   */\n      tag_150\n      tag_72\n      jump\t// in\n    tag_150:\n        /* \"#utility.yul\":2281:2403   */\n    tag_149:\n        /* \"#utility.yul\":2439:2445   */\n      dup2\n        /* \"#utility.yul\":2426:2446   */\n      calldataload\n        /* \"#utility.yul\":2464:2543   */\n      tag_151\n        /* \"#utility.yul\":2539:2542   */\n      dup5\n        /* \"#utility.yul\":2531:2537   */\n      dup3\n        /* \"#utility.yul\":2524:2528   */\n      0x20\n        /* \"#utility.yul\":2516:2522   */\n      dup7\n        /* \"#utility.yul\":2512:2529   */\n      add\n        /* \"#utility.yul\":2464:2543   */\n      tag_80\n      jump\t// in\n    tag_151:\n        /* \"#utility.yul\":2455:2543   */\n      swap2\n      pop\n        /* \"#utility.yul\":2271:2549   */\n      pop\n        /* \"#utility.yul\":2209:2549   */\n      swap3\n      swap2\n      pop\n      pop\n      jump\t// out\n        /* \"#utility.yul\":2555:2644   */\n    tag_82:\n        /* \"#utility.yul\":2591:2598   */\n      0x00\n        /* \"#utility.yul\":2631:2637   */\n      0xffff\n        /* \"#utility.yul\":2624:2629   */\n      dup3\n        /* \"#utility.yul\":2620:2638   */\n      and\n        /* \"#utility.yul\":2609:2638   */\n      swap1\n      pop\n        /* \"#utility.yul\":2555:2644   */\n      swap2\n      swap1\n      pop\n      jump\t// out\n        /* \"#utility.yul\":2650:2770   */\n    tag_83:\n        /* \"#utility.yul\":2722:2745   */\n      tag_154\n        /* \"#utility.yul\":2739:2744   */\n      dup2\n        /* \"#utility.yul\":2722:2745   */\n      tag_82\n      jump\t// in\n    tag_154:\n        /* \"#utility.yul\":2715:2720   */\n      dup2\n        /* \"#utility.yul\":2712:2746   */\n      eq\n        /* \"#utility.yul\":2702:2764   */\n      tag_155\n      jumpi\n        /* \"#utility.yul\":2760:2761   */\n      0x00\n        /* \"#utility.yul\":2757:2758   */\n      dup1\n        /* \"#utility.yul\":2750:2762   */\n      revert\n        /* \"#utility.yul\":2702:2764   */\n    tag_155:\n        /* \"#utility.yul\":2650:2770   */\n      pop\n      jump\t// out\n        /* \"#utility.yul\":2776:2913   */\n    tag_84:\n        /* \"#utility.yul\":2821:2826   */\n      0x00\n        /* \"#utility.yul\":2859:2865   */\n      dup2\n        /* \"#utility.yul\":2846:2866   */\n      calldataload\n        /* \"#utility.yul\":2837:2866   */\n      swap1\n      pop\n        /* \"#utility.yul\":2875:2907   */\n      tag_157\n        /* \"#utility.yul\":2901:2906   */\n      dup2\n        /* \"#utility.yul\":2875:2907   */\n      tag_83\n      jump\t// in\n    tag_157:\n        /* \"#utility.yul\":2776:2913   */\n      swap3\n      swap2\n      pop\n      pop\n      jump\t// out\n        /* \"#utility.yul\":2919:3571   */\n    tag_9:\n        /* \"#utility.yul\":2996:3002   */\n      0x00\n        /* \"#utility.yul\":3004:3010   */\n      dup1\n        /* \"#utility.yul\":3053:3055   */\n      0x40\n        /* \"#utility.yul\":3041:3050   */\n      dup4\n        /* \"#utility.yul\":3032:3039   */\n      dup6\n        /* \"#utility.yul\":3028:3051   */\n      sub\n        /* \"#utility.yul\":3024:3056   */\n      slt\n        /* \"#utility.yul\":3021:3140   */\n      iszero\n      tag_159\n      jumpi\n        /* \"#utility.yul\":3059:3138   */\n      tag_160\n      tag_70\n      jump\t// in\n    tag_160:\n        /* \"#utility.yul\":3021:3140   */\n    tag_159:\n        /* \"#utility.yul\":3207:3208   */\n      0x00\n        /* \"#utility.yul\":3196:3205   */\n      dup4\n        /* \"#utility.yul\":3192:3209   */\n      add\n        /* \"#utility.yul\":3179:3210   */\n      calldataload\n        /* \"#utility.yul\":3237:3255   */\n      0xffffffffffffffff\n        /* \"#utility.yul\":3229:3235   */\n      dup2\n        /* \"#utility.yul\":3226:3256   */\n      gt\n        /* \"#utility.yul\":3223:3340   */\n      iszero\n      tag_161\n      jumpi\n        /* \"#utility.yul\":3259:3338   */\n      tag_162\n      tag_71\n      jump\t// in\n    tag_162:\n        /* \"#utility.yul\":3223:3340   */\n    tag_161:\n        /* \"#utility.yul\":3364:3427   */\n      tag_163\n        /* \"#utility.yul\":3419:3426   */\n      dup6\n        /* \"#utility.yul\":3410:3416   */\n      dup3\n        /* \"#utility.yul\":3399:3408   */\n      dup7\n        /* \"#utility.yul\":3395:3417   */\n      add\n        /* \"#utility.yul\":3364:3427   */\n      tag_81\n      jump\t// in\n    tag_163:\n        /* \"#utility.yul\":3354:3427   */\n      swap3\n      pop\n        /* \"#utility.yul\":3150:3437   */\n      pop\n        /* \"#utility.yul\":3476:3478   */\n      0x20\n        /* \"#utility.yul\":3502:3554   */\n      tag_164\n        /* \"#utility.yul\":3546:3553   */\n      dup6\n        /* \"#utility.yul\":3537:3543   */\n      dup3\n        /* \"#utility.yul\":3526:3535   */\n      dup7\n        /* \"#utility.yul\":3522:3544   */\n      add\n        /* \"#utility.yul\":3502:3554   */\n      tag_84\n      jump\t// in\n    tag_164:\n        /* \"#utility.yul\":3492:3554   */\n      swap2\n      pop\n        /* \"#utility.yul\":3447:3564   */\n      pop\n        /* \"#utility.yul\":2919:3571   */\n      swap3\n      pop\n      swap3\n      swap1\n      pop\n      jump\t// out\n        /* \"#utility.yul\":3577:3904   */\n    tag_13:\n        /* \"#utility.yul\":3635:3641   */\n      0x00\n        /* \"#utility.yul\":3684:3686   */\n      0x20\n        /* \"#utility.yul\":3672:3681   */\n      dup3\n        /* \"#utility.yul\":3663:3670   */\n      dup5\n        /* \"#utility.yul\":3659:3682   */\n      sub\n        /* \"#utility.yul\":3655:3687   */\n      slt\n        /* \"#utility.yul\":3652:3771   */\n      iszero\n      tag_166\n      jumpi\n        /* \"#utility.yul\":3690:3769   */\n      tag_167\n      tag_70\n      jump\t// in\n    tag_167:\n        /* \"#utility.yul\":3652:3771   */\n    tag_166:\n        /* \"#utility.yul\":3810:3811   */\n      0x00\n        /* \"#utility.yul\":3835:3887   */\n      tag_168\n        /* \"#utility.yul\":3879:3886   */\n      dup5\n        /* \"#utility.yul\":3870:3876   */\n      dup3\n        /* \"#utility.yul\":3859:3868   */\n      dup6\n        /* \"#utility.yul\":3855:3877   */\n      add\n        /* \"#utility.yul\":3835:3887   */\n      tag_84\n      jump\t// in\n    tag_168:\n        /* \"#utility.yul\":3825:3887   */\n      swap2\n      pop\n        /* \"#utility.yul\":3781:3897   */\n      pop\n        /* \"#utility.yul\":3577:3904   */\n      swap3\n      swap2\n      pop\n      pop\n      jump\t// out\n        /* \"#utility.yul\":3910:4009   */\n    tag_85:\n        /* \"#utility.yul\":3962:3968   */\n      0x00\n        /* \"#utility.yul\":3996:4001   */\n      dup2\n        /* \"#utility.yul\":3990:4002   */\n      mload\n        /* \"#utility.yul\":3980:4002   */\n      swap1\n      pop\n        /* \"#utility.yul\":3910:4009   */\n      swap2\n      swap1\n      pop\n      jump\t// out\n        /* \"#utility.yul\":4015:4184   */\n    tag_86:\n        /* \"#utility.yul\":4099:4110   */\n      0x00\n        /* \"#utility.yul\":4133:4139   */\n      dup3\n        /* \"#utility.yul\":4128:4131   */\n      dup3\n        /* \"#utility.yul\":4121:4140   */\n      mstore\n        /* \"#utility.yul\":4173:4177   */\n      0x20\n        /* \"#utility.yul\":4168:4171   */\n      dup3\n        /* \"#utility.yul\":4164:4178   */\n      add\n        /* \"#utility.yul\":4149:4178   */\n      swap1\n      pop\n        /* \"#utility.yul\":4015:4184   */\n      swap3\n      swap2\n      pop\n      pop\n      jump\t// out\n        /* \"#utility.yul\":4190:4329   */\n    tag_87:\n        /* \"#utility.yul\":4279:4285   */\n      dup3\n        /* \"#utility.yul\":4274:4277   */\n      dup2\n        /* \"#utility.yul\":4269:4272   */\n      dup4\n        /* \"#utility.yul\":4263:4286   */\n      mcopy\n        /* \"#utility.yul\":4320:4321   */\n      0x00\n        /* \"#utility.yul\":4311:4317   */\n      dup4\n        /* \"#utility.yul\":4306:4309   */\n      dup4\n        /* \"#utility.yul\":4302:4318   */\n      add\n        /* \"#utility.yul\":4295:4322   */\n      mstore\n        /* \"#utility.yul\":4190:4329   */\n      pop\n      pop\n      pop\n      jump\t// out\n        /* \"#utility.yul\":4335:4712   */\n    tag_88:\n        /* \"#utility.yul\":4423:4426   */\n      0x00\n        /* \"#utility.yul\":4451:4490   */\n      tag_173\n        /* \"#utility.yul\":4484:4489   */\n      dup3\n        /* \"#utility.yul\":4451:4490   */\n      tag_85\n      jump\t// in\n    tag_173:\n        /* \"#utility.yul\":4506:4577   */\n      tag_174\n        /* \"#utility.yul\":4570:4576   */\n      dup2\n        /* \"#utility.yul\":4565:4568   */\n      dup6\n        /* \"#utility.yul\":4506:4577   */\n      tag_86\n      jump\t// in\n    tag_174:\n        /* \"#utility.yul\":4499:4577   */\n      swap4\n      pop\n        /* \"#utility.yul\":4586:4651   */\n      tag_175\n        /* \"#utility.yul\":4644:4650   */\n      dup2\n        /* \"#utility.yul\":4639:4642   */\n      dup6\n        /* \"#utility.yul\":4632:4636   */\n      0x20\n        /* \"#utility.yul\":4625:4630   */\n      dup7\n        /* \"#utility.yul\":4621:4637   */\n      add\n        /* \"#utility.yul\":4586:4651   */\n      tag_87\n      jump\t// in\n    tag_175:\n        /* \"#utility.yul\":4676:4705   */\n      tag_176\n        /* \"#utility.yul\":4698:4704   */\n      dup2\n        /* \"#utility.yul\":4676:4705   */\n      tag_74\n      jump\t// in\n    tag_176:\n        /* \"#utility.yul\":4671:4674   */\n      dup5\n        /* \"#utility.yul\":4667:4706   */\n      add\n        /* \"#utility.yul\":4660:4706   */\n      swap2\n      pop\n        /* \"#utility.yul\":4427:4712   */\n      pop\n        /* \"#utility.yul\":4335:4712   */\n      swap3\n      swap2\n      pop\n      pop\n      jump\t// out\n        /* \"#utility.yul\":4718:4833   */\n    tag_89:\n        /* \"#utility.yul\":4803:4826   */\n      tag_178\n        /* \"#utility.yul\":4820:4825   */\n      dup2\n        /* \"#utility.yul\":4803:4826   */\n      tag_82\n      jump\t// in\n    tag_178:\n        /* \"#utility.yul\":4798:4801   */\n      dup3\n        /* \"#utility.yul\":4791:4827   */\n      mstore\n        /* \"#utility.yul\":4718:4833   */\n      pop\n      pop\n      jump\t// out\n        /* \"#utility.yul\":4839:5019   */\n    tag_45:\n        /* \"#utility.yul\":4887:4964   */\n      0x4e487b7100000000000000000000000000000000000000000000000000000000\n        /* \"#utility.yul\":4884:4885   */\n      0x00\n        /* \"#utility.yul\":4877:4965   */\n      mstore\n        /* \"#utility.yul\":4984:4988   */\n      0x21\n        /* \"#utility.yul\":4981:4982   */\n      0x04\n        /* \"#utility.yul\":4974:4989   */\n      mstore\n        /* \"#utility.yul\":5008:5012   */\n      0x24\n        /* \"#utility.yul\":5005:5006   */\n      0x00\n        /* \"#utility.yul\":4998:5013   */\n      revert\n        /* \"#utility.yul\":5025:5143   */\n    tag_90:\n        /* \"#utility.yul\":5111:5112   */\n      0x03\n        /* \"#utility.yul\":5104:5109   */\n      dup2\n        /* \"#utility.yul\":5101:5113   */\n      lt\n        /* \"#utility.yul\":5091:5137   */\n      tag_181\n      jumpi\n        /* \"#utility.yul\":5117:5135   */\n      tag_182\n      tag_45\n      jump\t// in\n    tag_182:\n        /* \"#utility.yul\":5091:5137   */\n    tag_181:\n        /* \"#utility.yul\":5025:5143   */\n      pop\n      jump\t// out\n        /* \"#utility.yul\":5149:5286   */\n    tag_91:\n        /* \"#utility.yul\":5199:5206   */\n      0x00\n        /* \"#utility.yul\":5228:5233   */\n      dup2\n        /* \"#utility.yul\":5217:5233   */\n      swap1\n      pop\n        /* \"#utility.yul\":5234:5280   */\n      tag_184\n        /* \"#utility.yul\":5274:5279   */\n      dup3\n        /* \"#utility.yul\":5234:5280   */\n      tag_90\n      jump\t// in\n    tag_184:\n        /* \"#utility.yul\":5149:5286   */\n      swap2\n      swap1\n      pop\n      jump\t// out\n        /* \"#utility.yul\":5292:5429   */\n    tag_92:\n        /* \"#utility.yul\":5353:5362   */\n      0x00\n        /* \"#utility.yul\":5386:5423   */\n      tag_186\n        /* \"#utility.yul\":5417:5422   */\n      dup3\n        /* \"#utility.yul\":5386:5423   */\n      tag_91\n      jump\t// in\n    tag_186:\n        /* \"#utility.yul\":5373:5423   */\n      swap1\n      pop\n        /* \"#utility.yul\":5292:5429   */\n      swap2\n      swap1\n      pop\n      jump\t// out\n        /* \"#utility.yul\":5435:5588   */\n    tag_93:\n        /* \"#utility.yul\":5533:5581   */\n      tag_188\n        /* \"#utility.yul\":5575:5580   */\n      dup2\n        /* \"#utility.yul\":5533:5581   */\n      tag_92\n      jump\t// in\n    tag_188:\n        /* \"#utility.yul\":5528:5531   */\n      dup3\n        /* \"#utility.yul\":5521:5582   */\n      mstore\n        /* \"#utility.yul\":5435:5588   */\n      pop\n      pop\n      jump\t// out\n        /* \"#utility.yul\":5594:6359   */\n    tag_16:\n        /* \"#utility.yul\":5824:5828   */\n      0x00\n        /* \"#utility.yul\":5862:5865   */\n      0xa0\n        /* \"#utility.yul\":5851:5860   */\n      dup3\n        /* \"#utility.yul\":5847:5866   */\n      add\n        /* \"#utility.yul\":5839:5866   */\n      swap1\n      pop\n        /* \"#utility.yul\":5912:5921   */\n      dup2\n        /* \"#utility.yul\":5906:5910   */\n      dup2\n        /* \"#utility.yul\":5902:5922   */\n      sub\n        /* \"#utility.yul\":5898:5899   */\n      0x00\n        /* \"#utility.yul\":5887:5896   */\n      dup4\n        /* \"#utility.yul\":5883:5900   */\n      add\n        /* \"#utility.yul\":5876:5923   */\n      mstore\n        /* \"#utility.yul\":5940:6018   */\n      tag_190\n        /* \"#utility.yul\":6013:6017   */\n      dup2\n        /* \"#utility.yul\":6004:6010   */\n      dup9\n        /* \"#utility.yul\":5940:6018   */\n      tag_88\n      jump\t// in\n    tag_190:\n        /* \"#utility.yul\":5932:6018   */\n      swap1\n      pop\n        /* \"#utility.yul\":6028:6098   */\n      tag_191\n        /* \"#utility.yul\":6094:6096   */\n      0x20\n        /* \"#utility.yul\":6083:6092   */\n      dup4\n        /* \"#utility.yul\":6079:6097   */\n      add\n        /* \"#utility.yul\":6070:6076   */\n      dup8\n        /* \"#utility.yul\":6028:6098   */\n      tag_89\n      jump\t// in\n    tag_191:\n        /* \"#utility.yul\":6108:6191   */\n      tag_192\n        /* \"#utility.yul\":6187:6189   */\n      0x40\n        /* \"#utility.yul\":6176:6185   */\n      dup4\n        /* \"#utility.yul\":6172:6190   */\n      add\n        /* \"#utility.yul\":6163:6169   */\n      dup7\n        /* \"#utility.yul\":6108:6191   */\n      tag_93\n      jump\t// in\n    tag_192:\n        /* \"#utility.yul\":6201:6271   */\n      tag_193\n        /* \"#utility.yul\":6267:6269   */\n      0x60\n        /* \"#utility.yul\":6256:6265   */\n      dup4\n        /* \"#utility.yul\":6252:6270   */\n      add\n        /* \"#utility.yul\":6243:6249   */\n      dup6\n        /* \"#utility.yul\":6201:6271   */\n      tag_89\n      jump\t// in\n    tag_193:\n        /* \"#utility.yul\":6281:6352   */\n      tag_194\n        /* \"#utility.yul\":6347:6350   */\n      0x80\n        /* \"#utility.yul\":6336:6345   */\n      dup4\n        /* \"#utility.yul\":6332:6351   */\n      add\n        /* \"#utility.yul\":6323:6329   */\n      dup5\n        /* \"#utility.yul\":6281:6352   */\n      tag_89\n      jump\t// in\n    tag_194:\n        /* \"#utility.yul\":5594:6359   */\n      swap7\n      swap6\n      pop\n      pop\n      pop\n      pop\n      pop\n      pop\n      jump\t// out\n        /* \"#utility.yul\":6365:6451   */\n    tag_94:\n        /* \"#utility.yul\":6400:6407   */\n      0x00\n        /* \"#utility.yul\":6440:6444   */\n      0xff\n        /* \"#utility.yul\":6433:6438   */\n      dup3\n        /* \"#utility.yul\":6429:6445   */\n      and\n        /* \"#utility.yul\":6418:6445   */\n      swap1\n      pop\n        /* \"#utility.yul\":6365:6451   */\n      swap2\n      swap1\n      pop\n      jump\t// out\n        /* \"#utility.yul\":6457:6575   */\n    tag_95:\n        /* \"#utility.yul\":6528:6550   */\n      tag_197\n        /* \"#utility.yul\":6544:6549   */\n      dup2\n        /* \"#utility.yul\":6528:6550   */\n      tag_94\n      jump\t// in\n    tag_197:\n        /* \"#utility.yul\":6521:6526   */\n      dup2\n        /* \"#utility.yul\":6518:6551   */\n      eq\n        /* \"#utility.yul\":6508:6569   */\n      tag_198\n      jumpi\n        /* \"#utility.yul\":6565:6566   */\n      0x00\n        /* \"#utility.yul\":6562:6563   */\n      dup1\n        /* \"#utility.yul\":6555:6567   */\n      revert\n        /* \"#utility.yul\":6508:6569   */\n    tag_198:\n        /* \"#utility.yul\":6457:6575   */\n      pop\n      jump\t// out\n        /* \"#utility.yul\":6581:6716   */\n    tag_96:\n        /* \"#utility.yul\":6625:6630   */\n      0x00\n        /* \"#utility.yul\":6663:6669   */\n      dup2\n        /* \"#utility.yul\":6650:6670   */\n      calldataload\n        /* \"#utility.yul\":6641:6670   */\n      swap1\n      pop\n        /* \"#utility.yul\":6679:6710   */\n      tag_200\n        /* \"#utility.yul\":6704:6709   */\n      dup2\n        /* \"#utility.yul\":6679:6710   */\n      tag_95\n      jump\t// in\n    tag_200:\n        /* \"#utility.yul\":6581:6716   */\n      swap3\n      swap2\n      pop\n      pop\n      jump\t// out\n        /* \"#utility.yul\":6722:6834   */\n    tag_97:\n        /* \"#utility.yul\":6808:6809   */\n      0x03\n        /* \"#utility.yul\":6801:6806   */\n      dup2\n        /* \"#utility.yul\":6798:6810   */\n      lt\n        /* \"#utility.yul\":6788:6828   */\n      tag_202\n      jumpi\n        /* \"#utility.yul\":6824:6825   */\n      0x00\n        /* \"#utility.yul\":6821:6822   */\n      dup1\n        /* \"#utility.yul\":6814:6826   */\n      revert\n        /* \"#utility.yul\":6788:6828   */\n    tag_202:\n        /* \"#utility.yul\":6722:6834   */\n      pop\n      jump\t// out\n        /* \"#utility.yul\":6840:7005   */\n    tag_98:\n        /* \"#utility.yul\":6899:6904   */\n      0x00\n        /* \"#utility.yul\":6937:6943   */\n      dup2\n        /* \"#utility.yul\":6924:6944   */\n      calldataload\n        /* \"#utility.yul\":6915:6944   */\n      swap1\n      pop\n        /* \"#utility.yul\":6953:6999   */\n      tag_204\n        /* \"#utility.yul\":6993:6998   */\n      dup2\n        /* \"#utility.yul\":6953:6999   */\n      tag_97\n      jump\t// in\n    tag_204:\n        /* \"#utility.yul\":6840:7005   */\n      swap3\n      swap2\n      pop\n      pop\n      jump\t// out\n        /* \"#utility.yul\":7011:7792   */\n    tag_19:\n        /* \"#utility.yul\":7105:7111   */\n      0x00\n        /* \"#utility.yul\":7113:7119   */\n      dup1\n        /* \"#utility.yul\":7121:7127   */\n      0x00\n        /* \"#utility.yul\":7129:7135   */\n      dup1\n        /* \"#utility.yul\":7178:7181   */\n      0x80\n        /* \"#utility.yul\":7166:7175   */\n      dup6\n        /* \"#utility.yul\":7157:7164   */\n      dup8\n        /* \"#utility.yul\":7153:7176   */\n      sub\n        /* \"#utility.yul\":7149:7182   */\n      slt\n        /* \"#utility.yul\":7146:7266   */\n      iszero\n      tag_206\n      jumpi\n        /* \"#utility.yul\":7185:7264   */\n      tag_207\n      tag_70\n      jump\t// in\n    tag_207:\n        /* \"#utility.yul\":7146:7266   */\n    tag_206:\n        /* \"#utility.yul\":7305:7306   */\n      0x00\n        /* \"#utility.yul\":7330:7381   */\n      tag_208\n        /* \"#utility.yul\":7373:7380   */\n      dup8\n        /* \"#utility.yul\":7364:7370   */\n      dup3\n        /* \"#utility.yul\":7353:7362   */\n      dup9\n        /* \"#utility.yul\":7349:7371   */\n      add\n        /* \"#utility.yul\":7330:7381   */\n      tag_96\n      jump\t// in\n    tag_208:\n        /* \"#utility.yul\":7320:7381   */\n      swap5\n      pop\n        /* \"#utility.yul\":7276:7391   */\n      pop\n        /* \"#utility.yul\":7430:7432   */\n      0x20\n        /* \"#utility.yul\":7456:7522   */\n      tag_209\n        /* \"#utility.yul\":7514:7521   */\n      dup8\n        /* \"#utility.yul\":7505:7511   */\n      dup3\n        /* \"#utility.yul\":7494:7503   */\n      dup9\n        /* \"#utility.yul\":7490:7512   */\n      add\n        /* \"#utility.yul\":7456:7522   */\n      tag_98\n      jump\t// in\n    tag_209:\n        /* \"#utility.yul\":7446:7522   */\n      swap4\n      pop\n        /* \"#utility.yul\":7401:7532   */\n      pop\n        /* \"#utility.yul\":7571:7573   */\n      0x40\n        /* \"#utility.yul\":7597:7648   */\n      tag_210\n        /* \"#utility.yul\":7640:7647   */\n      dup8\n        /* \"#utility.yul\":7631:7637   */\n      dup3\n        /* \"#utility.yul\":7620:7629   */\n      dup9\n        /* \"#utility.yul\":7616:7638   */\n      add\n        /* \"#utility.yul\":7597:7648   */\n      tag_96\n      jump\t// in\n    tag_210:\n        /* \"#utility.yul\":7587:7648   */\n      swap3\n      pop\n        /* \"#utility.yul\":7542:7658   */\n      pop\n        /* \"#utility.yul\":7697:7699   */\n      0x60\n        /* \"#utility.yul\":7723:7775   */\n      tag_211\n        /* \"#utility.yul\":7767:7774   */\n      dup8\n        /* \"#utility.yul\":7758:7764   */\n      dup3\n        /* \"#utility.yul\":7747:7756   */\n      dup9\n        /* \"#utility.yul\":7743:7765   */\n      add\n        /* \"#utility.yul\":7723:7775   */\n      tag_84\n      jump\t// in\n    tag_211:\n        /* \"#utility.yul\":7713:7775   */\n      swap2\n      pop\n        /* \"#utility.yul\":7668:7785   */\n      pop\n        /* \"#utility.yul\":7011:7792   */\n      swap3\n      swap6\n      swap2\n      swap5\n      pop\n      swap3\n      pop\n      jump\t// out\n        /* \"#utility.yul\":7798:8909   */\n    tag_23:\n        /* \"#utility.yul\":7913:7919   */\n      0x00\n        /* \"#utility.yul\":7921:7927   */\n      dup1\n        /* \"#utility.yul\":7929:7935   */\n      0x00\n        /* \"#utility.yul\":7937:7943   */\n      dup1\n        /* \"#utility.yul\":7945:7951   */\n      0x00\n        /* \"#utility.yul\":7994:7997   */\n      0xa0\n        /* \"#utility.yul\":7982:7991   */\n      dup7\n        /* \"#utility.yul\":7973:7980   */\n      dup9\n        /* \"#utility.yul\":7969:7992   */\n      sub\n        /* \"#utility.yul\":7965:7998   */\n      slt\n        /* \"#utility.yul\":7962:8082   */\n      iszero\n      tag_213\n      jumpi\n        /* \"#utility.yul\":8001:8080   */\n      tag_214\n      tag_70\n      jump\t// in\n    tag_214:\n        /* \"#utility.yul\":7962:8082   */\n    tag_213:\n        /* \"#utility.yul\":8149:8150   */\n      0x00\n        /* \"#utility.yul\":8138:8147   */\n      dup7\n        /* \"#utility.yul\":8134:8151   */\n      add\n        /* \"#utility.yul\":8121:8152   */\n      calldataload\n        /* \"#utility.yul\":8179:8197   */\n      0xffffffffffffffff\n        /* \"#utility.yul\":8171:8177   */\n      dup2\n        /* \"#utility.yul\":8168:8198   */\n      gt\n        /* \"#utility.yul\":8165:8282   */\n      iszero\n      tag_215\n      jumpi\n        /* \"#utility.yul\":8201:8280   */\n      tag_216\n      tag_71\n      jump\t// in\n    tag_216:\n        /* \"#utility.yul\":8165:8282   */\n    tag_215:\n        /* \"#utility.yul\":8306:8369   */\n      tag_217\n        /* \"#utility.yul\":8361:8368   */\n      dup9\n        /* \"#utility.yul\":8352:8358   */\n      dup3\n        /* \"#utility.yul\":8341:8350   */\n      dup10\n        /* \"#utility.yul\":8337:8359   */\n      add\n        /* \"#utility.yul\":8306:8369   */\n      tag_81\n      jump\t// in\n    tag_217:\n        /* \"#utility.yul\":8296:8369   */\n      swap6\n      pop\n        /* \"#utility.yul\":8092:8379   */\n      pop\n        /* \"#utility.yul\":8418:8420   */\n      0x20\n        /* \"#utility.yul\":8444:8496   */\n      tag_218\n        /* \"#utility.yul\":8488:8495   */\n      dup9\n        /* \"#utility.yul\":8479:8485   */\n      dup3\n        /* \"#utility.yul\":8468:8477   */\n      dup10\n        /* \"#utility.yul\":8464:8486   */\n      add\n        /* \"#utility.yul\":8444:8496   */\n      tag_84\n      jump\t// in\n    tag_218:\n        /* \"#utility.yul\":8434:8496   */\n      swap5\n      pop\n        /* \"#utility.yul\":8389:8506   */\n      pop\n        /* \"#utility.yul\":8545:8547   */\n      0x40\n        /* \"#utility.yul\":8571:8637   */\n      tag_219\n        /* \"#utility.yul\":8629:8636   */\n      dup9\n        /* \"#utility.yul\":8620:8626   */\n      dup3\n        /* \"#utility.yul\":8609:8618   */\n      dup10\n        /* \"#utility.yul\":8605:8627   */\n      add\n        /* \"#utility.yul\":8571:8637   */\n      tag_98\n      jump\t// in\n    tag_219:\n        /* \"#utility.yul\":8561:8637   */\n      swap4\n      pop\n        /* \"#utility.yul\":8516:8647   */\n      pop\n        /* \"#utility.yul\":8686:8688   */\n      0x60\n        /* \"#utility.yul\":8712:8764   */\n      tag_220\n        /* \"#utility.yul\":8756:8763   */\n      dup9\n        /* \"#utility.yul\":8747:8753   */\n      dup3\n        /* \"#utility.yul\":8736:8745   */\n      dup10\n        /* \"#utility.yul\":8732:8754   */\n      add\n        /* \"#utility.yul\":8712:8764   */\n      tag_84\n      jump\t// in\n    tag_220:\n        /* \"#utility.yul\":8702:8764   */\n      swap3\n      pop\n        /* \"#utility.yul\":8657:8774   */\n      pop\n        /* \"#utility.yul\":8813:8816   */\n      0x80\n        /* \"#utility.yul\":8840:8892   */\n      tag_221\n        /* \"#utility.yul\":8884:8891   */\n      dup9\n        /* \"#utility.yul\":8875:8881   */\n      dup3\n        /* \"#utility.yul\":8864:8873   */\n      dup10\n        /* \"#utility.yul\":8860:8882   */\n      add\n        /* \"#utility.yul\":8840:8892   */\n      tag_84\n      jump\t// in\n    tag_221:\n        /* \"#utility.yul\":8830:8892   */\n      swap2\n      pop\n        /* \"#utility.yul\":8784:8902   */\n      pop\n        /* \"#utility.yul\":7798:8909   */\n      swap3\n      swap6\n      pop\n      swap3\n      swap6\n      swap1\n      swap4\n      pop\n      jump\t// out\n        /* \"#utility.yul\":8915:9086   */\n    tag_99:\n        /* \"#utility.yul\":9055:9078   */\n      0x526f6c6c6e6f20646f6573206e6f742045786973740000000000000000000000\n        /* \"#utility.yul\":9051:9052   */\n      0x00\n        /* \"#utility.yul\":9043:9049   */\n      dup3\n        /* \"#utility.yul\":9039:9053   */\n      add\n        /* \"#utility.yul\":9032:9079   */\n      mstore\n        /* \"#utility.yul\":8915:9086   */\n      pop\n      jump\t// out\n        /* \"#utility.yul\":9092:9458   */\n    tag_100:\n        /* \"#utility.yul\":9234:9237   */\n      0x00\n        /* \"#utility.yul\":9255:9322   */\n      tag_224\n        /* \"#utility.yul\":9319:9321   */\n      0x15\n        /* \"#utility.yul\":9314:9317   */\n      dup4\n        /* \"#utility.yul\":9255:9322   */\n      tag_86\n      jump\t// in\n    tag_224:\n        /* \"#utility.yul\":9248:9322   */\n      swap2\n      pop\n        /* \"#utility.yul\":9331:9424   */\n      tag_225\n        /* \"#utility.yul\":9420:9423   */\n      dup3\n        /* \"#utility.yul\":9331:9424   */\n      tag_99\n      jump\t// in\n    tag_225:\n        /* \"#utility.yul\":9449:9451   */\n      0x20\n        /* \"#utility.yul\":9444:9447   */\n      dup3\n        /* \"#utility.yul\":9440:9452   */\n      add\n        /* \"#utility.yul\":9433:9452   */\n      swap1\n      pop\n        /* \"#utility.yul\":9092:9458   */\n      swap2\n      swap1\n      pop\n      jump\t// out\n        /* \"#utility.yul\":9464:9883   */\n    tag_28:\n        /* \"#utility.yul\":9630:9634   */\n      0x00\n        /* \"#utility.yul\":9668:9670   */\n      0x20\n        /* \"#utility.yul\":9657:9666   */\n      dup3\n        /* \"#utility.yul\":9653:9671   */\n      add\n        /* \"#utility.yul\":9645:9671   */\n      swap1\n      pop\n        /* \"#utility.yul\":9717:9726   */\n      dup2\n        /* \"#utility.yul\":9711:9715   */\n      dup2\n        /* \"#utility.yul\":9707:9727   */\n      sub\n        /* \"#utility.yul\":9703:9704   */\n      0x00\n        /* \"#utility.yul\":9692:9701   */\n      dup4\n        /* \"#utility.yul\":9688:9705   */\n      add\n        /* \"#utility.yul\":9681:9728   */\n      mstore\n        /* \"#utility.yul\":9745:9876   */\n      tag_227\n        /* \"#utility.yul\":9871:9875   */\n      dup2\n        /* \"#utility.yul\":9745:9876   */\n      tag_100\n      jump\t// in\n    tag_227:\n        /* \"#utility.yul\":9737:9876   */\n      swap1\n      pop\n        /* \"#utility.yul\":9464:9883   */\n      swap2\n      swap1\n      pop\n      jump\t// out\n        /* \"#utility.yul\":9889:10069   */\n    tag_101:\n        /* \"#utility.yul\":9937:10014   */\n      0x4e487b7100000000000000000000000000000000000000000000000000000000\n        /* \"#utility.yul\":9934:9935   */\n      0x00\n        /* \"#utility.yul\":9927:10015   */\n      mstore\n        /* \"#utility.yul\":10034:10038   */\n      0x22\n        /* \"#utility.yul\":10031:10032   */\n      0x04\n        /* \"#utility.yul\":10024:10039   */\n      mstore\n        /* \"#utility.yul\":10058:10062   */\n      0x24\n        /* \"#utility.yul\":10055:10056   */\n      0x00\n        /* \"#utility.yul\":10048:10063   */\n      revert\n        /* \"#utility.yul\":10075:10395   */\n    tag_38:\n        /* \"#utility.yul\":10119:10125   */\n      0x00\n        /* \"#utility.yul\":10156:10157   */\n      0x02\n        /* \"#utility.yul\":10150:10154   */\n      dup3\n        /* \"#utility.yul\":10146:10158   */\n      div\n        /* \"#utility.yul\":10136:10158   */\n      swap1\n      pop\n        /* \"#utility.yul\":10203:10204   */\n      0x01\n        /* \"#utility.yul\":10197:10201   */\n      dup3\n        /* \"#utility.yul\":10193:10205   */\n      and\n        /* \"#utility.yul\":10224:10242   */\n      dup1\n        /* \"#utility.yul\":10214:10295   */\n      tag_230\n      jumpi\n        /* \"#utility.yul\":10280:10284   */\n      0x7f\n        /* \"#utility.yul\":10272:10278   */\n      dup3\n        /* \"#utility.yul\":10268:10285   */\n      and\n        /* \"#utility.yul\":10258:10285   */\n      swap2\n      pop\n        /* \"#utility.yul\":10214:10295   */\n    tag_230:\n        /* \"#utility.yul\":10342:10344   */\n      0x20\n        /* \"#utility.yul\":10334:10340   */\n      dup3\n        /* \"#utility.yul\":10331:10345   */\n      lt\n        /* \"#utility.yul\":10311:10329   */\n      dup2\n        /* \"#utility.yul\":10308:10346   */\n      sub\n        /* \"#utility.yul\":10305:10389   */\n      tag_231\n      jumpi\n        /* \"#utility.yul\":10361:10379   */\n      tag_232\n      tag_101\n      jump\t// in\n    tag_232:\n        /* \"#utility.yul\":10305:10389   */\n    tag_231:\n        /* \"#utility.yul\":10126:10395   */\n      pop\n        /* \"#utility.yul\":10075:10395   */\n      swap2\n      swap1\n      pop\n      jump\t// out\n        /* \"#utility.yul\":10401:10542   */\n    tag_102:\n        /* \"#utility.yul\":10450:10454   */\n      0x00\n        /* \"#utility.yul\":10473:10476   */\n      dup2\n        /* \"#utility.yul\":10465:10476   */\n      swap1\n      pop\n        /* \"#utility.yul\":10496:10499   */\n      dup2\n        /* \"#utility.yul\":10493:10494   */\n      0x00\n        /* \"#utility.yul\":10486:10500   */\n      mstore\n        /* \"#utility.yul\":10530:10534   */\n      0x20\n        /* \"#utility.yul\":10527:10528   */\n      0x00\n        /* \"#utility.yul\":10517:10535   */\n      keccak256\n        /* \"#utility.yul\":10509:10535   */\n      swap1\n      pop\n        /* \"#utility.yul\":10401:10542   */\n      swap2\n      swap1\n      pop\n      jump\t// out\n        /* \"#utility.yul\":10548:10641   */\n    tag_103:\n        /* \"#utility.yul\":10585:10591   */\n      0x00\n        /* \"#utility.yul\":10632:10634   */\n      0x20\n        /* \"#utility.yul\":10627:10629   */\n      0x1f\n        /* \"#utility.yul\":10620:10625   */\n      dup4\n        /* \"#utility.yul\":10616:10630   */\n      add\n        /* \"#utility.yul\":10612:10635   */\n      div\n        /* \"#utility.yul\":10602:10635   */\n      swap1\n      pop\n        /* \"#utility.yul\":10548:10641   */\n      swap2\n      swap1\n      pop\n      jump\t// out\n        /* \"#utility.yul\":10647:10754   */\n    tag_104:\n        /* \"#utility.yul\":10691:10699   */\n      0x00\n        /* \"#utility.yul\":10741:10746   */\n      dup3\n        /* \"#utility.yul\":10735:10739   */\n      dup3\n        /* \"#utility.yul\":10731:10747   */\n      shl\n        /* \"#utility.yul\":10710:10747   */\n      swap1\n      pop\n        /* \"#utility.yul\":10647:10754   */\n      swap3\n      swap2\n      pop\n      pop\n      jump\t// out\n        /* \"#utility.yul\":10760:11153   */\n    tag_105:\n        /* \"#utility.yul\":10829:10835   */\n      0x00\n        /* \"#utility.yul\":10879:10880   */\n      0x08\n        /* \"#utility.yul\":10867:10877   */\n      dup4\n        /* \"#utility.yul\":10863:10881   */\n      mul\n        /* \"#utility.yul\":10902:10999   */\n      tag_237\n        /* \"#utility.yul\":10932:10998   */\n      0xffffffffffffffffffffffffffffffffffffffffffffffffffffffffffffffff\n        /* \"#utility.yul\":10921:10930   */\n      dup3\n        /* \"#utility.yul\":10902:10999   */\n      tag_104\n      jump\t// in\n    tag_237:\n        /* \"#utility.yul\":11020:11059   */\n      tag_238\n        /* \"#utility.yul\":11050:11058   */\n      dup7\n        /* \"#utility.yul\":11039:11048   */\n      dup4\n        /* \"#utility.yul\":11020:11059   */\n      tag_104\n      jump\t// in\n    tag_238:\n        /* \"#utility.yul\":11008:11059   */\n      swap6\n      pop\n        /* \"#utility.yul\":11092:11096   */\n      dup1\n        /* \"#utility.yul\":11088:11097   */\n      not\n        /* \"#utility.yul\":11081:11086   */\n      dup5\n        /* \"#utility.yul\":11077:11098   */\n      and\n        /* \"#utility.yul\":11068:11098   */\n      swap4\n      pop\n        /* \"#utility.yul\":11141:11145   */\n      dup1\n        /* \"#utility.yul\":11131:11139   */\n      dup7\n        /* \"#utility.yul\":11127:11146   */\n      and\n        /* \"#utility.yul\":11120:11125   */\n      dup5\n        /* \"#utility.yul\":11117:11147   */\n      or\n        /* \"#utility.yul\":11107:11147   */\n      swap3\n      pop\n        /* \"#utility.yul\":10836:11153   */\n      pop\n      pop\n        /* \"#utility.yul\":10760:11153   */\n      swap4\n      swap3\n      pop\n      pop\n      pop\n      jump\t// out\n        /* \"#utility.yul\":11159:11236   */\n    tag_106:\n        /* \"#utility.yul\":11196:11203   */\n      0x00\n        /* \"#utility.yul\":11225:11230   */\n      dup2\n        /* \"#utility.yul\":11214:11230   */\n      swap1\n      pop\n        /* \"#utility.yul\":11159:11236   */\n      swap2\n      swap1\n      pop\n      jump\t// out\n        /* \"#utility.yul\":11242:11302   */\n    tag_107:\n        /* \"#utility.yul\":11270:11273   */\n      0x00\n        /* \"#utility.yul\":11291:11296   */\n      dup2\n        /* \"#utility.yul\":11284:11296   */\n      swap1\n      pop\n        /* \"#utility.yul\":11242:11302   */\n      swap2\n      swap1\n      pop\n      jump\t// out\n        /* \"#utility.yul\":11308:11450   */\n    tag_108:\n        /* \"#utility.yul\":11358:11367   */\n      0x00\n        /* \"#utility.yul\":11391:11444   */\n      tag_242\n        /* \"#utility.yul\":11409:11443   */\n      tag_243\n        /* \"#utility.yul\":11418:11442   */\n      tag_244\n        /* \"#utility.yul\":11436:11441   */\n      dup5\n        /* \"#utility.yul\":11418:11442   */\n      tag_106\n      jump\t// in\n    tag_244:\n        /* \"#utility.yul\":11409:11443   */\n      tag_107\n      jump\t// in\n    tag_243:\n        /* \"#utility.yul\":11391:11444   */\n      tag_106\n      jump\t// in\n    tag_242:\n        /* \"#utility.yul\":11378:11444   */\n      swap1\n      pop\n        /* \"#utility.yul\":11308:11450   */\n      swap2\n      swap1\n      pop\n      jump\t// out\n        /* \"#utility.yul\":11456:11531   */\n    tag_109:\n        /* \"#utility.yul\":11499:11502   */\n      0x00\n        /* \"#utility.yul\":11520:11525   */\n      dup2\n        /* \"#utility.yul\":11513:11525   */\n      swap1\n      pop\n        /* \"#utility.yul\":11456:11531   */\n      swap2\n      swap1\n      pop\n      jump\t// out\n        /* \"#utility.yul\":11537:11806   */\n    tag_110:\n        /* \"#utility.yul\":11647:11686   */\n      tag_247\n        /* \"#utility.yul\":11678:11685   */\n      dup4\n        /* \"#utility.yul\":11647:11686   */\n      tag_108\n      jump\t// in\n    tag_247:\n        /* \"#utility.yul\":11708:11799   */\n      tag_248\n        /* \"#utility.yul\":11757:11798   */\n      tag_249\n        /* \"#utility.yul\":11781:11797   */\n      dup3\n        /* \"#utility.yul\":11757:11798   */\n      tag_109\n      jump\t// in\n    tag_249:\n        /* \"#utility.yul\":11749:11755   */\n      dup5\n        /* \"#utility.yul\":11742:11746   */\n      dup5\n        /* \"#utility.yul\":11736:11747   */\n      sload\n        /* \"#utility.yul\":11708:11799   */\n      tag_105\n      jump\t// in\n    tag_248:\n        /* \"#utility.yul\":11702:11706   */\n      dup3\n        /* \"#utility.yul\":11695:11800   */\n      sstore\n        /* \"#utility.yul\":11613:11806   */\n      pop\n        /* \"#utility.yul\":11537:11806   */\n      pop\n      pop\n      pop\n      jump\t// out\n        /* \"#utility.yul\":11812:11885   */\n    tag_111:\n        /* \"#utility.yul\":11857:11860   */\n      0x00\n        /* \"#utility.yul\":11812:11885   */\n      swap1\n      jump\t// out\n        /* \"#utility.yul\":11891:12080   */\n    tag_112:\n        /* \"#utility.yul\":11968:12000   */\n      tag_252\n      tag_111\n      jump\t// in\n    tag_252:\n        /* \"#utility.yul\":12009:12074   */\n      tag_253\n        /* \"#utility.yul\":12067:12073   */\n      dup2\n        /* \"#utility.yul\":12059:12065   */\n      dup5\n        /* \"#utility.yul\":12053:12057   */\n      dup5\n        /* \"#utility.yul\":12009:12074   */\n      tag_110\n      jump\t// in\n    tag_253:\n        /* \"#utility.yul\":11944:12080   */\n      pop\n        /* \"#utility.yul\":11891:12080   */\n      pop\n      pop\n      jump\t// out\n        /* \"#utility.yul\":12086:12272   */\n    tag_113:\n        /* \"#utility.yul\":12146:12266   */\n    tag_255:\n        /* \"#utility.yul\":12163:12166   */\n      dup2\n        /* \"#utility.yul\":12156:12161   */\n      dup2\n        /* \"#utility.yul\":12153:12167   */\n      lt\n        /* \"#utility.yul\":12146:12266   */\n      iszero\n      tag_257\n      jumpi\n        /* \"#utility.yul\":12217:12256   */\n      tag_258\n        /* \"#utility.yul\":12254:12255   */\n      0x00\n        /* \"#utility.yul\":12247:12252   */\n      dup3\n        /* \"#utility.yul\":12217:12256   */\n      tag_112\n      jump\t// in\n    tag_258:\n        /* \"#utility.yul\":12190:12191   */\n      0x01\n        /* \"#utility.yul\":12183:12188   */\n      dup2\n        /* \"#utility.yul\":12179:12192   */\n      add\n        /* \"#utility.yul\":12170:12192   */\n      swap1\n      pop\n        /* \"#utility.yul\":12146:12266   */\n      jump(tag_255)\n    tag_257:\n        /* \"#utility.yul\":12086:12272   */\n      pop\n      pop\n      jump\t// out\n        /* \"#utility.yul\":12278:12821   */\n    tag_114:\n        /* \"#utility.yul\":12379:12381   */\n      0x1f\n        /* \"#utility.yul\":12374:12377   */\n      dup3\n        /* \"#utility.yul\":12371:12382   */\n      gt\n        /* \"#utility.yul\":12368:12814   */\n      iszero\n      tag_260\n      jumpi\n        /* \"#utility.yul\":12413:12451   */\n      tag_261\n        /* \"#utility.yul\":12445:12450   */\n      dup2\n        /* \"#utility.yul\":12413:12451   */\n      tag_102\n      jump\t// in\n    tag_261:\n        /* \"#utility.yul\":12497:12526   */\n      tag_262\n        /* \"#utility.yul\":12515:12525   */\n      dup5\n        /* \"#utility.yul\":12497:12526   */\n      tag_103\n      jump\t// in\n    tag_262:\n        /* \"#utility.yul\":12487:12495   */\n      dup2\n        /* \"#utility.yul\":12483:12527   */\n      add\n        /* \"#utility.yul\":12680:12682   */\n      0x20\n        /* \"#utility.yul\":12668:12678   */\n      dup6\n        /* \"#utility.yul\":12665:12683   */\n      lt\n        /* \"#utility.yul\":12662:12711   */\n      iszero\n      tag_263\n      jumpi\n        /* \"#utility.yul\":12701:12709   */\n      dup2\n        /* \"#utility.yul\":12686:12709   */\n      swap1\n      pop\n        /* \"#utility.yul\":12662:12711   */\n    tag_263:\n        /* \"#utility.yul\":12724:12804   */\n      tag_264\n        /* \"#utility.yul\":12780:12802   */\n      tag_265\n        /* \"#utility.yul\":12798:12801   */\n      dup6\n        /* \"#utility.yul\":12780:12802   */\n      tag_103\n      jump\t// in\n    tag_265:\n        /* \"#utility.yul\":12770:12778   */\n      dup4\n        /* \"#utility.yul\":12766:12803   */\n      add\n        /* \"#utility.yul\":12753:12764   */\n      dup3\n        /* \"#utility.yul\":12724:12804   */\n      tag_113\n      jump\t// in\n    tag_264:\n        /* \"#utility.yul\":12383:12814   */\n      pop\n      pop\n        /* \"#utility.yul\":12368:12814   */\n    tag_260:\n        /* \"#utility.yul\":12278:12821   */\n      pop\n      pop\n      pop\n      jump\t// out\n        /* \"#utility.yul\":12827:12944   */\n    tag_115:\n        /* \"#utility.yul\":12881:12889   */\n      0x00\n        /* \"#utility.yul\":12931:12936   */\n      dup3\n        /* \"#utility.yul\":12925:12929   */\n      dup3\n        /* \"#utility.yul\":12921:12937   */\n      shr\n        /* \"#utility.yul\":12900:12937   */\n      swap1\n      pop\n        /* \"#utility.yul\":12827:12944   */\n      swap3\n      swap2\n      pop\n      pop\n      jump\t// out\n        /* \"#utility.yul\":12950:13119   */\n    tag_116:\n        /* \"#utility.yul\":12994:13000   */\n      0x00\n        /* \"#utility.yul\":13027:13078   */\n      tag_268\n        /* \"#utility.yul\":13075:13076   */\n      0x00\n        /* \"#utility.yul\":13071:13077   */\n      not\n        /* \"#utility.yul\":13063:13068   */\n      dup5\n        /* \"#utility.yul\":13060:13061   */\n      0x08\n        /* \"#utility.yul\":13056:13069   */\n      mul\n        /* \"#utility.yul\":13027:13078   */\n      tag_115\n      jump\t// in\n    tag_268:\n        /* \"#utility.yul\":13023:13079   */\n      not\n        /* \"#utility.yul\":13108:13112   */\n      dup1\n        /* \"#utility.yul\":13102:13106   */\n      dup4\n        /* \"#utility.yul\":13098:13113   */\n      and\n        /* \"#utility.yul\":13088:13113   */\n      swap2\n      pop\n        /* \"#utility.yul\":13001:13119   */\n      pop\n        /* \"#utility.yul\":12950:13119   */\n      swap3\n      swap2\n      pop\n      pop\n      jump\t// out\n        /* \"#utility.yul\":13124:13419   */\n    tag_117:\n        /* \"#utility.yul\":13200:13204   */\n      0x00\n        /* \"#utility.yul\":13346:13375   */\n      tag_270\n        /* \"#utility.yul\":13371:13374   */\n      dup4\n        /* \"#utility.yul\":13365:13369   */\n      dup4\n        /* \"#utility.yul\":13346:13375   */\n      tag_116\n      jump\t// in\n    tag_270:\n        /* \"#utility.yul\":13338:13375   */\n      swap2\n      pop\n        /* \"#utility.yul\":13408:13411   */\n      dup3\n        /* \"#utility.yul\":13405:13406   */\n      0x02\n        /* \"#utility.yul\":13401:13412   */\n      mul\n        /* \"#utility.yul\":13395:13399   */\n      dup3\n        /* \"#utility.yul\":13392:13413   */\n      or\n        /* \"#utility.yul\":13384:13413   */\n      swap1\n      pop\n        /* \"#utility.yul\":13124:13419   */\n      swap3\n      swap2\n      pop\n      pop\n      jump\t// out\n        /* \"#utility.yul\":13424:14819   */\n    tag_31:\n        /* \"#utility.yul\":13541:13578   */\n      tag_272\n        /* \"#utility.yul\":13574:13577   */\n      dup3\n        /* \"#utility.yul\":13541:13578   */\n      tag_85\n      jump\t// in\n    tag_272:\n        /* \"#utility.yul\":13643:13661   */\n      0xffffffffffffffff\n        /* \"#utility.yul\":13635:13641   */\n      dup2\n        /* \"#utility.yul\":13632:13662   */\n      gt\n        /* \"#utility.yul\":13629:13685   */\n      iszero\n      tag_273\n      jumpi\n        /* \"#utility.yul\":13665:13683   */\n      tag_274\n      tag_75\n      jump\t// in\n    tag_274:\n        /* \"#utility.yul\":13629:13685   */\n    tag_273:\n        /* \"#utility.yul\":13709:13747   */\n      tag_275\n        /* \"#utility.yul\":13741:13745   */\n      dup3\n        /* \"#utility.yul\":13735:13746   */\n      sload\n        /* \"#utility.yul\":13709:13747   */\n      tag_38\n      jump\t// in\n    tag_275:\n        /* \"#utility.yul\":13794:13861   */\n      tag_276\n        /* \"#utility.yul\":13854:13860   */\n      dup3\n        /* \"#utility.yul\":13846:13852   */\n      dup3\n        /* \"#utility.yul\":13840:13844   */\n      dup6\n        /* \"#utility.yul\":13794:13861   */\n      tag_114\n      jump\t// in\n    tag_276:\n        /* \"#utility.yul\":13888:13889   */\n      0x00\n        /* \"#utility.yul\":13912:13916   */\n      0x20\n        /* \"#utility.yul\":13899:13916   */\n      swap1\n      pop\n        /* \"#utility.yul\":13944:13946   */\n      0x1f\n        /* \"#utility.yul\":13936:13942   */\n      dup4\n        /* \"#utility.yul\":13933:13947   */\n      gt\n        /* \"#utility.yul\":13961:13962   */\n      0x01\n        /* \"#utility.yul\":13956:14574   */\n      dup2\n      eq\n      tag_278\n      jumpi\n        /* \"#utility.yul\":14618:14619   */\n      0x00\n        /* \"#utility.yul\":14635:14641   */\n      dup5\n        /* \"#utility.yul\":14632:14709   */\n      iszero\n      tag_279\n      jumpi\n        /* \"#utility.yul\":14684:14693   */\n      dup3\n        /* \"#utility.yul\":14679:14682   */\n      dup8\n        /* \"#utility.yul\":14675:14694   */\n      add\n        /* \"#utility.yul\":14669:14695   */\n      mload\n        /* \"#utility.yul\":14660:14695   */\n      swap1\n      pop\n        /* \"#utility.yul\":14632:14709   */\n    tag_279:\n        /* \"#utility.yul\":14735:14802   */\n      tag_280\n        /* \"#utility.yul\":14795:14801   */\n      dup6\n        /* \"#utility.yul\":14788:14793   */\n      dup3\n        /* \"#utility.yul\":14735:14802   */\n      tag_117\n      jump\t// in\n    tag_280:\n        /* \"#utility.yul\":14729:14733   */\n      dup7\n        /* \"#utility.yul\":14722:14803   */\n      sstore\n        /* \"#utility.yul\":14591:14813   */\n      pop\n        /* \"#utility.yul\":13926:14813   */\n      jump(tag_277)\n        /* \"#utility.yul\":13956:14574   */\n    tag_278:\n        /* \"#utility.yul\":14008:14012   */\n      0x1f\n        /* \"#utility.yul\":14004:14013   */\n      not\n        /* \"#utility.yul\":13996:14002   */\n      dup5\n        /* \"#utility.yul\":13992:14014   */\n      and\n        /* \"#utility.yul\":14042:14079   */\n      tag_281\n        /* \"#utility.yul\":14074:14078   */\n      dup7\n        /* \"#utility.yul\":14042:14079   */\n      tag_102\n      jump\t// in\n    tag_281:\n        /* \"#utility.yul\":14101:14102   */\n      0x00\n        /* \"#utility.yul\":14115:14323   */\n    tag_282:\n        /* \"#utility.yul\":14129:14136   */\n      dup3\n        /* \"#utility.yul\":14126:14127   */\n      dup2\n        /* \"#utility.yul\":14123:14137   */\n      lt\n        /* \"#utility.yul\":14115:14323   */\n      iszero\n      tag_284\n      jumpi\n        /* \"#utility.yul\":14208:14217   */\n      dup5\n        /* \"#utility.yul\":14203:14206   */\n      dup10\n        /* \"#utility.yul\":14199:14218   */\n      add\n        /* \"#utility.yul\":14193:14219   */\n      mload\n        /* \"#utility.yul\":14185:14191   */\n      dup3\n        /* \"#utility.yul\":14178:14220   */\n      sstore\n        /* \"#utility.yul\":14259:14260   */\n      0x01\n        /* \"#utility.yul\":14251:14257   */\n      dup3\n        /* \"#utility.yul\":14247:14261   */\n      add\n        /* \"#utility.yul\":14237:14261   */\n      swap2\n      pop\n        /* \"#utility.yul\":14306:14308   */\n      0x20\n        /* \"#utility.yul\":14295:14304   */\n      dup6\n        /* \"#utility.yul\":14291:14309   */\n      add\n        /* \"#utility.yul\":14278:14309   */\n      swap5\n      pop\n        /* \"#utility.yul\":14152:14156   */\n      0x20\n        /* \"#utility.yul\":14149:14150   */\n      dup2\n        /* \"#utility.yul\":14145:14157   */\n      add\n        /* \"#utility.yul\":14140:14157   */\n      swap1\n      pop\n        /* \"#utility.yul\":14115:14323   */\n      jump(tag_282)\n    tag_284:\n        /* \"#utility.yul\":14351:14357   */\n      dup7\n        /* \"#utility.yul\":14342:14349   */\n      dup4\n        /* \"#utility.yul\":14339:14358   */\n      lt\n        /* \"#utility.yul\":14336:14515   */\n      iszero\n      tag_285\n      jumpi\n        /* \"#utility.yul\":14409:14418   */\n      dup5\n        /* \"#utility.yul\":14404:14407   */\n      dup10\n        /* \"#utility.yul\":14400:14419   */\n      add\n        /* \"#utility.yul\":14394:14420   */\n      mload\n        /* \"#utility.yul\":14452:14500   */\n      tag_286\n        /* \"#utility.yul\":14494:14498   */\n      0x1f\n        /* \"#utility.yul\":14486:14492   */\n      dup10\n        /* \"#utility.yul\":14482:14499   */\n      and\n        /* \"#utility.yul\":14471:14480   */\n      dup3\n        /* \"#utility.yul\":14452:14500   */\n      tag_116\n      jump\t// in\n    tag_286:\n        /* \"#utility.yul\":14444:14450   */\n      dup4\n        /* \"#utility.yul\":14437:14501   */\n      sstore\n        /* \"#utility.yul\":14359:14515   */\n      pop\n        /* \"#utility.yul\":14336:14515   */\n    tag_285:\n        /* \"#utility.yul\":14561:14562   */\n      0x01\n        /* \"#utility.yul\":14557:14558   */\n      0x02\n        /* \"#utility.yul\":14549:14555   */\n      dup9\n        /* \"#utility.yul\":14545:14559   */\n      mul\n        /* \"#utility.yul\":14541:14563   */\n      add\n        /* \"#utility.yul\":14535:14539   */\n      dup9\n        /* \"#utility.yul\":14528:14564   */\n      sstore\n        /* \"#utility.yul\":13963:14574   */\n      pop\n      pop\n      pop\n        /* \"#utility.yul\":13926:14813   */\n    tag_277:\n      pop\n        /* \"#utility.yul\":13516:14819   */\n      pop\n      pop\n      pop\n        /* \"#utility.yul\":13424:14819   */\n      pop\n      pop\n      jump\t// out\n        /* \"#utility.yul\":14825:14998   */\n    tag_118:\n        /* \"#utility.yul\":14965:14990   */\n      0x596f752063616e6e6f7420616363657373207468697320000000000000000000\n        /* \"#utility.yul\":14961:14962   */\n      0x00\n        /* \"#utility.yul\":14953:14959   */\n      dup3\n        /* \"#utility.yul\":14949:14963   */\n      add\n        /* \"#utility.yul\":14942:14991   */\n      mstore\n        /* \"#utility.yul\":14825:14998   */\n      pop\n      jump\t// out\n        /* \"#utility.yul\":15004:15370   */\n    tag_119:\n        /* \"#utility.yul\":15146:15149   */\n      0x00\n        /* \"#utility.yul\":15167:15234   */\n      tag_289\n        /* \"#utility.yul\":15231:15233   */\n      0x17\n        /* \"#utility.yul\":15226:15229   */\n      dup4\n        /* \"#utility.yul\":15167:15234   */\n      tag_86\n      jump\t// in\n    tag_289:\n        /* \"#utility.yul\":15160:15234   */\n      swap2\n      pop\n        /* \"#utility.yul\":15243:15336   */\n      tag_290\n        /* \"#utility.yul\":15332:15335   */\n      dup3\n        /* \"#utility.yul\":15243:15336   */\n      tag_118\n      jump\t// in\n    tag_290:\n        /* \"#utility.yul\":15361:15363   */\n      0x20\n        /* \"#utility.yul\":15356:15359   */\n      dup3\n        /* \"#utility.yul\":15352:15364   */\n      add\n        /* \"#utility.yul\":15345:15364   */\n      swap1\n      pop\n        /* \"#utility.yul\":15004:15370   */\n      swap2\n      swap1\n      pop\n      jump\t// out\n        /* \"#utility.yul\":15376:15795   */\n    tag_35:\n        /* \"#utility.yul\":15542:15546   */\n      0x00\n        /* \"#utility.yul\":15580:15582   */\n      0x20\n        /* \"#utility.yul\":15569:15578   */\n      dup3\n        /* \"#utility.yul\":15565:15583   */\n      add\n        /* \"#utility.yul\":15557:15583   */\n      swap1\n      pop\n        /* \"#utility.yul\":15629:15638   */\n      dup2\n        /* \"#utility.yul\":15623:15627   */\n      dup2\n        /* \"#utility.yul\":15619:15639   */\n      sub\n        /* \"#utility.yul\":15615:15616   */\n      0x00\n        /* \"#utility.yul\":15604:15613   */\n      dup4\n        /* \"#utility.yul\":15600:15617   */\n      add\n        /* \"#utility.yul\":15593:15640   */\n      mstore\n        /* \"#utility.yul\":15657:15788   */\n      tag_292\n        /* \"#utility.yul\":15783:15787   */\n      dup2\n        /* \"#utility.yul\":15657:15788   */\n      tag_119\n      jump\t// in\n    tag_292:\n        /* \"#utility.yul\":15649:15788   */\n      swap1\n      pop\n        /* \"#utility.yul\":15376:15795   */\n      swap2\n      swap1\n      pop\n      jump\t// out\n        /* \"#utility.yul\":15801:15975   */\n    tag_120:\n        /* \"#utility.yul\":15941:15967   */\n      0x526f6c6c6e6f20697320616c7265616479204578697374730000000000000000\n        /* \"#utility.yul\":15937:15938   */\n      0x00\n        /* \"#utility.yul\":15929:15935   */\n      dup3\n        /* \"#utility.yul\":15925:15939   */\n      add\n        /* \"#utility.yul\":15918:15968   */\n      mstore\n        /* \"#utility.yul\":15801:15975   */\n      pop\n      jump\t// out\n        /* \"#utility.yul\":15981:16347   */\n    tag_121:\n        /* \"#utility.yul\":16123:16126   */\n      0x00\n        /* \"#utility.yul\":16144:16211   */\n      tag_295\n        /* \"#utility.yul\":16208:16210   */\n      0x18\n        /* \"#utility.yul\":16203:16206   */\n      dup4\n        /* \"#utility.yul\":16144:16211   */\n      tag_86\n      jump\t// in\n    tag_295:\n        /* \"#utility.yul\":16137:16211   */\n      swap2\n      pop\n        /* \"#utility.yul\":16220:16313   */\n      tag_296\n        /* \"#utility.yul\":16309:16312   */\n      dup3\n        /* \"#utility.yul\":16220:16313   */\n      tag_120\n      jump\t// in\n    tag_296:\n        /* \"#utility.yul\":16338:16340   */\n      0x20\n        /* \"#utility.yul\":16333:16336   */\n      dup3\n        /* \"#utility.yul\":16329:16341   */\n      add\n        /* \"#utility.yul\":16322:16341   */\n      swap1\n      pop\n        /* \"#utility.yul\":15981:16347   */\n      swap2\n      swap1\n      pop\n      jump\t// out\n        /* \"#utility.yul\":16353:16772   */\n    tag_63:\n        /* \"#utility.yul\":16519:16523   */\n      0x00\n        /* \"#utility.yul\":16557:16559   */\n      0x20\n        /* \"#utility.yul\":16546:16555   */\n      dup3\n        /* \"#utility.yul\":16542:16560   */\n      add\n        /* \"#utility.yul\":16534:16560   */\n      swap1\n      pop\n        /* \"#utility.yul\":16606:16615   */\n      dup2\n        /* \"#utility.yul\":16600:16604   */\n      dup2\n        /* \"#utility.yul\":16596:16616   */\n      sub\n        /* \"#utility.yul\":16592:16593   */\n      0x00\n        /* \"#utility.yul\":16581:16590   */\n      dup4\n        /* \"#utility.yul\":16577:16594   */\n      add\n        /* \"#utility.yul\":16570:16617   */\n      mstore\n        /* \"#utility.yul\":16634:16765   */\n      tag_298\n        /* \"#utility.yul\":16760:16764   */\n      dup2\n        /* \"#utility.yul\":16634:16765   */\n      tag_121\n      jump\t// in\n    tag_298:\n        /* \"#utility.yul\":16626:16765   */\n      swap1\n      pop\n        /* \"#utility.yul\":16353:16772   */\n      swap2\n      swap1\n      pop\n      jump\t// out\n\n    auxdata: 0xa264697066735822122007be10478aa4603418663c07fb2c060a703b22b4b0464cf1caadaa09df20b8e964736f6c634300081a0033\n}\n",
				"bytecode": {
					"linkReferences": {},
					"object": "6080604052348015600e575f80fd5b50335f806101000a81548173ffffffffffffffffffffffffffffffffffffffff021916908373ffffffffffffffffffffffffffffffffffffffff16021790555061102e8061005b5f395ff3fe608060405234801561000f575f80fd5b506004361061004a575f3560e01c80633b92a8341461004e57806360cbc7551461006a578063ce39721f1461009e578063e9a31be1146100ba575b5f80fd5b610068600480360381019061006391906108df565b6100d6565b005b610084600480360381019061007f9190610939565b610173565b604051610095959493929190610a46565b60405180910390f35b6100b860048036038101906100b39190610af7565b61039d565b005b6100d460048036038101906100cf9190610b5b565b610527565b005b8060015f8261ffff1661ffff1681526020019081526020015f2060010160079054906101000a900460ff16610140576040517f08c379a000000000000000000000000000000000000000000000000000000000815260040161013790610c38565b60405180910390fd5b5f60015f8461ffff1661ffff1681526020019081526020015f20905083815f01908161016c9190610e59565b5050505050565b60605f805f805f8054906101000a900473ffffffffffffffffffffffffffffffffffffffff1673ffffffffffffffffffffffffffffffffffffffff163373ffffffffffffffffffffffffffffffffffffffff1614610206576040517f08c379a00000000000000000000000000000000000000000000000000000000081526004016101fd90610f72565b60405180910390fd5b5f60015f8861ffff1661ffff1681526020019081526020015f206040518060c00160405290815f8201805461023a90610c83565b80601f016020809104026020016040519081016040528092919081815260200182805461026690610c83565b80156102b15780601f10610288576101008083540402835291602001916102b1565b820191905f5260205f20905b81548152906001019060200180831161029457829003601f168201915b50505050508152602001600182015f9054906101000a900461ffff1661ffff1661ffff1681526020016001820160029054906101000a900460ff1660028111156102fe576102fd6109d3565b5b60028111156103105761030f6109d3565b5b81526020016001820160039054906101000a900461ffff1661ffff1661ffff1681526020016001820160059054906101000a900461ffff1661ffff1661ffff1681526020016001820160079054906101000a900460ff1615151515815250509050805f01518160200151826040015183606001518460800151955095509550955095505091939590929450565b5f8054906101000a900473ffffffffffffffffffffffffffffffffffffffff1673ffffffffffffffffffffffffffffffffffffffff163373ffffffffffffffffffffffffffffffffffffffff161461042a576040517f08c379a000000000000000000000000000000000000000000000000000000000815260040161042190610f72565b60405180910390fd5b8060015f8261ffff1661ffff1681526020019081526020015f2060010160079054906101000a900460ff16610494576040517f08c379a000000000000000000000000000000000000000000000000000000000815260040161048b90610c38565b60405180910390fd5b5f60015f8461ffff1661ffff1681526020019081526020015f2090508560ff16816001015f6101000a81548161ffff021916908361ffff160217905550848160010160026101000a81548160ff021916908360028111156104f8576104f76109d3565b5b02179055508360ff168160010160036101000a81548161ffff021916908361ffff160217905550505050505050565b5f8054906101000a900473ffffffffffffffffffffffffffffffffffffffff1673ffffffffffffffffffffffffffffffffffffffff163373ffffffffffffffffffffffffffffffffffffffff16146105b4576040517f08c379a00000000000000000000000000000000000000000000000000000000081526004016105ab90610f72565b60405180910390fd5b60015f8261ffff1661ffff1681526020019081526020015f2060010160079054906101000a900460ff161561061e576040517f08c379a000000000000000000000000000000000000000000000000000000000815260040161061590610fda565b60405180910390fd5b6040518060c001604052808681526020018561ffff16815260200184600281111561064c5761064b6109d3565b5b81526020018361ffff1681526020018261ffff1681526020016001151581525060015f8361ffff1661ffff1681526020019081526020015f205f820151815f0190816106989190610e59565b506020820151816001015f6101000a81548161ffff021916908361ffff16021790555060408201518160010160026101000a81548160ff021916908360028111156106e6576106e56109d3565b5b021790555060608201518160010160036101000a81548161ffff021916908361ffff16021790555060808201518160010160056101000a81548161ffff021916908361ffff16021790555060a08201518160010160076101000a81548160ff0219169083151502179055509050505050505050565b5f604051905090565b5f80fd5b5f80fd5b5f80fd5b5f80fd5b5f601f19601f8301169050919050565b7f4e487b71000000000000000000000000000000000000000000000000000000005f52604160045260245ffd5b6107ba82610774565b810181811067ffffffffffffffff821117156107d9576107d8610784565b5b80604052505050565b5f6107eb61075b565b90506107f782826107b1565b919050565b5f67ffffffffffffffff82111561081657610815610784565b5b61081f82610774565b9050602081019050919050565b828183375f83830152505050565b5f61084c610847846107fc565b6107e2565b90508281526020810184848401111561086857610867610770565b5b61087384828561082c565b509392505050565b5f82601f83011261088f5761088e61076c565b5b813561089f84826020860161083a565b91505092915050565b5f61ffff82169050919050565b6108be816108a8565b81146108c8575f80fd5b50565b5f813590506108d9816108b5565b92915050565b5f80604083850312156108f5576108f4610764565b5b5f83013567ffffffffffffffff81111561091257610911610768565b5b61091e8582860161087b565b925050602061092f858286016108cb565b9150509250929050565b5f6020828403121561094e5761094d610764565b5b5f61095b848285016108cb565b91505092915050565b5f81519050919050565b5f82825260208201905092915050565b8281835e5f83830152505050565b5f61099682610964565b6109a0818561096e565b93506109b081856020860161097e565b6109b981610774565b840191505092915050565b6109cd816108a8565b82525050565b7f4e487b71000000000000000000000000000000000000000000000000000000005f52602160045260245ffd5b60038110610a1157610a106109d3565b5b50565b5f819050610a2182610a00565b919050565b5f610a3082610a14565b9050919050565b610a4081610a26565b82525050565b5f60a0820190508181035f830152610a5e818861098c565b9050610a6d60208301876109c4565b610a7a6040830186610a37565b610a8760608301856109c4565b610a9460808301846109c4565b9695505050505050565b5f60ff82169050919050565b610ab381610a9e565b8114610abd575f80fd5b50565b5f81359050610ace81610aaa565b92915050565b60038110610ae0575f80fd5b50565b5f81359050610af181610ad4565b92915050565b5f805f8060808587031215610b0f57610b0e610764565b5b5f610b1c87828801610ac0565b9450506020610b2d87828801610ae3565b9350506040610b3e87828801610ac0565b9250506060610b4f878288016108cb565b91505092959194509250565b5f805f805f60a08688031215610b7457610b73610764565b5b5f86013567ffffffffffffffff811115610b9157610b90610768565b5b610b9d8882890161087b565b9550506020610bae888289016108cb565b9450506040610bbf88828901610ae3565b9350506060610bd0888289016108cb565b9250506080610be1888289016108cb565b9150509295509295909350565b7f526f6c6c6e6f20646f6573206e6f7420457869737400000000000000000000005f82015250565b5f610c2260158361096e565b9150610c2d82610bee565b602082019050919050565b5f6020820190508181035f830152610c4f81610c16565b9050919050565b7f4e487b71000000000000000000000000000000000000000000000000000000005f52602260045260245ffd5b5f6002820490506001821680610c9a57607f821691505b602082108103610cad57610cac610c56565b5b50919050565b5f819050815f5260205f209050919050565b5f6020601f8301049050919050565b5f82821b905092915050565b5f60088302610d0f7fffffffffffffffffffffffffffffffffffffffffffffffffffffffffffffffff82610cd4565b610d198683610cd4565b95508019841693508086168417925050509392505050565b5f819050919050565b5f819050919050565b5f610d5d610d58610d5384610d31565b610d3a565b610d31565b9050919050565b5f819050919050565b610d7683610d43565b610d8a610d8282610d64565b848454610ce0565b825550505050565b5f90565b610d9e610d92565b610da9818484610d6d565b505050565b5b81811015610dcc57610dc15f82610d96565b600181019050610daf565b5050565b601f821115610e1157610de281610cb3565b610deb84610cc5565b81016020851015610dfa578190505b610e0e610e0685610cc5565b830182610dae565b50505b505050565b5f82821c905092915050565b5f610e315f1984600802610e16565b1980831691505092915050565b5f610e498383610e22565b9150826002028217905092915050565b610e6282610964565b67ffffffffffffffff811115610e7b57610e7a610784565b5b610e858254610c83565b610e90828285610dd0565b5f60209050601f831160018114610ec1575f8415610eaf578287015190505b610eb98582610e3e565b865550610f20565b601f198416610ecf86610cb3565b5f5b82811015610ef657848901518255600182019150602085019450602081019050610ed1565b86831015610f135784890151610f0f601f891682610e22565b8355505b6001600288020188555050505b505050505050565b7f596f752063616e6e6f74206163636573732074686973200000000000000000005f82015250565b5f610f5c60178361096e565b9150610f6782610f28565b602082019050919050565b5f6020820190508181035f830152610f8981610f50565b9050919050565b7f526f6c6c6e6f20697320616c72656164792045786973747300000000000000005f82015250565b5f610fc460188361096e565b9150610fcf82610f90565b602082019050919050565b5f6020820190508181035f830152610ff181610fb8565b905091905056fea264697066735822122007be10478aa4603418663c07fb2c060a703b22b4b0464cf1caadaa09df20b8e964736f6c634300081a0033",
					"opcodes": "PUSH1 0x80 PUSH1 0x40 MSTORE CALLVALUE DUP1 ISZERO PUSH1 0xE JUMPI PUSH0 DUP1 REVERT JUMPDEST POP CALLER PUSH0 DUP1 PUSH2 0x100 EXP DUP2 SLOAD DUP2 PUSH20 0xFFFFFFFFFFFFFFFFFFFFFFFFFFFFFFFFFFFFFFFF MUL NOT AND SWAP1 DUP4 PUSH20 0xFFFFFFFFFFFFFFFFFFFFFFFFFFFFFFFFFFFFFFFF AND MUL OR SWAP1 SSTORE POP PUSH2 0x102E DUP1 PUSH2 0x5B PUSH0 CODECOPY PUSH0 RETURN INVALID PUSH1 0x80 PUSH1 0x40 MSTORE CALLVALUE DUP1 ISZERO PUSH2 0xF JUMPI PUSH0 DUP1 REVERT JUMPDEST POP PUSH1 0x4 CALLDATASIZE LT PUSH2 0x4A JUMPI PUSH0 CALLDATALOAD PUSH1 0xE0 SHR DUP1 PUSH4 0x3B92A834 EQ PUSH2 0x4E JUMPI DUP1 PUSH4 0x60CBC755 EQ PUSH2 0x6A JUMPI DUP1 PUSH4 0xCE39721F EQ PUSH2 0x9E JUMPI DUP1 PUSH4 0xE9A31BE1 EQ PUSH2 0xBA JUMPI JUMPDEST PUSH0 DUP1 REVERT JUMPDEST PUSH2 0x68 PUSH1 0x4 DUP1 CALLDATASIZE SUB DUP2 ADD SWAP1 PUSH2 0x63 SWAP2 SWAP1 PUSH2 0x8DF JUMP JUMPDEST PUSH2 0xD6 JUMP JUMPDEST STOP JUMPDEST PUSH2 0x84 PUSH1 0x4 DUP1 CALLDATASIZE SUB DUP2 ADD SWAP1 PUSH2 0x7F SWAP2 SWAP1 PUSH2 0x939 JUMP JUMPDEST PUSH2 0x173 JUMP JUMPDEST PUSH1 0x40 MLOAD PUSH2 0x95 SWAP6 SWAP5 SWAP4 SWAP3 SWAP2 SWAP1 PUSH2 0xA46 JUMP JUMPDEST PUSH1 0x40 MLOAD DUP1 SWAP2 SUB SWAP1 RETURN JUMPDEST PUSH2 0xB8 PUSH1 0x4 DUP1 CALLDATASIZE SUB DUP2 ADD SWAP1 PUSH2 0xB3 SWAP2 SWAP1 PUSH2 0xAF7 JUMP JUMPDEST PUSH2 0x39D JUMP JUMPDEST STOP JUMPDEST PUSH2 0xD4 PUSH1 0x4 DUP1 CALLDATASIZE SUB DUP2 ADD SWAP1 PUSH2 0xCF SWAP2 SWAP1 PUSH2 0xB5B JUMP JUMPDEST PUSH2 0x527 JUMP JUMPDEST STOP JUMPDEST DUP1 PUSH1 0x1 PUSH0 DUP3 PUSH2 0xFFFF AND PUSH2 0xFFFF AND DUP2 MSTORE PUSH1 0x20 ADD SWAP1 DUP2 MSTORE PUSH1 0x20 ADD PUSH0 KECCAK256 PUSH1 0x1 ADD PUSH1 0x7 SWAP1 SLOAD SWAP1 PUSH2 0x100 EXP SWAP1 DIV PUSH1 0xFF AND PUSH2 0x140 JUMPI PUSH1 0x40 MLOAD PUSH32 0x8C379A000000000000000000000000000000000000000000000000000000000 DUP2 MSTORE PUSH1 0x4 ADD PUSH2 0x137 SWAP1 PUSH2 0xC38 JUMP JUMPDEST PUSH1 0x40 MLOAD DUP1 SWAP2 SUB SWAP1 REVERT JUMPDEST PUSH0 PUSH1 0x1 PUSH0 DUP5 PUSH2 0xFFFF AND PUSH2 0xFFFF AND DUP2 MSTORE PUSH1 0x20 ADD SWAP1 DUP2 MSTORE PUSH1 0x20 ADD PUSH0 KECCAK256 SWAP1 POP DUP4 DUP2 PUSH0 ADD SWAP1 DUP2 PUSH2 0x16C SWAP2 SWAP1 PUSH2 0xE59 JUMP JUMPDEST POP POP POP POP POP JUMP JUMPDEST PUSH1 0x60 PUSH0 DUP1 PUSH0 DUP1 PUSH0 DUP1 SLOAD SWAP1 PUSH2 0x100 EXP SWAP1 DIV PUSH20 0xFFFFFFFFFFFFFFFFFFFFFFFFFFFFFFFFFFFFFFFF AND PUSH20 0xFFFFFFFFFFFFFFFFFFFFFFFFFFFFFFFFFFFFFFFF AND CALLER PUSH20 0xFFFFFFFFFFFFFFFFFFFFFFFFFFFFFFFFFFFFFFFF AND EQ PUSH2 0x206 JUMPI PUSH1 0x40 MLOAD PUSH32 0x8C379A000000000000000000000000000000000000000000000000000000000 DUP2 MSTORE PUSH1 0x4 ADD PUSH2 0x1FD SWAP1 PUSH2 0xF72 JUMP JUMPDEST PUSH1 0x40 MLOAD DUP1 SWAP2 SUB SWAP1 REVERT JUMPDEST PUSH0 PUSH1 0x1 PUSH0 DUP9 PUSH2 0xFFFF AND PUSH2 0xFFFF AND DUP2 MSTORE PUSH1 0x20 ADD SWAP1 DUP2 MSTORE PUSH1 0x20 ADD PUSH0 KECCAK256 PUSH1 0x40 MLOAD DUP1 PUSH1 0xC0 ADD PUSH1 0x40 MSTORE SWAP1 DUP2 PUSH0 DUP3 ADD DUP1 SLOAD PUSH2 0x23A SWAP1 PUSH2 0xC83 JUMP JUMPDEST DUP1 PUSH1 0x1F ADD PUSH1 0x20 DUP1 SWAP2 DIV MUL PUSH1 0x20 ADD PUSH1 0x40 MLOAD SWAP1 DUP2 ADD PUSH1 0x40 MSTORE DUP1 SWAP3 SWAP2 SWAP1 DUP2 DUP2 MSTORE PUSH1 0x20 ADD DUP3 DUP1 SLOAD PUSH2 0x266 SWAP1 PUSH2 0xC83 JUMP JUMPDEST DUP1 ISZERO PUSH2 0x2B1 JUMPI DUP1 PUSH1 0x1F LT PUSH2 0x288 JUMPI PUSH2 0x100 DUP1 DUP4 SLOAD DIV MUL DUP4 MSTORE SWAP2 PUSH1 0x20 ADD SWAP2 PUSH2 0x2B1 JUMP JUMPDEST DUP3 ADD SWAP2 SWAP1 PUSH0 MSTORE PUSH1 0x20 PUSH0 KECCAK256 SWAP1 JUMPDEST DUP2 SLOAD DUP2 MSTORE SWAP1 PUSH1 0x1 ADD SWAP1 PUSH1 0x20 ADD DUP1 DUP4 GT PUSH2 0x294 JUMPI DUP3 SWAP1 SUB PUSH1 0x1F AND DUP3 ADD SWAP2 JUMPDEST POP POP POP POP POP DUP2 MSTORE PUSH1 0x20 ADD PUSH1 0x1 DUP3 ADD PUSH0 SWAP1 SLOAD SWAP1 PUSH2 0x100 EXP SWAP1 DIV PUSH2 0xFFFF AND PUSH2 0xFFFF AND PUSH2 0xFFFF AND DUP2 MSTORE PUSH1 0x20 ADD PUSH1 0x1 DUP3 ADD PUSH1 0x2 SWAP1 SLOAD SWAP1 PUSH2 0x100 EXP SWAP1 DIV PUSH1 0xFF AND PUSH1 0x2 DUP2 GT ISZERO PUSH2 0x2FE JUMPI PUSH2 0x2FD PUSH2 0x9D3 JUMP JUMPDEST JUMPDEST PUSH1 0x2 DUP2 GT ISZERO PUSH2 0x310 JUMPI PUSH2 0x30F PUSH2 0x9D3 JUMP JUMPDEST JUMPDEST DUP2 MSTORE PUSH1 0x20 ADD PUSH1 0x1 DUP3 ADD PUSH1 0x3 SWAP1 SLOAD SWAP1 PUSH2 0x100 EXP SWAP1 DIV PUSH2 0xFFFF AND PUSH2 0xFFFF AND PUSH2 0xFFFF AND DUP2 MSTORE PUSH1 0x20 ADD PUSH1 0x1 DUP3 ADD PUSH1 0x5 SWAP1 SLOAD SWAP1 PUSH2 0x100 EXP SWAP1 DIV PUSH2 0xFFFF AND PUSH2 0xFFFF AND PUSH2 0xFFFF AND DUP2 MSTORE PUSH1 0x20 ADD PUSH1 0x1 DUP3 ADD PUSH1 0x7 SWAP1 SLOAD SWAP1 PUSH2 0x100 EXP SWAP1 DIV PUSH1 0xFF AND ISZERO ISZERO ISZERO ISZERO DUP2 MSTORE POP POP SWAP1 POP DUP1 PUSH0 ADD MLOAD DUP2 PUSH1 0x20 ADD MLOAD DUP3 PUSH1 0x40 ADD MLOAD DUP4 PUSH1 0x60 ADD MLOAD DUP5 PUSH1 0x80 ADD MLOAD SWAP6 POP SWAP6 POP SWAP6 POP SWAP6 POP SWAP6 POP POP SWAP2 SWAP4 SWAP6 SWAP1 SWAP3 SWAP5 POP JUMP JUMPDEST PUSH0 DUP1 SLOAD SWAP1 PUSH2 0x100 EXP SWAP1 DIV PUSH20 0xFFFFFFFFFFFFFFFFFFFFFFFFFFFFFFFFFFFFFFFF AND PUSH20 0xFFFFFFFFFFFFFFFFFFFFFFFFFFFFFFFFFFFFFFFF AND CALLER PUSH20 0xFFFFFFFFFFFFFFFFFFFFFFFFFFFFFFFFFFFFFFFF AND EQ PUSH2 0x42A JUMPI PUSH1 0x40 MLOAD PUSH32 0x8C379A000000000000000000000000000000000000000000000000000000000 DUP2 MSTORE PUSH1 0x4 ADD PUSH2 0x421 SWAP1 PUSH2 0xF72 JUMP JUMPDEST PUSH1 0x40 MLOAD DUP1 SWAP2 SUB SWAP1 REVERT JUMPDEST DUP1 PUSH1 0x1 PUSH0 DUP3 PUSH2 0xFFFF AND PUSH2 0xFFFF AND DUP2 MSTORE PUSH1 0x20 ADD SWAP1 DUP2 MSTORE PUSH1 0x20 ADD PUSH0 KECCAK256 PUSH1 0x1 ADD PUSH1 0x7 SWAP1 SLOAD SWAP1 PUSH2 0x100 EXP SWAP1 DIV PUSH1 0xFF AND PUSH2 0x494 JUMPI PUSH1 0x40 MLOAD PUSH32 0x8C379A000000000000000000000000000000000000000000000000000000000 DUP2 MSTORE PUSH1 0x4 ADD PUSH2 0x48B SWAP1 PUSH2 0xC38 JUMP JUMPDEST PUSH1 0x40 MLOAD DUP1 SWAP2 SUB SWAP1 REVERT JUMPDEST PUSH0 PUSH1 0x1 PUSH0 DUP5 PUSH2 0xFFFF AND PUSH2 0xFFFF AND DUP2 MSTORE PUSH1 0x20 ADD SWAP1 DUP2 MSTORE PUSH1 0x20 ADD PUSH0 KECCAK256 SWAP1 POP DUP6 PUSH1 0xFF AND DUP2 PUSH1 0x1 ADD PUSH0 PUSH2 0x100 EXP DUP2 SLOAD DUP2 PUSH2 0xFFFF MUL NOT AND SWAP1 DUP4 PUSH2 0xFFFF AND MUL OR SWAP1 SSTORE POP DUP5 DUP2 PUSH1 0x1 ADD PUSH1 0x2 PUSH2 0x100 EXP DUP2 SLOAD DUP2 PUSH1 0xFF MUL NOT AND SWAP1 DUP4 PUSH1 0x2 DUP2 GT ISZERO PUSH2 0x4F8 JUMPI PUSH2 0x4F7 PUSH2 0x9D3 JUMP JUMPDEST JUMPDEST MUL OR SWAP1 SSTORE POP DUP4 PUSH1 0xFF AND DUP2 PUSH1 0x1 ADD PUSH1 0x3 PUSH2 0x100 EXP DUP2 SLOAD DUP2 PUSH2 0xFFFF MUL NOT AND SWAP1 DUP4 PUSH2 0xFFFF AND MUL OR SWAP1 SSTORE POP POP POP POP POP POP POP JUMP JUMPDEST PUSH0 DUP1 SLOAD SWAP1 PUSH2 0x100 EXP SWAP1 DIV PUSH20 0xFFFFFFFFFFFFFFFFFFFFFFFFFFFFFFFFFFFFFFFF AND PUSH20 0xFFFFFFFFFFFFFFFFFFFFFFFFFFFFFFFFFFFFFFFF AND CALLER PUSH20 0xFFFFFFFFFFFFFFFFFFFFFFFFFFFFFFFFFFFFFFFF AND EQ PUSH2 0x5B4 JUMPI PUSH1 0x40 MLOAD PUSH32 0x8C379A000000000000000000000000000000000000000000000000000000000 DUP2 MSTORE PUSH1 0x4 ADD PUSH2 0x5AB SWAP1 PUSH2 0xF72 JUMP JUMPDEST PUSH1 0x40 MLOAD DUP1 SWAP2 SUB SWAP1 REVERT JUMPDEST PUSH1 0x1 PUSH0 DUP3 PUSH2 0xFFFF AND PUSH2 0xFFFF AND DUP2 MSTORE PUSH1 0x20 ADD SWAP1 DUP2 MSTORE PUSH1 0x20 ADD PUSH0 KECCAK256 PUSH1 0x1 ADD PUSH1 0x7 SWAP1 SLOAD SWAP1 PUSH2 0x100 EXP SWAP1 DIV PUSH1 0xFF AND ISZERO PUSH2 0x61E JUMPI PUSH1 0x40 MLOAD PUSH32 0x8C379A000000000000000000000000000000000000000000000000000000000 DUP2 MSTORE PUSH1 0x4 ADD PUSH2 0x615 SWAP1 PUSH2 0xFDA JUMP JUMPDEST PUSH1 0x40 MLOAD DUP1 SWAP2 SUB SWAP1 REVERT JUMPDEST PUSH1 0x40 MLOAD DUP1 PUSH1 0xC0 ADD PUSH1 0x40 MSTORE DUP1 DUP7 DUP2 MSTORE PUSH1 0x20 ADD DUP6 PUSH2 0xFFFF AND DUP2 MSTORE PUSH1 0x20 ADD DUP5 PUSH1 0x2 DUP2 GT ISZERO PUSH2 0x64C JUMPI PUSH2 0x64B PUSH2 0x9D3 JUMP JUMPDEST JUMPDEST DUP2 MSTORE PUSH1 0x20 ADD DUP4 PUSH2 0xFFFF AND DUP2 MSTORE PUSH1 0x20 ADD DUP3 PUSH2 0xFFFF AND DUP2 MSTORE PUSH1 0x20 ADD PUSH1 0x1 ISZERO ISZERO DUP2 MSTORE POP PUSH1 0x1 PUSH0 DUP4 PUSH2 0xFFFF AND PUSH2 0xFFFF AND DUP2 MSTORE PUSH1 0x20 ADD SWAP1 DUP2 MSTORE PUSH1 0x20 ADD PUSH0 KECCAK256 PUSH0 DUP3 ADD MLOAD DUP2 PUSH0 ADD SWAP1 DUP2 PUSH2 0x698 SWAP2 SWAP1 PUSH2 0xE59 JUMP JUMPDEST POP PUSH1 0x20 DUP3 ADD MLOAD DUP2 PUSH1 0x1 ADD PUSH0 PUSH2 0x100 EXP DUP2 SLOAD DUP2 PUSH2 0xFFFF MUL NOT AND SWAP1 DUP4 PUSH2 0xFFFF AND MUL OR SWAP1 SSTORE POP PUSH1 0x40 DUP3 ADD MLOAD DUP2 PUSH1 0x1 ADD PUSH1 0x2 PUSH2 0x100 EXP DUP2 SLOAD DUP2 PUSH1 0xFF MUL NOT AND SWAP1 DUP4 PUSH1 0x2 DUP2 GT ISZERO PUSH2 0x6E6 JUMPI PUSH2 0x6E5 PUSH2 0x9D3 JUMP JUMPDEST JUMPDEST MUL OR SWAP1 SSTORE POP PUSH1 0x60 DUP3 ADD MLOAD DUP2 PUSH1 0x1 ADD PUSH1 0x3 PUSH2 0x100 EXP DUP2 SLOAD DUP2 PUSH2 0xFFFF MUL NOT AND SWAP1 DUP4 PUSH2 0xFFFF AND MUL OR SWAP1 SSTORE POP PUSH1 0x80 DUP3 ADD MLOAD DUP2 PUSH1 0x1 ADD PUSH1 0x5 PUSH2 0x100 EXP DUP2 SLOAD DUP2 PUSH2 0xFFFF MUL NOT AND SWAP1 DUP4 PUSH2 0xFFFF AND MUL OR SWAP1 SSTORE POP PUSH1 0xA0 DUP3 ADD MLOAD DUP2 PUSH1 0x1 ADD PUSH1 0x7 PUSH2 0x100 EXP DUP2 SLOAD DUP2 PUSH1 0xFF MUL NOT AND SWAP1 DUP4 ISZERO ISZERO MUL OR SWAP1 SSTORE POP SWAP1 POP POP POP POP POP POP POP JUMP JUMPDEST PUSH0 PUSH1 0x40 MLOAD SWAP1 POP SWAP1 JUMP JUMPDEST PUSH0 DUP1 REVERT JUMPDEST PUSH0 DUP1 REVERT JUMPDEST PUSH0 DUP1 REVERT JUMPDEST PUSH0 DUP1 REVERT JUMPDEST PUSH0 PUSH1 0x1F NOT PUSH1 0x1F DUP4 ADD AND SWAP1 POP SWAP2 SWAP1 POP JUMP JUMPDEST PUSH32 0x4E487B7100000000000000000000000000000000000000000000000000000000 PUSH0 MSTORE PUSH1 0x41 PUSH1 0x4 MSTORE PUSH1 0x24 PUSH0 REVERT JUMPDEST PUSH2 0x7BA DUP3 PUSH2 0x774 JUMP JUMPDEST DUP2 ADD DUP2 DUP2 LT PUSH8 0xFFFFFFFFFFFFFFFF DUP3 GT OR ISZERO PUSH2 0x7D9 JUMPI PUSH2 0x7D8 PUSH2 0x784 JUMP JUMPDEST JUMPDEST DUP1 PUSH1 0x40 MSTORE POP POP POP JUMP JUMPDEST PUSH0 PUSH2 0x7EB PUSH2 0x75B JUMP JUMPDEST SWAP1 POP PUSH2 0x7F7 DUP3 DUP3 PUSH2 0x7B1 JUMP JUMPDEST SWAP2 SWAP1 POP JUMP JUMPDEST PUSH0 PUSH8 0xFFFFFFFFFFFFFFFF DUP3 GT ISZERO PUSH2 0x816 JUMPI PUSH2 0x815 PUSH2 0x784 JUMP JUMPDEST JUMPDEST PUSH2 0x81F DUP3 PUSH2 0x774 JUMP JUMPDEST SWAP1 POP PUSH1 0x20 DUP2 ADD SWAP1 POP SWAP2 SWAP1 POP JUMP JUMPDEST DUP3 DUP2 DUP4 CALLDATACOPY PUSH0 DUP4 DUP4 ADD MSTORE POP POP POP JUMP JUMPDEST PUSH0 PUSH2 0x84C PUSH2 0x847 DUP5 PUSH2 0x7FC JUMP JUMPDEST PUSH2 0x7E2 JUMP JUMPDEST SWAP1 POP DUP3 DUP2 MSTORE PUSH1 0x20 DUP2 ADD DUP5 DUP5 DUP5 ADD GT ISZERO PUSH2 0x868 JUMPI PUSH2 0x867 PUSH2 0x770 JUMP JUMPDEST JUMPDEST PUSH2 0x873 DUP5 DUP3 DUP6 PUSH2 0x82C JUMP JUMPDEST POP SWAP4 SWAP3 POP POP POP JUMP JUMPDEST PUSH0 DUP3 PUSH1 0x1F DUP4 ADD SLT PUSH2 0x88F JUMPI PUSH2 0x88E PUSH2 0x76C JUMP JUMPDEST JUMPDEST DUP2 CALLDATALOAD PUSH2 0x89F DUP5 DUP3 PUSH1 0x20 DUP7 ADD PUSH2 0x83A JUMP JUMPDEST SWAP2 POP POP SWAP3 SWAP2 POP POP JUMP JUMPDEST PUSH0 PUSH2 0xFFFF DUP3 AND SWAP1 POP SWAP2 SWAP1 POP JUMP JUMPDEST PUSH2 0x8BE DUP2 PUSH2 0x8A8 JUMP JUMPDEST DUP2 EQ PUSH2 0x8C8 JUMPI PUSH0 DUP1 REVERT JUMPDEST POP JUMP JUMPDEST PUSH0 DUP2 CALLDATALOAD SWAP1 POP PUSH2 0x8D9 DUP2 PUSH2 0x8B5 JUMP JUMPDEST SWAP3 SWAP2 POP POP JUMP JUMPDEST PUSH0 DUP1 PUSH1 0x40 DUP4 DUP6 SUB SLT ISZERO PUSH2 0x8F5 JUMPI PUSH2 0x8F4 PUSH2 0x764 JUMP JUMPDEST JUMPDEST PUSH0 DUP4 ADD CALLDATALOAD PUSH8 0xFFFFFFFFFFFFFFFF DUP2 GT ISZERO PUSH2 0x912 JUMPI PUSH2 0x911 PUSH2 0x768 JUMP JUMPDEST JUMPDEST PUSH2 0x91E DUP6 DUP3 DUP7 ADD PUSH2 0x87B JUMP JUMPDEST SWAP3 POP POP PUSH1 0x20 PUSH2 0x92F DUP6 DUP3 DUP7 ADD PUSH2 0x8CB JUMP JUMPDEST SWAP2 POP POP SWAP3 POP SWAP3 SWAP1 POP JUMP JUMPDEST PUSH0 PUSH1 0x20 DUP3 DUP5 SUB SLT ISZERO PUSH2 0x94E JUMPI PUSH2 0x94D PUSH2 0x764 JUMP JUMPDEST JUMPDEST PUSH0 PUSH2 0x95B DUP5 DUP3 DUP6 ADD PUSH2 0x8CB JUMP JUMPDEST SWAP2 POP POP SWAP3 SWAP2 POP POP JUMP JUMPDEST PUSH0 DUP2 MLOAD SWAP1 POP SWAP2 SWAP1 POP JUMP JUMPDEST PUSH0 DUP3 DUP3 MSTORE PUSH1 0x20 DUP3 ADD SWAP1 POP SWAP3 SWAP2 POP POP JUMP JUMPDEST DUP3 DUP2 DUP4 MCOPY PUSH0 DUP4 DUP4 ADD MSTORE POP POP POP JUMP JUMPDEST PUSH0 PUSH2 0x996 DUP3 PUSH2 0x964 JUMP JUMPDEST PUSH2 0x9A0 DUP2 DUP6 PUSH2 0x96E JUMP JUMPDEST SWAP4 POP PUSH2 0x9B0 DUP2 DUP6 PUSH1 0x20 DUP7 ADD PUSH2 0x97E JUMP JUMPDEST PUSH2 0x9B9 DUP2 PUSH2 0x774 JUMP JUMPDEST DUP5 ADD SWAP2 POP POP SWAP3 SWAP2 POP POP JUMP JUMPDEST PUSH2 0x9CD DUP2 PUSH2 0x8A8 JUMP JUMPDEST DUP3 MSTORE POP POP JUMP JUMPDEST PUSH32 0x4E487B7100000000000000000000000000000000000000000000000000000000 PUSH0 MSTORE PUSH1 0x21 PUSH1 0x4 MSTORE PUSH1 0x24 PUSH0 REVERT JUMPDEST PUSH1 0x3 DUP2 LT PUSH2 0xA11 JUMPI PUSH2 0xA10 PUSH2 0x9D3 JUMP JUMPDEST JUMPDEST POP JUMP JUMPDEST PUSH0 DUP2 SWAP1 POP PUSH2 0xA21 DUP3 PUSH2 0xA00 JUMP JUMPDEST SWAP2 SWAP1 POP JUMP JUMPDEST PUSH0 PUSH2 0xA30 DUP3 PUSH2 0xA14 JUMP JUMPDEST SWAP1 POP SWAP2 SWAP1 POP JUMP JUMPDEST PUSH2 0xA40 DUP2 PUSH2 0xA26 JUMP JUMPDEST DUP3 MSTORE POP POP JUMP JUMPDEST PUSH0 PUSH1 0xA0 DUP3 ADD SWAP1 POP DUP2 DUP2 SUB PUSH0 DUP4 ADD MSTORE PUSH2 0xA5E DUP2 DUP9 PUSH2 0x98C JUMP JUMPDEST SWAP1 POP PUSH2 0xA6D PUSH1 0x20 DUP4 ADD DUP8 PUSH2 0x9C4 JUMP JUMPDEST PUSH2 0xA7A PUSH1 0x40 DUP4 ADD DUP7 PUSH2 0xA37 JUMP JUMPDEST PUSH2 0xA87 PUSH1 0x60 DUP4 ADD DUP6 PUSH2 0x9C4 JUMP JUMPDEST PUSH2 0xA94 PUSH1 0x80 DUP4 ADD DUP5 PUSH2 0x9C4 JUMP JUMPDEST SWAP7 SWAP6 POP POP POP POP POP POP JUMP JUMPDEST PUSH0 PUSH1 0xFF DUP3 AND SWAP1 POP SWAP2 SWAP1 POP JUMP JUMPDEST PUSH2 0xAB3 DUP2 PUSH2 0xA9E JUMP JUMPDEST DUP2 EQ PUSH2 0xABD JUMPI PUSH0 DUP1 REVERT JUMPDEST POP JUMP JUMPDEST PUSH0 DUP2 CALLDATALOAD SWAP1 POP PUSH2 0xACE DUP2 PUSH2 0xAAA JUMP JUMPDEST SWAP3 SWAP2 POP POP JUMP JUMPDEST PUSH1 0x3 DUP2 LT PUSH2 0xAE0 JUMPI PUSH0 DUP1 REVERT JUMPDEST POP JUMP JUMPDEST PUSH0 DUP2 CALLDATALOAD SWAP1 POP PUSH2 0xAF1 DUP2 PUSH2 0xAD4 JUMP JUMPDEST SWAP3 SWAP2 POP POP JUMP JUMPDEST PUSH0 DUP1 PUSH0 DUP1 PUSH1 0x80 DUP6 DUP8 SUB SLT ISZERO PUSH2 0xB0F JUMPI PUSH2 0xB0E PUSH2 0x764 JUMP JUMPDEST JUMPDEST PUSH0 PUSH2 0xB1C DUP8 DUP3 DUP9 ADD PUSH2 0xAC0 JUMP JUMPDEST SWAP5 POP POP PUSH1 0x20 PUSH2 0xB2D DUP8 DUP3 DUP9 ADD PUSH2 0xAE3 JUMP JUMPDEST SWAP4 POP POP PUSH1 0x40 PUSH2 0xB3E DUP8 DUP3 DUP9 ADD PUSH2 0xAC0 JUMP JUMPDEST SWAP3 POP POP PUSH1 0x60 PUSH2 0xB4F DUP8 DUP3 DUP9 ADD PUSH2 0x8CB JUMP JUMPDEST SWAP2 POP POP SWAP3 SWAP6 SWAP2 SWAP5 POP SWAP3 POP JUMP JUMPDEST PUSH0 DUP1 PUSH0 DUP1 PUSH0 PUSH1 0xA0 DUP7 DUP9 SUB SLT ISZERO PUSH2 0xB74 JUMPI PUSH2 0xB73 PUSH2 0x764 JUMP JUMPDEST JUMPDEST PUSH0 DUP7 ADD CALLDATALOAD PUSH8 0xFFFFFFFFFFFFFFFF DUP2 GT ISZERO PUSH2 0xB91 JUMPI PUSH2 0xB90 PUSH2 0x768 JUMP JUMPDEST JUMPDEST PUSH2 0xB9D DUP9 DUP3 DUP10 ADD PUSH2 0x87B JUMP JUMPDEST SWAP6 POP POP PUSH1 0x20 PUSH2 0xBAE DUP9 DUP3 DUP10 ADD PUSH2 0x8CB JUMP JUMPDEST SWAP5 POP POP PUSH1 0x40 PUSH2 0xBBF DUP9 DUP3 DUP10 ADD PUSH2 0xAE3 JUMP JUMPDEST SWAP4 POP POP PUSH1 0x60 PUSH2 0xBD0 DUP9 DUP3 DUP10 ADD PUSH2 0x8CB JUMP JUMPDEST SWAP3 POP POP PUSH1 0x80 PUSH2 0xBE1 DUP9 DUP3 DUP10 ADD PUSH2 0x8CB JUMP JUMPDEST SWAP2 POP POP SWAP3 SWAP6 POP SWAP3 SWAP6 SWAP1 SWAP4 POP JUMP JUMPDEST PUSH32 0x526F6C6C6E6F20646F6573206E6F742045786973740000000000000000000000 PUSH0 DUP3 ADD MSTORE POP JUMP JUMPDEST PUSH0 PUSH2 0xC22 PUSH1 0x15 DUP4 PUSH2 0x96E JUMP JUMPDEST SWAP2 POP PUSH2 0xC2D DUP3 PUSH2 0xBEE JUMP JUMPDEST PUSH1 0x20 DUP3 ADD SWAP1 POP SWAP2 SWAP1 POP JUMP JUMPDEST PUSH0 PUSH1 0x20 DUP3 ADD SWAP1 POP DUP2 DUP2 SUB PUSH0 DUP4 ADD MSTORE PUSH2 0xC4F DUP2 PUSH2 0xC16 JUMP JUMPDEST SWAP1 POP SWAP2 SWAP1 POP JUMP JUMPDEST PUSH32 0x4E487B7100000000000000000000000000000000000000000000000000000000 PUSH0 MSTORE PUSH1 0x22 PUSH1 0x4 MSTORE PUSH1 0x24 PUSH0 REVERT JUMPDEST PUSH0 PUSH1 0x2 DUP3 DIV SWAP1 POP PUSH1 0x1 DUP3 AND DUP1 PUSH2 0xC9A JUMPI PUSH1 0x7F DUP3 AND SWAP2 POP JUMPDEST PUSH1 0x20 DUP3 LT DUP2 SUB PUSH2 0xCAD JUMPI PUSH2 0xCAC PUSH2 0xC56 JUMP JUMPDEST JUMPDEST POP SWAP2 SWAP1 POP JUMP JUMPDEST PUSH0 DUP2 SWAP1 POP DUP2 PUSH0 MSTORE PUSH1 0x20 PUSH0 KECCAK256 SWAP1 POP SWAP2 SWAP1 POP JUMP JUMPDEST PUSH0 PUSH1 0x20 PUSH1 0x1F DUP4 ADD DIV SWAP1 POP SWAP2 SWAP1 POP JUMP JUMPDEST PUSH0 DUP3 DUP3 SHL SWAP1 POP SWAP3 SWAP2 POP POP JUMP JUMPDEST PUSH0 PUSH1 0x8 DUP4 MUL PUSH2 0xD0F PUSH32 0xFFFFFFFFFFFFFFFFFFFFFFFFFFFFFFFFFFFFFFFFFFFFFFFFFFFFFFFFFFFFFFFF DUP3 PUSH2 0xCD4 JUMP JUMPDEST PUSH2 0xD19 DUP7 DUP4 PUSH2 0xCD4 JUMP JUMPDEST SWAP6 POP DUP1 NOT DUP5 AND SWAP4 POP DUP1 DUP7 AND DUP5 OR SWAP3 POP POP POP SWAP4 SWAP3 POP POP POP JUMP JUMPDEST PUSH0 DUP2 SWAP1 POP SWAP2 SWAP1 POP JUMP JUMPDEST PUSH0 DUP2 SWAP1 POP SWAP2 SWAP1 POP JUMP JUMPDEST PUSH0 PUSH2 0xD5D PUSH2 0xD58 PUSH2 0xD53 DUP5 PUSH2 0xD31 JUMP JUMPDEST PUSH2 0xD3A JUMP JUMPDEST PUSH2 0xD31 JUMP JUMPDEST SWAP1 POP SWAP2 SWAP1 POP JUMP JUMPDEST PUSH0 DUP2 SWAP1 POP SWAP2 SWAP1 POP JUMP JUMPDEST PUSH2 0xD76 DUP4 PUSH2 0xD43 JUMP JUMPDEST PUSH2 0xD8A PUSH2 0xD82 DUP3 PUSH2 0xD64 JUMP JUMPDEST DUP5 DUP5 SLOAD PUSH2 0xCE0 JUMP JUMPDEST DUP3 SSTORE POP POP POP POP JUMP JUMPDEST PUSH0 SWAP1 JUMP JUMPDEST PUSH2 0xD9E PUSH2 0xD92 JUMP JUMPDEST PUSH2 0xDA9 DUP2 DUP5 DUP5 PUSH2 0xD6D JUMP JUMPDEST POP POP POP JUMP JUMPDEST JUMPDEST DUP2 DUP2 LT ISZERO PUSH2 0xDCC JUMPI PUSH2 0xDC1 PUSH0 DUP3 PUSH2 0xD96 JUMP JUMPDEST PUSH1 0x1 DUP2 ADD SWAP1 POP PUSH2 0xDAF JUMP JUMPDEST POP POP JUMP JUMPDEST PUSH1 0x1F DUP3 GT ISZERO PUSH2 0xE11 JUMPI PUSH2 0xDE2 DUP2 PUSH2 0xCB3 JUMP JUMPDEST PUSH2 0xDEB DUP5 PUSH2 0xCC5 JUMP JUMPDEST DUP2 ADD PUSH1 0x20 DUP6 LT ISZERO PUSH2 0xDFA JUMPI DUP2 SWAP1 POP JUMPDEST PUSH2 0xE0E PUSH2 0xE06 DUP6 PUSH2 0xCC5 JUMP JUMPDEST DUP4 ADD DUP3 PUSH2 0xDAE JUMP JUMPDEST POP POP JUMPDEST POP POP POP JUMP JUMPDEST PUSH0 DUP3 DUP3 SHR SWAP1 POP SWAP3 SWAP2 POP POP JUMP JUMPDEST PUSH0 PUSH2 0xE31 PUSH0 NOT DUP5 PUSH1 0x8 MUL PUSH2 0xE16 JUMP JUMPDEST NOT DUP1 DUP4 AND SWAP2 POP POP SWAP3 SWAP2 POP POP JUMP JUMPDEST PUSH0 PUSH2 0xE49 DUP4 DUP4 PUSH2 0xE22 JUMP JUMPDEST SWAP2 POP DUP3 PUSH1 0x2 MUL DUP3 OR SWAP1 POP SWAP3 SWAP2 POP POP JUMP JUMPDEST PUSH2 0xE62 DUP3 PUSH2 0x964 JUMP JUMPDEST PUSH8 0xFFFFFFFFFFFFFFFF DUP2 GT ISZERO PUSH2 0xE7B JUMPI PUSH2 0xE7A PUSH2 0x784 JUMP JUMPDEST JUMPDEST PUSH2 0xE85 DUP3 SLOAD PUSH2 0xC83 JUMP JUMPDEST PUSH2 0xE90 DUP3 DUP3 DUP6 PUSH2 0xDD0 JUMP JUMPDEST PUSH0 PUSH1 0x20 SWAP1 POP PUSH1 0x1F DUP4 GT PUSH1 0x1 DUP2 EQ PUSH2 0xEC1 JUMPI PUSH0 DUP5 ISZERO PUSH2 0xEAF JUMPI DUP3 DUP8 ADD MLOAD SWAP1 POP JUMPDEST PUSH2 0xEB9 DUP6 DUP3 PUSH2 0xE3E JUMP JUMPDEST DUP7 SSTORE POP PUSH2 0xF20 JUMP JUMPDEST PUSH1 0x1F NOT DUP5 AND PUSH2 0xECF DUP7 PUSH2 0xCB3 JUMP JUMPDEST PUSH0 JUMPDEST DUP3 DUP2 LT ISZERO PUSH2 0xEF6 JUMPI DUP5 DUP10 ADD MLOAD DUP3 SSTORE PUSH1 0x1 DUP3 ADD SWAP2 POP PUSH1 0x20 DUP6 ADD SWAP5 POP PUSH1 0x20 DUP2 ADD SWAP1 POP PUSH2 0xED1 JUMP JUMPDEST DUP7 DUP4 LT ISZERO PUSH2 0xF13 JUMPI DUP5 DUP10 ADD MLOAD PUSH2 0xF0F PUSH1 0x1F DUP10 AND DUP3 PUSH2 0xE22 JUMP JUMPDEST DUP4 SSTORE POP JUMPDEST PUSH1 0x1 PUSH1 0x2 DUP9 MUL ADD DUP9 SSTORE POP POP POP JUMPDEST POP POP POP POP POP POP JUMP JUMPDEST PUSH32 0x596F752063616E6E6F7420616363657373207468697320000000000000000000 PUSH0 DUP3 ADD MSTORE POP JUMP JUMPDEST PUSH0 PUSH2 0xF5C PUSH1 0x17 DUP4 PUSH2 0x96E JUMP JUMPDEST SWAP2 POP PUSH2 0xF67 DUP3 PUSH2 0xF28 JUMP JUMPDEST PUSH1 0x20 DUP3 ADD SWAP1 POP SWAP2 SWAP1 POP JUMP JUMPDEST PUSH0 PUSH1 0x20 DUP3 ADD SWAP1 POP DUP2 DUP2 SUB PUSH0 DUP4 ADD MSTORE PUSH2 0xF89 DUP2 PUSH2 0xF50 JUMP JUMPDEST SWAP1 POP SWAP2 SWAP1 POP JUMP JUMPDEST PUSH32 0x526F6C6C6E6F20697320616C7265616479204578697374730000000000000000 PUSH0 DUP3 ADD MSTORE POP JUMP JUMPDEST PUSH0 PUSH2 0xFC4 PUSH1 0x18 DUP4 PUSH2 0x96E JUMP JUMPDEST SWAP2 POP PUSH2 0xFCF DUP3 PUSH2 0xF90 JUMP JUMPDEST PUSH1 0x20 DUP3 ADD SWAP1 POP SWAP2 SWAP1 POP JUMP JUMPDEST PUSH0 PUSH1 0x20 DUP3 ADD SWAP1 POP DUP2 DUP2 SUB PUSH0 DUP4 ADD MSTORE PUSH2 0xFF1 DUP2 PUSH2 0xFB8 JUMP JUMPDEST SWAP1 POP SWAP2 SWAP1 POP JUMP INVALID LOG2 PUSH5 0x6970667358 0x22 SLT KECCAK256 SMOD 0xBE LT SELFBALANCE DUP11 LOG4 PUSH1 0x34 XOR PUSH7 0x3C07FB2C060A70 EXTCODESIZE 0x22 0xB4 0xB0 CHAINID 0x4C CALL 0xCA 0xAD 0xAA MULMOD 0xDF KECCAK256 0xB8 0xE9 PUSH5 0x736F6C6343 STOP ADDMOD BYTE STOP CALLER "
				},
				"gasEstimates": {
					"creation": {
						"codeDepositCost": "828400",
						"executionCost": "25127",
						"totalCost": "853527"
					},
					"external": {
						"addstudent(string,uint16,uint8,uint16,uint16)": "infinite",
						"editData(uint8,uint8,uint8,uint16)": "infinite",
						"editName(string,uint16)": "infinite",
						"getstudent(uint16)": "infinite"
					}
				},
				"methodIdentifiers": {
					"addstudent(string,uint16,uint8,uint16,uint16)": "e9a31be1",
					"editData(uint8,uint8,uint8,uint16)": "ce39721f",
					"editName(string,uint16)": "3b92a834",
					"getstudent(uint16)": "60cbc755"
				}
			},
			"storageLayout": {
				"storage": [
					{
						"astId": 21,
						"contract": "Activity/SmartContract2/SMS.sol:SMS",
						"label": "staffadvisor",
						"offset": 0,
						"slot": "0",
						"type": "t_address"
					},
					{
						"astId": 26,
						"contract": "Activity/SmartContract2/SMS.sol:SMS",
						"label": "Studentrecords",
						"offset": 0,
						"slot": "1",
						"type": "t_mapping(t_uint16,t_struct(Student)15_storage)"
					}
				],
				"types": {
					"t_address": {
						"encoding": "inplace",
						"label": "address",
						"numberOfBytes": "20"
					},
					"t_bool": {
						"encoding": "inplace",
						"label": "bool",
						"numberOfBytes": "1"
					},
					"t_enum(department)19": {
						"encoding": "inplace",
						"label": "enum SMS.department",
						"numberOfBytes": "1"
					},
					"t_mapping(t_uint16,t_struct(Student)15_storage)": {
						"encoding": "mapping",
						"key": "t_uint16",
						"label": "mapping(uint16 => struct SMS.Student)",
						"numberOfBytes": "32",
						"value": "t_struct(Student)15_storage"
					},
					"t_string_storage": {
						"encoding": "bytes",
						"label": "string",
						"numberOfBytes": "32"
					},
					"t_struct(Student)15_storage": {
						"encoding": "inplace",
						"label": "struct SMS.Student",
						"members": [
							{
								"astId": 3,
								"contract": "Activity/SmartContract2/SMS.sol:SMS",
								"label": "Name",
								"offset": 0,
								"slot": "0",
								"type": "t_string_storage"
							},
							{
								"astId": 5,
								"contract": "Activity/SmartContract2/SMS.sol:SMS",
								"label": "SemNo",
								"offset": 0,
								"slot": "1",
								"type": "t_uint16"
							},
							{
								"astId": 8,
								"contract": "Activity/SmartContract2/SMS.sol:SMS",
								"label": "dept",
								"offset": 2,
								"slot": "1",
								"type": "t_enum(department)19"
							},
							{
								"astId": 10,
								"contract": "Activity/SmartContract2/SMS.sol:SMS",
								"label": "CGPA",
								"offset": 3,
								"slot": "1",
								"type": "t_uint16"
							},
							{
								"astId": 12,
								"contract": "Activity/SmartContract2/SMS.sol:SMS",
								"label": "Rollno",
								"offset": 5,
								"slot": "1",
								"type": "t_uint16"
							},
							{
								"astId": 14,
								"contract": "Activity/SmartContract2/SMS.sol:SMS",
								"label": "Exist",
								"offset": 7,
								"slot": "1",
								"type": "t_bool"
							}
						],
						"numberOfBytes": "64"
					},
					"t_uint16": {
						"encoding": "inplace",
						"label": "uint16",
						"numberOfBytes": "2"
					}
				}
			},
			"userdoc": {
				"kind": "user",
				"methods": {},
				"version": 1
			}
		}
	}
}