{
	"Activity/SmartContract 1/question1.sol": {
		"MathFunctions": {
			"abi": [
				{
					"inputs": [],
					"name": "checksign",
					"outputs": [
						{
							"internalType": "string",
							"name": "",
							"type": "string"
						}
					],
					"stateMutability": "view",
					"type": "function"
				},
				{
					"inputs": [],
					"name": "largest",
					"outputs": [
						{
							"internalType": "uint16",
							"name": "",
							"type": "uint16"
						}
					],
					"stateMutability": "view",
					"type": "function"
				},
				{
					"inputs": [
						{
							"internalType": "int256",
							"name": "_Number",
							"type": "int256"
						}
					],
					"name": "setNumber",
					"outputs": [],
					"stateMutability": "nonpayable",
					"type": "function"
				},
				{
					"inputs": [
						{
							"internalType": "uint16",
							"name": "num",
							"type": "uint16"
						}
					],
					"name": "setNumberToWsrds",
					"outputs": [],
					"stateMutability": "nonpayable",
					"type": "function"
				},
				{
					"inputs": [
						{
							"internalType": "uint16",
							"name": "Number1",
							"type": "uint16"
						},
						{
							"internalType": "uint16",
							"name": "Number2",
							"type": "uint16"
						},
						{
							"internalType": "uint16",
							"name": "Number3",
							"type": "uint16"
						}
					],
					"name": "setNumbers",
					"outputs": [],
					"stateMutability": "nonpayable",
					"type": "function"
				},
				{
					"inputs": [],
					"name": "words",
					"outputs": [
						{
							"internalType": "string",
							"name": "",
							"type": "string"
						}
					],
					"stateMutability": "view",
					"type": "function"
				}
			],
			"devdoc": {
				"kind": "dev",
				"methods": {},
				"version": 1
			},
			"evm": {
				"assembly": "    /* \"Activity/SmartContract 1/question1.sol\":57:1598  contract MathFunctions {... */\n  mstore(0x40, 0x80)\n  callvalue\n  dup1\n  iszero\n  tag_1\n  jumpi\n  0x00\n  dup1\n  revert\ntag_1:\n  pop\n  dataSize(sub_0)\n  dup1\n  dataOffset(sub_0)\n  0x00\n  codecopy\n  0x00\n  return\nstop\n\nsub_0: assembly {\n        /* \"Activity/SmartContract 1/question1.sol\":57:1598  contract MathFunctions {... */\n      mstore(0x40, 0x80)\n      callvalue\n      dup1\n      iszero\n      tag_1\n      jumpi\n      0x00\n      dup1\n      revert\n    tag_1:\n      pop\n      jumpi(tag_2, lt(calldatasize, 0x04))\n      shr(0xe0, calldataload(0x00))\n      dup1\n      0x56e0219d\n      eq\n      tag_3\n      jumpi\n      dup1\n      0x80bc64fc\n      eq\n      tag_4\n      jumpi\n      dup1\n      0x99e47c5e\n      eq\n      tag_5\n      jumpi\n      dup1\n      0x9cf27f37\n      eq\n      tag_6\n      jumpi\n      dup1\n      0xd73e4276\n      eq\n      tag_7\n      jumpi\n      dup1\n      0xf2c31bd9\n      eq\n      tag_8\n      jumpi\n    tag_2:\n      0x00\n      dup1\n      revert\n        /* \"Activity/SmartContract 1/question1.sol\":977:1048  function setNumberToWsrds(uint16 num)public {... */\n    tag_3:\n      tag_9\n      0x04\n      dup1\n      calldatasize\n      sub\n      dup2\n      add\n      swap1\n      tag_10\n      swap2\n      swap1\n      tag_11\n      jump\t// in\n    tag_10:\n      tag_12\n      jump\t// in\n    tag_9:\n      stop\n        /* \"Activity/SmartContract 1/question1.sol\":354:628  function largest() public view returns (uint16) {... */\n    tag_4:\n      tag_13\n      tag_14\n      jump\t// in\n    tag_13:\n      mload(0x40)\n      tag_15\n      swap2\n      swap1\n      tag_16\n      jump\t// in\n    tag_15:\n      mload(0x40)\n      dup1\n      swap2\n      sub\n      swap1\n      return\n        /* \"Activity/SmartContract 1/question1.sol\":186:349  function setNumbers(uint16 Number1, uint16 Number2, uint16 Number3) public {... */\n    tag_5:\n      tag_17\n      0x04\n      dup1\n      calldatasize\n      sub\n      dup2\n      add\n      swap1\n      tag_18\n      swap2\n      swap1\n      tag_19\n      jump\t// in\n    tag_18:\n      tag_20\n      jump\t// in\n    tag_17:\n      stop\n        /* \"Activity/SmartContract 1/question1.sol\":633:703  function setNumber(int _Number) public {... */\n    tag_6:\n      tag_21\n      0x04\n      dup1\n      calldatasize\n      sub\n      dup2\n      add\n      swap1\n      tag_22\n      swap2\n      swap1\n      tag_23\n      jump\t// in\n    tag_22:\n      tag_24\n      jump\t// in\n    tag_21:\n      stop\n        /* \"Activity/SmartContract 1/question1.sol\":708:972  function checksign() public view returns (string memory)... */\n    tag_7:\n      tag_25\n      tag_26\n      jump\t// in\n    tag_25:\n      mload(0x40)\n      tag_27\n      swap2\n      swap1\n      tag_28\n      jump\t// in\n    tag_27:\n      mload(0x40)\n      dup1\n      swap2\n      sub\n      swap1\n      return\n        /* \"Activity/SmartContract 1/question1.sol\":1053:1592  function  words() public view returns(string memory) {... */\n    tag_8:\n      tag_29\n      tag_30\n      jump\t// in\n    tag_29:\n      mload(0x40)\n      tag_31\n      swap2\n      swap1\n      tag_28\n      jump\t// in\n    tag_31:\n      mload(0x40)\n      dup1\n      swap2\n      sub\n      swap1\n      return\n        /* \"Activity/SmartContract 1/question1.sol\":977:1048  function setNumberToWsrds(uint16 num)public {... */\n    tag_12:\n        /* \"Activity/SmartContract 1/question1.sol\":1038:1041  num */\n      dup1\n        /* \"Activity/SmartContract 1/question1.sol\":1031:1037  NUMBER */\n      0x02\n      0x00\n        /* \"Activity/SmartContract 1/question1.sol\":1031:1041  NUMBER=num */\n      0x0100\n      exp\n      dup2\n      sload\n      dup2\n      0xffff\n      mul\n      not\n      and\n      swap1\n      dup4\n      0xffff\n      and\n      mul\n      or\n      swap1\n      sstore\n      pop\n        /* \"Activity/SmartContract 1/question1.sol\":977:1048  function setNumberToWsrds(uint16 num)public {... */\n      pop\n      jump\t// out\n        /* \"Activity/SmartContract 1/question1.sol\":354:628  function largest() public view returns (uint16) {... */\n    tag_14:\n        /* \"Activity/SmartContract 1/question1.sol\":394:400  uint16 */\n      0x00\n        /* \"Activity/SmartContract 1/question1.sol\":412:428  uint16 largestno */\n      dup1\n        /* \"Activity/SmartContract 1/question1.sol\":431:438  number1 */\n      0x00\n      dup1\n      sload\n      swap1\n      0x0100\n      exp\n      swap1\n      div\n      0xffff\n      and\n        /* \"Activity/SmartContract 1/question1.sol\":412:438  uint16 largestno = number1 */\n      swap1\n      pop\n        /* \"Activity/SmartContract 1/question1.sol\":463:472  largestno */\n      dup1\n        /* \"Activity/SmartContract 1/question1.sol\":453:472  number2 > largestno */\n      0xffff\n      and\n        /* \"Activity/SmartContract 1/question1.sol\":453:460  number2 */\n      0x00\n      0x02\n      swap1\n      sload\n      swap1\n      0x0100\n      exp\n      swap1\n      div\n      0xffff\n      and\n        /* \"Activity/SmartContract 1/question1.sol\":453:472  number2 > largestno */\n      0xffff\n      and\n      gt\n        /* \"Activity/SmartContract 1/question1.sol\":449:518  if (number2 > largestno) {... */\n      iszero\n      tag_34\n      jumpi\n        /* \"Activity/SmartContract 1/question1.sol\":500:507  number2 */\n      0x00\n      0x02\n      swap1\n      sload\n      swap1\n      0x0100\n      exp\n      swap1\n      div\n      0xffff\n      and\n        /* \"Activity/SmartContract 1/question1.sol\":488:507  largestno = number2 */\n      swap1\n      pop\n        /* \"Activity/SmartContract 1/question1.sol\":449:518  if (number2 > largestno) {... */\n    tag_34:\n        /* \"Activity/SmartContract 1/question1.sol\":541:550  largestno */\n      dup1\n        /* \"Activity/SmartContract 1/question1.sol\":531:550  number3 > largestno */\n      0xffff\n      and\n        /* \"Activity/SmartContract 1/question1.sol\":531:538  number3 */\n      0x00\n      0x04\n      swap1\n      sload\n      swap1\n      0x0100\n      exp\n      swap1\n      div\n      0xffff\n      and\n        /* \"Activity/SmartContract 1/question1.sol\":531:550  number3 > largestno */\n      0xffff\n      and\n      gt\n        /* \"Activity/SmartContract 1/question1.sol\":527:596  if (number3 > largestno) {... */\n      iszero\n      tag_35\n      jumpi\n        /* \"Activity/SmartContract 1/question1.sol\":578:585  number3 */\n      0x00\n      0x04\n      swap1\n      sload\n      swap1\n      0x0100\n      exp\n      swap1\n      div\n      0xffff\n      and\n        /* \"Activity/SmartContract 1/question1.sol\":566:585  largestno = number3 */\n      swap1\n      pop\n        /* \"Activity/SmartContract 1/question1.sol\":527:596  if (number3 > largestno) {... */\n    tag_35:\n        /* \"Activity/SmartContract 1/question1.sol\":612:621  largestno */\n      dup1\n        /* \"Activity/SmartContract 1/question1.sol\":605:621  return largestno */\n      swap2\n      pop\n      pop\n        /* \"Activity/SmartContract 1/question1.sol\":354:628  function largest() public view returns (uint16) {... */\n      swap1\n      jump\t// out\n        /* \"Activity/SmartContract 1/question1.sol\":186:349  function setNumbers(uint16 Number1, uint16 Number2, uint16 Number3) public {... */\n    tag_20:\n        /* \"Activity/SmartContract 1/question1.sol\":281:288  Number1 */\n      dup3\n        /* \"Activity/SmartContract 1/question1.sol\":271:278  number1 */\n      0x00\n      dup1\n        /* \"Activity/SmartContract 1/question1.sol\":271:288  number1 = Number1 */\n      0x0100\n      exp\n      dup2\n      sload\n      dup2\n      0xffff\n      mul\n      not\n      and\n      swap1\n      dup4\n      0xffff\n      and\n      mul\n      or\n      swap1\n      sstore\n      pop\n        /* \"Activity/SmartContract 1/question1.sol\":308:315  Number2 */\n      dup2\n        /* \"Activity/SmartContract 1/question1.sol\":298:305  number2 */\n      0x00\n      0x02\n        /* \"Activity/SmartContract 1/question1.sol\":298:315  number2 = Number2 */\n      0x0100\n      exp\n      dup2\n      sload\n      dup2\n      0xffff\n      mul\n      not\n      and\n      swap1\n      dup4\n      0xffff\n      and\n      mul\n      or\n      swap1\n      sstore\n      pop\n        /* \"Activity/SmartContract 1/question1.sol\":335:342  Number3 */\n      dup1\n        /* \"Activity/SmartContract 1/question1.sol\":325:332  number3 */\n      0x00\n      0x04\n        /* \"Activity/SmartContract 1/question1.sol\":325:342  number3 = Number3 */\n      0x0100\n      exp\n      dup2\n      sload\n      dup2\n      0xffff\n      mul\n      not\n      and\n      swap1\n      dup4\n      0xffff\n      and\n      mul\n      or\n      swap1\n      sstore\n      pop\n        /* \"Activity/SmartContract 1/question1.sol\":186:349  function setNumbers(uint16 Number1, uint16 Number2, uint16 Number3) public {... */\n      pop\n      pop\n      pop\n      jump\t// out\n        /* \"Activity/SmartContract 1/question1.sol\":633:703  function setNumber(int _Number) public {... */\n    tag_24:\n        /* \"Activity/SmartContract 1/question1.sol\":689:696  _Number */\n      dup1\n        /* \"Activity/SmartContract 1/question1.sol\":682:688  Number */\n      0x01\n        /* \"Activity/SmartContract 1/question1.sol\":682:696  Number=_Number */\n      dup2\n      swap1\n      sstore\n      pop\n        /* \"Activity/SmartContract 1/question1.sol\":633:703  function setNumber(int _Number) public {... */\n      pop\n      jump\t// out\n        /* \"Activity/SmartContract 1/question1.sol\":708:972  function checksign() public view returns (string memory)... */\n    tag_26:\n        /* \"Activity/SmartContract 1/question1.sol\":750:763  string memory */\n      0x60\n        /* \"Activity/SmartContract 1/question1.sol\":790:791  0 */\n      0x00\n        /* \"Activity/SmartContract 1/question1.sol\":782:788  Number */\n      sload(0x01)\n        /* \"Activity/SmartContract 1/question1.sol\":782:791  Number==0 */\n      sub\n        /* \"Activity/SmartContract 1/question1.sol\":779:956  if(Number==0){... */\n      tag_39\n      jumpi\n        /* \"Activity/SmartContract 1/question1.sol\":806:819  return \"Zero\" */\n      mload(0x40)\n      dup1\n      0x40\n      add\n      0x40\n      mstore\n      dup1\n      0x04\n      dup2\n      mstore\n      0x20\n      add\n      0x5a65726f00000000000000000000000000000000000000000000000000000000\n      dup2\n      mstore\n      pop\n      swap1\n      pop\n      jump(tag_38)\n        /* \"Activity/SmartContract 1/question1.sol\":779:956  if(Number==0){... */\n    tag_39:\n        /* \"Activity/SmartContract 1/question1.sol\":855:856  0 */\n      0x00\n        /* \"Activity/SmartContract 1/question1.sol\":848:854  Number */\n      sload(0x01)\n        /* \"Activity/SmartContract 1/question1.sol\":848:856  Number>0 */\n      sgt\n        /* \"Activity/SmartContract 1/question1.sol\":845:956  if(Number>0) {... */\n      iszero\n      tag_41\n      jumpi\n        /* \"Activity/SmartContract 1/question1.sol\":872:889  return \"Positive\" */\n      mload(0x40)\n      dup1\n      0x40\n      add\n      0x40\n      mstore\n      dup1\n      0x08\n      dup2\n      mstore\n      0x20\n      add\n      0x506f736974697665000000000000000000000000000000000000000000000000\n      dup2\n      mstore\n      pop\n      swap1\n      pop\n      jump(tag_38)\n        /* \"Activity/SmartContract 1/question1.sol\":845:956  if(Number>0) {... */\n    tag_41:\n        /* \"Activity/SmartContract 1/question1.sol\":928:945  return \"Negative\" */\n      mload(0x40)\n      dup1\n      0x40\n      add\n      0x40\n      mstore\n      dup1\n      0x08\n      dup2\n      mstore\n      0x20\n      add\n      0x4e65676174697665000000000000000000000000000000000000000000000000\n      dup2\n      mstore\n      pop\n      swap1\n      pop\n        /* \"Activity/SmartContract 1/question1.sol\":708:972  function checksign() public view returns (string memory)... */\n    tag_38:\n      swap1\n      jump\t// out\n        /* \"Activity/SmartContract 1/question1.sol\":1053:1592  function  words() public view returns(string memory) {... */\n    tag_30:\n        /* \"Activity/SmartContract 1/question1.sol\":1091:1104  string memory */\n      0x60\n        /* \"Activity/SmartContract 1/question1.sol\":1123:1124  0 */\n      0x00\n        /* \"Activity/SmartContract 1/question1.sol\":1115:1121  NUMBER */\n      0x02\n      0x00\n      swap1\n      sload\n      swap1\n      0x0100\n      exp\n      swap1\n      div\n      0xffff\n      and\n        /* \"Activity/SmartContract 1/question1.sol\":1115:1124  NUMBER==0 */\n      0xffff\n      and\n      sub\n        /* \"Activity/SmartContract 1/question1.sol\":1112:1155  if(NUMBER==0){... */\n      tag_44\n      jumpi\n        /* \"Activity/SmartContract 1/question1.sol\":1135:1148  return \"Zero\" */\n      mload(0x40)\n      dup1\n      0x40\n      add\n      0x40\n      mstore\n      dup1\n      0x04\n      dup2\n      mstore\n      0x20\n      add\n      0x5a65726f00000000000000000000000000000000000000000000000000000000\n      dup2\n      mstore\n      pop\n      swap1\n      pop\n      jump(tag_43)\n        /* \"Activity/SmartContract 1/question1.sol\":1112:1155  if(NUMBER==0){... */\n    tag_44:\n        /* \"Activity/SmartContract 1/question1.sol\":1171:1172  1 */\n      0x01\n        /* \"Activity/SmartContract 1/question1.sol\":1163:1169  NUMBER */\n      0x02\n      0x00\n      swap1\n      sload\n      swap1\n      0x0100\n      exp\n      swap1\n      div\n      0xffff\n      and\n        /* \"Activity/SmartContract 1/question1.sol\":1163:1172  NUMBER==1 */\n      0xffff\n      and\n      sub\n        /* \"Activity/SmartContract 1/question1.sol\":1160:1202  if(NUMBER==1){... */\n      tag_45\n      jumpi\n        /* \"Activity/SmartContract 1/question1.sol\":1183:1195  return \"One\" */\n      mload(0x40)\n      dup1\n      0x40\n      add\n      0x40\n      mstore\n      dup1\n      0x03\n      dup2\n      mstore\n      0x20\n      add\n      0x4f6e650000000000000000000000000000000000000000000000000000000000\n      dup2\n      mstore\n      pop\n      swap1\n      pop\n      jump(tag_43)\n        /* \"Activity/SmartContract 1/question1.sol\":1160:1202  if(NUMBER==1){... */\n    tag_45:\n        /* \"Activity/SmartContract 1/question1.sol\":1218:1219  2 */\n      0x02\n        /* \"Activity/SmartContract 1/question1.sol\":1210:1216  NUMBER */\n      dup1\n      0x00\n      swap1\n      sload\n      swap1\n      0x0100\n      exp\n      swap1\n      div\n      0xffff\n      and\n        /* \"Activity/SmartContract 1/question1.sol\":1210:1219  NUMBER==2 */\n      0xffff\n      and\n      sub\n        /* \"Activity/SmartContract 1/question1.sol\":1207:1249  if(NUMBER==2){... */\n      tag_46\n      jumpi\n        /* \"Activity/SmartContract 1/question1.sol\":1230:1242  return \"Two\" */\n      mload(0x40)\n      dup1\n      0x40\n      add\n      0x40\n      mstore\n      dup1\n      0x03\n      dup2\n      mstore\n      0x20\n      add\n      0x54776f0000000000000000000000000000000000000000000000000000000000\n      dup2\n      mstore\n      pop\n      swap1\n      pop\n      jump(tag_43)\n        /* \"Activity/SmartContract 1/question1.sol\":1207:1249  if(NUMBER==2){... */\n    tag_46:\n        /* \"Activity/SmartContract 1/question1.sol\":1260:1261  3 */\n      0x03\n        /* \"Activity/SmartContract 1/question1.sol\":1252:1258  NUMBER */\n      0x02\n      0x00\n      swap1\n      sload\n      swap1\n      0x0100\n      exp\n      swap1\n      div\n      0xffff\n      and\n        /* \"Activity/SmartContract 1/question1.sol\":1252:1261  NUMBER==3 */\n      0xffff\n      and\n      sub\n        /* \"Activity/SmartContract 1/question1.sol\":1249:1293  if(NUMBER==3){... */\n      tag_47\n      jumpi\n        /* \"Activity/SmartContract 1/question1.sol\":1272:1286  return \"Three\" */\n      mload(0x40)\n      dup1\n      0x40\n      add\n      0x40\n      mstore\n      dup1\n      0x05\n      dup2\n      mstore\n      0x20\n      add\n      0x5468726565000000000000000000000000000000000000000000000000000000\n      dup2\n      mstore\n      pop\n      swap1\n      pop\n      jump(tag_43)\n        /* \"Activity/SmartContract 1/question1.sol\":1249:1293  if(NUMBER==3){... */\n    tag_47:\n        /* \"Activity/SmartContract 1/question1.sol\":1304:1305  4 */\n      0x04\n        /* \"Activity/SmartContract 1/question1.sol\":1296:1302  NUMBER */\n      0x02\n      0x00\n      swap1\n      sload\n      swap1\n      0x0100\n      exp\n      swap1\n      div\n      0xffff\n      and\n        /* \"Activity/SmartContract 1/question1.sol\":1296:1305  NUMBER==4 */\n      0xffff\n      and\n      sub\n        /* \"Activity/SmartContract 1/question1.sol\":1293:1336  if(NUMBER==4){... */\n      tag_48\n      jumpi\n        /* \"Activity/SmartContract 1/question1.sol\":1316:1329  return \"Four\" */\n      mload(0x40)\n      dup1\n      0x40\n      add\n      0x40\n      mstore\n      dup1\n      0x04\n      dup2\n      mstore\n      0x20\n      add\n      0x466f757200000000000000000000000000000000000000000000000000000000\n      dup2\n      mstore\n      pop\n      swap1\n      pop\n      jump(tag_43)\n        /* \"Activity/SmartContract 1/question1.sol\":1293:1336  if(NUMBER==4){... */\n    tag_48:\n        /* \"Activity/SmartContract 1/question1.sol\":1347:1348  5 */\n      0x05\n        /* \"Activity/SmartContract 1/question1.sol\":1339:1345  NUMBER */\n      0x02\n      0x00\n      swap1\n      sload\n      swap1\n      0x0100\n      exp\n      swap1\n      div\n      0xffff\n      and\n        /* \"Activity/SmartContract 1/question1.sol\":1339:1348  NUMBER==5 */\n      0xffff\n      and\n      sub\n        /* \"Activity/SmartContract 1/question1.sol\":1336:1379  if(NUMBER==5){... */\n      tag_49\n      jumpi\n        /* \"Activity/SmartContract 1/question1.sol\":1359:1372  return \"Five\" */\n      mload(0x40)\n      dup1\n      0x40\n      add\n      0x40\n      mstore\n      dup1\n      0x04\n      dup2\n      mstore\n      0x20\n      add\n      0x4669766500000000000000000000000000000000000000000000000000000000\n      dup2\n      mstore\n      pop\n      swap1\n      pop\n      jump(tag_43)\n        /* \"Activity/SmartContract 1/question1.sol\":1336:1379  if(NUMBER==5){... */\n    tag_49:\n        /* \"Activity/SmartContract 1/question1.sol\":1390:1391  6 */\n      0x06\n        /* \"Activity/SmartContract 1/question1.sol\":1382:1388  NUMBER */\n      0x02\n      0x00\n      swap1\n      sload\n      swap1\n      0x0100\n      exp\n      swap1\n      div\n      0xffff\n      and\n        /* \"Activity/SmartContract 1/question1.sol\":1382:1391  NUMBER==6 */\n      0xffff\n      and\n      sub\n        /* \"Activity/SmartContract 1/question1.sol\":1379:1421  if(NUMBER==6){... */\n      tag_50\n      jumpi\n        /* \"Activity/SmartContract 1/question1.sol\":1402:1414  return \"Six\" */\n      mload(0x40)\n      dup1\n      0x40\n      add\n      0x40\n      mstore\n      dup1\n      0x03\n      dup2\n      mstore\n      0x20\n      add\n      0x5369780000000000000000000000000000000000000000000000000000000000\n      dup2\n      mstore\n      pop\n      swap1\n      pop\n      jump(tag_43)\n        /* \"Activity/SmartContract 1/question1.sol\":1379:1421  if(NUMBER==6){... */\n    tag_50:\n        /* \"Activity/SmartContract 1/question1.sol\":1437:1438  7 */\n      0x07\n        /* \"Activity/SmartContract 1/question1.sol\":1429:1435  NUMBER */\n      0x02\n      0x00\n      swap1\n      sload\n      swap1\n      0x0100\n      exp\n      swap1\n      div\n      0xffff\n      and\n        /* \"Activity/SmartContract 1/question1.sol\":1429:1438  NUMBER==7 */\n      0xffff\n      and\n      sub\n        /* \"Activity/SmartContract 1/question1.sol\":1426:1470  if(NUMBER==7){... */\n      tag_51\n      jumpi\n        /* \"Activity/SmartContract 1/question1.sol\":1449:1463  return \"Seven\" */\n      mload(0x40)\n      dup1\n      0x40\n      add\n      0x40\n      mstore\n      dup1\n      0x05\n      dup2\n      mstore\n      0x20\n      add\n      0x536576656e000000000000000000000000000000000000000000000000000000\n      dup2\n      mstore\n      pop\n      swap1\n      pop\n      jump(tag_43)\n        /* \"Activity/SmartContract 1/question1.sol\":1426:1470  if(NUMBER==7){... */\n    tag_51:\n        /* \"Activity/SmartContract 1/question1.sol\":1481:1482  8 */\n      0x08\n        /* \"Activity/SmartContract 1/question1.sol\":1473:1479  NUMBER */\n      0x02\n      0x00\n      swap1\n      sload\n      swap1\n      0x0100\n      exp\n      swap1\n      div\n      0xffff\n      and\n        /* \"Activity/SmartContract 1/question1.sol\":1473:1482  NUMBER==8 */\n      0xffff\n      and\n      sub\n        /* \"Activity/SmartContract 1/question1.sol\":1470:1514  if(NUMBER==8){... */\n      tag_52\n      jumpi\n        /* \"Activity/SmartContract 1/question1.sol\":1493:1507  return \"Eight\" */\n      mload(0x40)\n      dup1\n      0x40\n      add\n      0x40\n      mstore\n      dup1\n      0x05\n      dup2\n      mstore\n      0x20\n      add\n      0x4569676874000000000000000000000000000000000000000000000000000000\n      dup2\n      mstore\n      pop\n      swap1\n      pop\n      jump(tag_43)\n        /* \"Activity/SmartContract 1/question1.sol\":1470:1514  if(NUMBER==8){... */\n    tag_52:\n        /* \"Activity/SmartContract 1/question1.sol\":1525:1526  9 */\n      0x09\n        /* \"Activity/SmartContract 1/question1.sol\":1517:1523  NUMBER */\n      0x02\n      0x00\n      swap1\n      sload\n      swap1\n      0x0100\n      exp\n      swap1\n      div\n      0xffff\n      and\n        /* \"Activity/SmartContract 1/question1.sol\":1517:1526  NUMBER==9 */\n      0xffff\n      and\n      sub\n        /* \"Activity/SmartContract 1/question1.sol\":1514:1557  if(NUMBER==9){... */\n      tag_53\n      jumpi\n        /* \"Activity/SmartContract 1/question1.sol\":1537:1550  return \"Nine\" */\n      mload(0x40)\n      dup1\n      0x40\n      add\n      0x40\n      mstore\n      dup1\n      0x04\n      dup2\n      mstore\n      0x20\n      add\n      0x4e696e6500000000000000000000000000000000000000000000000000000000\n      dup2\n      mstore\n      pop\n      swap1\n      pop\n      jump(tag_43)\n        /* \"Activity/SmartContract 1/question1.sol\":1514:1557  if(NUMBER==9){... */\n    tag_53:\n        /* \"Activity/SmartContract 1/question1.sol\":1562:1585  return \"invalid number\" */\n      mload(0x40)\n      dup1\n      0x40\n      add\n      0x40\n      mstore\n      dup1\n      0x0e\n      dup2\n      mstore\n      0x20\n      add\n      0x696e76616c6964206e756d626572000000000000000000000000000000000000\n      dup2\n      mstore\n      pop\n      swap1\n      pop\n        /* \"Activity/SmartContract 1/question1.sol\":1053:1592  function  words() public view returns(string memory) {... */\n    tag_43:\n      swap1\n      jump\t// out\n        /* \"#utility.yul\":88:205   */\n    tag_55:\n        /* \"#utility.yul\":197:198   */\n      0x00\n        /* \"#utility.yul\":194:195   */\n      dup1\n        /* \"#utility.yul\":187:199   */\n      revert\n        /* \"#utility.yul\":334:423   */\n    tag_57:\n        /* \"#utility.yul\":370:377   */\n      0x00\n        /* \"#utility.yul\":410:416   */\n      0xffff\n        /* \"#utility.yul\":403:408   */\n      dup3\n        /* \"#utility.yul\":399:417   */\n      and\n        /* \"#utility.yul\":388:417   */\n      swap1\n      pop\n        /* \"#utility.yul\":334:423   */\n      swap2\n      swap1\n      pop\n      jump\t// out\n        /* \"#utility.yul\":429:549   */\n    tag_58:\n        /* \"#utility.yul\":501:524   */\n      tag_75\n        /* \"#utility.yul\":518:523   */\n      dup2\n        /* \"#utility.yul\":501:524   */\n      tag_57\n      jump\t// in\n    tag_75:\n        /* \"#utility.yul\":494:499   */\n      dup2\n        /* \"#utility.yul\":491:525   */\n      eq\n        /* \"#utility.yul\":481:543   */\n      tag_76\n      jumpi\n        /* \"#utility.yul\":539:540   */\n      0x00\n        /* \"#utility.yul\":536:537   */\n      dup1\n        /* \"#utility.yul\":529:541   */\n      revert\n        /* \"#utility.yul\":481:543   */\n    tag_76:\n        /* \"#utility.yul\":429:549   */\n      pop\n      jump\t// out\n        /* \"#utility.yul\":555:692   */\n    tag_59:\n        /* \"#utility.yul\":600:605   */\n      0x00\n        /* \"#utility.yul\":638:644   */\n      dup2\n        /* \"#utility.yul\":625:645   */\n      calldataload\n        /* \"#utility.yul\":616:645   */\n      swap1\n      pop\n        /* \"#utility.yul\":654:686   */\n      tag_78\n        /* \"#utility.yul\":680:685   */\n      dup2\n        /* \"#utility.yul\":654:686   */\n      tag_58\n      jump\t// in\n    tag_78:\n        /* \"#utility.yul\":555:692   */\n      swap3\n      swap2\n      pop\n      pop\n      jump\t// out\n        /* \"#utility.yul\":698:1025   */\n    tag_11:\n        /* \"#utility.yul\":756:762   */\n      0x00\n        /* \"#utility.yul\":805:807   */\n      0x20\n        /* \"#utility.yul\":793:802   */\n      dup3\n        /* \"#utility.yul\":784:791   */\n      dup5\n        /* \"#utility.yul\":780:803   */\n      sub\n        /* \"#utility.yul\":776:808   */\n      slt\n        /* \"#utility.yul\":773:892   */\n      iszero\n      tag_80\n      jumpi\n        /* \"#utility.yul\":811:890   */\n      tag_81\n      tag_55\n      jump\t// in\n    tag_81:\n        /* \"#utility.yul\":773:892   */\n    tag_80:\n        /* \"#utility.yul\":931:932   */\n      0x00\n        /* \"#utility.yul\":956:1008   */\n      tag_82\n        /* \"#utility.yul\":1000:1007   */\n      dup5\n        /* \"#utility.yul\":991:997   */\n      dup3\n        /* \"#utility.yul\":980:989   */\n      dup6\n        /* \"#utility.yul\":976:998   */\n      add\n        /* \"#utility.yul\":956:1008   */\n      tag_59\n      jump\t// in\n    tag_82:\n        /* \"#utility.yul\":946:1008   */\n      swap2\n      pop\n        /* \"#utility.yul\":902:1018   */\n      pop\n        /* \"#utility.yul\":698:1025   */\n      swap3\n      swap2\n      pop\n      pop\n      jump\t// out\n        /* \"#utility.yul\":1031:1146   */\n    tag_60:\n        /* \"#utility.yul\":1116:1139   */\n      tag_84\n        /* \"#utility.yul\":1133:1138   */\n      dup2\n        /* \"#utility.yul\":1116:1139   */\n      tag_57\n      jump\t// in\n    tag_84:\n        /* \"#utility.yul\":1111:1114   */\n      dup3\n        /* \"#utility.yul\":1104:1140   */\n      mstore\n        /* \"#utility.yul\":1031:1146   */\n      pop\n      pop\n      jump\t// out\n        /* \"#utility.yul\":1152:1370   */\n    tag_16:\n        /* \"#utility.yul\":1243:1247   */\n      0x00\n        /* \"#utility.yul\":1281:1283   */\n      0x20\n        /* \"#utility.yul\":1270:1279   */\n      dup3\n        /* \"#utility.yul\":1266:1284   */\n      add\n        /* \"#utility.yul\":1258:1284   */\n      swap1\n      pop\n        /* \"#utility.yul\":1294:1363   */\n      tag_86\n        /* \"#utility.yul\":1360:1361   */\n      0x00\n        /* \"#utility.yul\":1349:1358   */\n      dup4\n        /* \"#utility.yul\":1345:1362   */\n      add\n        /* \"#utility.yul\":1336:1342   */\n      dup5\n        /* \"#utility.yul\":1294:1363   */\n      tag_60\n      jump\t// in\n    tag_86:\n        /* \"#utility.yul\":1152:1370   */\n      swap3\n      swap2\n      pop\n      pop\n      jump\t// out\n        /* \"#utility.yul\":1376:1989   */\n    tag_19:\n        /* \"#utility.yul\":1450:1456   */\n      0x00\n        /* \"#utility.yul\":1458:1464   */\n      dup1\n        /* \"#utility.yul\":1466:1472   */\n      0x00\n        /* \"#utility.yul\":1515:1517   */\n      0x60\n        /* \"#utility.yul\":1503:1512   */\n      dup5\n        /* \"#utility.yul\":1494:1501   */\n      dup7\n        /* \"#utility.yul\":1490:1513   */\n      sub\n        /* \"#utility.yul\":1486:1518   */\n      slt\n        /* \"#utility.yul\":1483:1602   */\n      iszero\n      tag_88\n      jumpi\n        /* \"#utility.yul\":1521:1600   */\n      tag_89\n      tag_55\n      jump\t// in\n    tag_89:\n        /* \"#utility.yul\":1483:1602   */\n    tag_88:\n        /* \"#utility.yul\":1641:1642   */\n      0x00\n        /* \"#utility.yul\":1666:1718   */\n      tag_90\n        /* \"#utility.yul\":1710:1717   */\n      dup7\n        /* \"#utility.yul\":1701:1707   */\n      dup3\n        /* \"#utility.yul\":1690:1699   */\n      dup8\n        /* \"#utility.yul\":1686:1708   */\n      add\n        /* \"#utility.yul\":1666:1718   */\n      tag_59\n      jump\t// in\n    tag_90:\n        /* \"#utility.yul\":1656:1718   */\n      swap4\n      pop\n        /* \"#utility.yul\":1612:1728   */\n      pop\n        /* \"#utility.yul\":1767:1769   */\n      0x20\n        /* \"#utility.yul\":1793:1845   */\n      tag_91\n        /* \"#utility.yul\":1837:1844   */\n      dup7\n        /* \"#utility.yul\":1828:1834   */\n      dup3\n        /* \"#utility.yul\":1817:1826   */\n      dup8\n        /* \"#utility.yul\":1813:1835   */\n      add\n        /* \"#utility.yul\":1793:1845   */\n      tag_59\n      jump\t// in\n    tag_91:\n        /* \"#utility.yul\":1783:1845   */\n      swap3\n      pop\n        /* \"#utility.yul\":1738:1855   */\n      pop\n        /* \"#utility.yul\":1894:1896   */\n      0x40\n        /* \"#utility.yul\":1920:1972   */\n      tag_92\n        /* \"#utility.yul\":1964:1971   */\n      dup7\n        /* \"#utility.yul\":1955:1961   */\n      dup3\n        /* \"#utility.yul\":1944:1953   */\n      dup8\n        /* \"#utility.yul\":1940:1962   */\n      add\n        /* \"#utility.yul\":1920:1972   */\n      tag_59\n      jump\t// in\n    tag_92:\n        /* \"#utility.yul\":1910:1972   */\n      swap2\n      pop\n        /* \"#utility.yul\":1865:1982   */\n      pop\n        /* \"#utility.yul\":1376:1989   */\n      swap3\n      pop\n      swap3\n      pop\n      swap3\n      jump\t// out\n        /* \"#utility.yul\":1995:2071   */\n    tag_61:\n        /* \"#utility.yul\":2031:2038   */\n      0x00\n        /* \"#utility.yul\":2060:2065   */\n      dup2\n        /* \"#utility.yul\":2049:2065   */\n      swap1\n      pop\n        /* \"#utility.yul\":1995:2071   */\n      swap2\n      swap1\n      pop\n      jump\t// out\n        /* \"#utility.yul\":2077:2197   */\n    tag_62:\n        /* \"#utility.yul\":2149:2172   */\n      tag_95\n        /* \"#utility.yul\":2166:2171   */\n      dup2\n        /* \"#utility.yul\":2149:2172   */\n      tag_61\n      jump\t// in\n    tag_95:\n        /* \"#utility.yul\":2142:2147   */\n      dup2\n        /* \"#utility.yul\":2139:2173   */\n      eq\n        /* \"#utility.yul\":2129:2191   */\n      tag_96\n      jumpi\n        /* \"#utility.yul\":2187:2188   */\n      0x00\n        /* \"#utility.yul\":2184:2185   */\n      dup1\n        /* \"#utility.yul\":2177:2189   */\n      revert\n        /* \"#utility.yul\":2129:2191   */\n    tag_96:\n        /* \"#utility.yul\":2077:2197   */\n      pop\n      jump\t// out\n        /* \"#utility.yul\":2203:2340   */\n    tag_63:\n        /* \"#utility.yul\":2248:2253   */\n      0x00\n        /* \"#utility.yul\":2286:2292   */\n      dup2\n        /* \"#utility.yul\":2273:2293   */\n      calldataload\n        /* \"#utility.yul\":2264:2293   */\n      swap1\n      pop\n        /* \"#utility.yul\":2302:2334   */\n      tag_98\n        /* \"#utility.yul\":2328:2333   */\n      dup2\n        /* \"#utility.yul\":2302:2334   */\n      tag_62\n      jump\t// in\n    tag_98:\n        /* \"#utility.yul\":2203:2340   */\n      swap3\n      swap2\n      pop\n      pop\n      jump\t// out\n        /* \"#utility.yul\":2346:2673   */\n    tag_23:\n        /* \"#utility.yul\":2404:2410   */\n      0x00\n        /* \"#utility.yul\":2453:2455   */\n      0x20\n        /* \"#utility.yul\":2441:2450   */\n      dup3\n        /* \"#utility.yul\":2432:2439   */\n      dup5\n        /* \"#utility.yul\":2428:2451   */\n      sub\n        /* \"#utility.yul\":2424:2456   */\n      slt\n        /* \"#utility.yul\":2421:2540   */\n      iszero\n      tag_100\n      jumpi\n        /* \"#utility.yul\":2459:2538   */\n      tag_101\n      tag_55\n      jump\t// in\n    tag_101:\n        /* \"#utility.yul\":2421:2540   */\n    tag_100:\n        /* \"#utility.yul\":2579:2580   */\n      0x00\n        /* \"#utility.yul\":2604:2656   */\n      tag_102\n        /* \"#utility.yul\":2648:2655   */\n      dup5\n        /* \"#utility.yul\":2639:2645   */\n      dup3\n        /* \"#utility.yul\":2628:2637   */\n      dup6\n        /* \"#utility.yul\":2624:2646   */\n      add\n        /* \"#utility.yul\":2604:2656   */\n      tag_63\n      jump\t// in\n    tag_102:\n        /* \"#utility.yul\":2594:2656   */\n      swap2\n      pop\n        /* \"#utility.yul\":2550:2666   */\n      pop\n        /* \"#utility.yul\":2346:2673   */\n      swap3\n      swap2\n      pop\n      pop\n      jump\t// out\n        /* \"#utility.yul\":2679:2778   */\n    tag_64:\n        /* \"#utility.yul\":2731:2737   */\n      0x00\n        /* \"#utility.yul\":2765:2770   */\n      dup2\n        /* \"#utility.yul\":2759:2771   */\n      mload\n        /* \"#utility.yul\":2749:2771   */\n      swap1\n      pop\n        /* \"#utility.yul\":2679:2778   */\n      swap2\n      swap1\n      pop\n      jump\t// out\n        /* \"#utility.yul\":2784:2953   */\n    tag_65:\n        /* \"#utility.yul\":2868:2879   */\n      0x00\n        /* \"#utility.yul\":2902:2908   */\n      dup3\n        /* \"#utility.yul\":2897:2900   */\n      dup3\n        /* \"#utility.yul\":2890:2909   */\n      mstore\n        /* \"#utility.yul\":2942:2946   */\n      0x20\n        /* \"#utility.yul\":2937:2940   */\n      dup3\n        /* \"#utility.yul\":2933:2947   */\n      add\n        /* \"#utility.yul\":2918:2947   */\n      swap1\n      pop\n        /* \"#utility.yul\":2784:2953   */\n      swap3\n      swap2\n      pop\n      pop\n      jump\t// out\n        /* \"#utility.yul\":2959:3098   */\n    tag_66:\n        /* \"#utility.yul\":3048:3054   */\n      dup3\n        /* \"#utility.yul\":3043:3046   */\n      dup2\n        /* \"#utility.yul\":3038:3041   */\n      dup4\n        /* \"#utility.yul\":3032:3055   */\n      mcopy\n        /* \"#utility.yul\":3089:3090   */\n      0x00\n        /* \"#utility.yul\":3080:3086   */\n      dup4\n        /* \"#utility.yul\":3075:3078   */\n      dup4\n        /* \"#utility.yul\":3071:3087   */\n      add\n        /* \"#utility.yul\":3064:3091   */\n      mstore\n        /* \"#utility.yul\":2959:3098   */\n      pop\n      pop\n      pop\n      jump\t// out\n        /* \"#utility.yul\":3104:3206   */\n    tag_67:\n        /* \"#utility.yul\":3145:3151   */\n      0x00\n        /* \"#utility.yul\":3196:3198   */\n      0x1f\n        /* \"#utility.yul\":3192:3199   */\n      not\n        /* \"#utility.yul\":3187:3189   */\n      0x1f\n        /* \"#utility.yul\":3180:3185   */\n      dup4\n        /* \"#utility.yul\":3176:3190   */\n      add\n        /* \"#utility.yul\":3172:3200   */\n      and\n        /* \"#utility.yul\":3162:3200   */\n      swap1\n      pop\n        /* \"#utility.yul\":3104:3206   */\n      swap2\n      swap1\n      pop\n      jump\t// out\n        /* \"#utility.yul\":3212:3589   */\n    tag_68:\n        /* \"#utility.yul\":3300:3303   */\n      0x00\n        /* \"#utility.yul\":3328:3367   */\n      tag_108\n        /* \"#utility.yul\":3361:3366   */\n      dup3\n        /* \"#utility.yul\":3328:3367   */\n      tag_64\n      jump\t// in\n    tag_108:\n        /* \"#utility.yul\":3383:3454   */\n      tag_109\n        /* \"#utility.yul\":3447:3453   */\n      dup2\n        /* \"#utility.yul\":3442:3445   */\n      dup6\n        /* \"#utility.yul\":3383:3454   */\n      tag_65\n      jump\t// in\n    tag_109:\n        /* \"#utility.yul\":3376:3454   */\n      swap4\n      pop\n        /* \"#utility.yul\":3463:3528   */\n      tag_110\n        /* \"#utility.yul\":3521:3527   */\n      dup2\n        /* \"#utility.yul\":3516:3519   */\n      dup6\n        /* \"#utility.yul\":3509:3513   */\n      0x20\n        /* \"#utility.yul\":3502:3507   */\n      dup7\n        /* \"#utility.yul\":3498:3514   */\n      add\n        /* \"#utility.yul\":3463:3528   */\n      tag_66\n      jump\t// in\n    tag_110:\n        /* \"#utility.yul\":3553:3582   */\n      tag_111\n        /* \"#utility.yul\":3575:3581   */\n      dup2\n        /* \"#utility.yul\":3553:3582   */\n      tag_67\n      jump\t// in\n    tag_111:\n        /* \"#utility.yul\":3548:3551   */\n      dup5\n        /* \"#utility.yul\":3544:3583   */\n      add\n        /* \"#utility.yul\":3537:3583   */\n      swap2\n      pop\n        /* \"#utility.yul\":3304:3589   */\n      pop\n        /* \"#utility.yul\":3212:3589   */\n      swap3\n      swap2\n      pop\n      pop\n      jump\t// out\n        /* \"#utility.yul\":3595:3908   */\n    tag_28:\n        /* \"#utility.yul\":3708:3712   */\n      0x00\n        /* \"#utility.yul\":3746:3748   */\n      0x20\n        /* \"#utility.yul\":3735:3744   */\n      dup3\n        /* \"#utility.yul\":3731:3749   */\n      add\n        /* \"#utility.yul\":3723:3749   */\n      swap1\n      pop\n        /* \"#utility.yul\":3795:3804   */\n      dup2\n        /* \"#utility.yul\":3789:3793   */\n      dup2\n        /* \"#utility.yul\":3785:3805   */\n      sub\n        /* \"#utility.yul\":3781:3782   */\n      0x00\n        /* \"#utility.yul\":3770:3779   */\n      dup4\n        /* \"#utility.yul\":3766:3783   */\n      add\n        /* \"#utility.yul\":3759:3806   */\n      mstore\n        /* \"#utility.yul\":3823:3901   */\n      tag_113\n        /* \"#utility.yul\":3896:3900   */\n      dup2\n        /* \"#utility.yul\":3887:3893   */\n      dup5\n        /* \"#utility.yul\":3823:3901   */\n      tag_68\n      jump\t// in\n    tag_113:\n        /* \"#utility.yul\":3815:3901   */\n      swap1\n      pop\n        /* \"#utility.yul\":3595:3908   */\n      swap3\n      swap2\n      pop\n      pop\n      jump\t// out\n\n    auxdata: 0xa264697066735822122093e8c843e958b8bab2927ba483365bb1387f081681c8224fbd4c8115f2c431c964736f6c634300081a0033\n}\n",
				"bytecode": {
					"linkReferences": {},
					"object": "6080604052348015600e575f80fd5b506108898061001c5f395ff3fe608060405234801561000f575f80fd5b5060043610610060575f3560e01c806356e0219d1461006457806380bc64fc1461008057806399e47c5e1461009e5780639cf27f37146100ba578063d73e4276146100d6578063f2c31bd9146100f4575b5f80fd5b61007e600480360381019061007991906106c2565b610112565b005b610088610131565b60405161009591906106fc565b60405180910390f35b6100b860048036038101906100b39190610715565b6101ae565b005b6100d460048036038101906100cf9190610798565b610206565b005b6100de610210565b6040516100eb9190610833565b60405180910390f35b6100fc6102db565b6040516101099190610833565b60405180910390f35b8060025f6101000a81548161ffff021916908361ffff16021790555050565b5f805f8054906101000a900461ffff1690508061ffff165f60029054906101000a900461ffff1661ffff161115610175575f60029054906101000a900461ffff1690505b8061ffff165f60049054906101000a900461ffff1661ffff1611156101a7575f60049054906101000a900461ffff1690505b8091505090565b825f806101000a81548161ffff021916908361ffff160217905550815f60026101000a81548161ffff021916908361ffff160217905550805f60046101000a81548161ffff021916908361ffff160217905550505050565b8060018190555050565b60605f60015403610258576040518060400160405280600481526020017f5a65726f0000000000000000000000000000000000000000000000000000000081525090506102d8565b5f600154131561029f576040518060400160405280600881526020017f506f73697469766500000000000000000000000000000000000000000000000081525090506102d8565b6040518060400160405280600881526020017f4e6567617469766500000000000000000000000000000000000000000000000081525090505b90565b60605f60025f9054906101000a900461ffff1661ffff1603610334576040518060400160405280600481526020017f5a65726f000000000000000000000000000000000000000000000000000000008152509050610684565b600160025f9054906101000a900461ffff1661ffff160361038c576040518060400160405280600381526020017f4f6e6500000000000000000000000000000000000000000000000000000000008152509050610684565b6002805f9054906101000a900461ffff1661ffff16036103e3576040518060400160405280600381526020017f54776f00000000000000000000000000000000000000000000000000000000008152509050610684565b600360025f9054906101000a900461ffff1661ffff160361043b576040518060400160405280600581526020017f54687265650000000000000000000000000000000000000000000000000000008152509050610684565b600460025f9054906101000a900461ffff1661ffff1603610493576040518060400160405280600481526020017f466f7572000000000000000000000000000000000000000000000000000000008152509050610684565b600560025f9054906101000a900461ffff1661ffff16036104eb576040518060400160405280600481526020017f46697665000000000000000000000000000000000000000000000000000000008152509050610684565b600660025f9054906101000a900461ffff1661ffff1603610543576040518060400160405280600381526020017f53697800000000000000000000000000000000000000000000000000000000008152509050610684565b600760025f9054906101000a900461ffff1661ffff160361059b576040518060400160405280600581526020017f536576656e0000000000000000000000000000000000000000000000000000008152509050610684565b600860025f9054906101000a900461ffff1661ffff16036105f3576040518060400160405280600581526020017f45696768740000000000000000000000000000000000000000000000000000008152509050610684565b600960025f9054906101000a900461ffff1661ffff160361064b576040518060400160405280600481526020017f4e696e65000000000000000000000000000000000000000000000000000000008152509050610684565b6040518060400160405280600e81526020017f696e76616c6964206e756d62657200000000000000000000000000000000000081525090505b90565b5f80fd5b5f61ffff82169050919050565b6106a18161068b565b81146106ab575f80fd5b50565b5f813590506106bc81610698565b92915050565b5f602082840312156106d7576106d6610687565b5b5f6106e4848285016106ae565b91505092915050565b6106f68161068b565b82525050565b5f60208201905061070f5f8301846106ed565b92915050565b5f805f6060848603121561072c5761072b610687565b5b5f610739868287016106ae565b935050602061074a868287016106ae565b925050604061075b868287016106ae565b9150509250925092565b5f819050919050565b61077781610765565b8114610781575f80fd5b50565b5f813590506107928161076e565b92915050565b5f602082840312156107ad576107ac610687565b5b5f6107ba84828501610784565b91505092915050565b5f81519050919050565b5f82825260208201905092915050565b8281835e5f83830152505050565b5f601f19601f8301169050919050565b5f610805826107c3565b61080f81856107cd565b935061081f8185602086016107dd565b610828816107eb565b840191505092915050565b5f6020820190508181035f83015261084b81846107fb565b90509291505056fea264697066735822122093e8c843e958b8bab2927ba483365bb1387f081681c8224fbd4c8115f2c431c964736f6c634300081a0033",
					"opcodes": "PUSH1 0x80 PUSH1 0x40 MSTORE CALLVALUE DUP1 ISZERO PUSH1 0xE JUMPI PUSH0 DUP1 REVERT JUMPDEST POP PUSH2 0x889 DUP1 PUSH2 0x1C PUSH0 CODECOPY PUSH0 RETURN INVALID PUSH1 0x80 PUSH1 0x40 MSTORE CALLVALUE DUP1 ISZERO PUSH2 0xF JUMPI PUSH0 DUP1 REVERT JUMPDEST POP PUSH1 0x4 CALLDATASIZE LT PUSH2 0x60 JUMPI PUSH0 CALLDATALOAD PUSH1 0xE0 SHR DUP1 PUSH4 0x56E0219D EQ PUSH2 0x64 JUMPI DUP1 PUSH4 0x80BC64FC EQ PUSH2 0x80 JUMPI DUP1 PUSH4 0x99E47C5E EQ PUSH2 0x9E JUMPI DUP1 PUSH4 0x9CF27F37 EQ PUSH2 0xBA JUMPI DUP1 PUSH4 0xD73E4276 EQ PUSH2 0xD6 JUMPI DUP1 PUSH4 0xF2C31BD9 EQ PUSH2 0xF4 JUMPI JUMPDEST PUSH0 DUP1 REVERT JUMPDEST PUSH2 0x7E PUSH1 0x4 DUP1 CALLDATASIZE SUB DUP2 ADD SWAP1 PUSH2 0x79 SWAP2 SWAP1 PUSH2 0x6C2 JUMP JUMPDEST PUSH2 0x112 JUMP JUMPDEST STOP JUMPDEST PUSH2 0x88 PUSH2 0x131 JUMP JUMPDEST PUSH1 0x40 MLOAD PUSH2 0x95 SWAP2 SWAP1 PUSH2 0x6FC JUMP JUMPDEST PUSH1 0x40 MLOAD DUP1 SWAP2 SUB SWAP1 RETURN JUMPDEST PUSH2 0xB8 PUSH1 0x4 DUP1 CALLDATASIZE SUB DUP2 ADD SWAP1 PUSH2 0xB3 SWAP2 SWAP1 PUSH2 0x715 JUMP JUMPDEST PUSH2 0x1AE JUMP JUMPDEST STOP JUMPDEST PUSH2 0xD4 PUSH1 0x4 DUP1 CALLDATASIZE SUB DUP2 ADD SWAP1 PUSH2 0xCF SWAP2 SWAP1 PUSH2 0x798 JUMP JUMPDEST PUSH2 0x206 JUMP JUMPDEST STOP JUMPDEST PUSH2 0xDE PUSH2 0x210 JUMP JUMPDEST PUSH1 0x40 MLOAD PUSH2 0xEB SWAP2 SWAP1 PUSH2 0x833 JUMP JUMPDEST PUSH1 0x40 MLOAD DUP1 SWAP2 SUB SWAP1 RETURN JUMPDEST PUSH2 0xFC PUSH2 0x2DB JUMP JUMPDEST PUSH1 0x40 MLOAD PUSH2 0x109 SWAP2 SWAP1 PUSH2 0x833 JUMP JUMPDEST PUSH1 0x40 MLOAD DUP1 SWAP2 SUB SWAP1 RETURN JUMPDEST DUP1 PUSH1 0x2 PUSH0 PUSH2 0x100 EXP DUP2 SLOAD DUP2 PUSH2 0xFFFF MUL NOT AND SWAP1 DUP4 PUSH2 0xFFFF AND MUL OR SWAP1 SSTORE POP POP JUMP JUMPDEST PUSH0 DUP1 PUSH0 DUP1 SLOAD SWAP1 PUSH2 0x100 EXP SWAP1 DIV PUSH2 0xFFFF AND SWAP1 POP DUP1 PUSH2 0xFFFF AND PUSH0 PUSH1 0x2 SWAP1 SLOAD SWAP1 PUSH2 0x100 EXP SWAP1 DIV PUSH2 0xFFFF AND PUSH2 0xFFFF AND GT ISZERO PUSH2 0x175 JUMPI PUSH0 PUSH1 0x2 SWAP1 SLOAD SWAP1 PUSH2 0x100 EXP SWAP1 DIV PUSH2 0xFFFF AND SWAP1 POP JUMPDEST DUP1 PUSH2 0xFFFF AND PUSH0 PUSH1 0x4 SWAP1 SLOAD SWAP1 PUSH2 0x100 EXP SWAP1 DIV PUSH2 0xFFFF AND PUSH2 0xFFFF AND GT ISZERO PUSH2 0x1A7 JUMPI PUSH0 PUSH1 0x4 SWAP1 SLOAD SWAP1 PUSH2 0x100 EXP SWAP1 DIV PUSH2 0xFFFF AND SWAP1 POP JUMPDEST DUP1 SWAP2 POP POP SWAP1 JUMP JUMPDEST DUP3 PUSH0 DUP1 PUSH2 0x100 EXP DUP2 SLOAD DUP2 PUSH2 0xFFFF MUL NOT AND SWAP1 DUP4 PUSH2 0xFFFF AND MUL OR SWAP1 SSTORE POP DUP2 PUSH0 PUSH1 0x2 PUSH2 0x100 EXP DUP2 SLOAD DUP2 PUSH2 0xFFFF MUL NOT AND SWAP1 DUP4 PUSH2 0xFFFF AND MUL OR SWAP1 SSTORE POP DUP1 PUSH0 PUSH1 0x4 PUSH2 0x100 EXP DUP2 SLOAD DUP2 PUSH2 0xFFFF MUL NOT AND SWAP1 DUP4 PUSH2 0xFFFF AND MUL OR SWAP1 SSTORE POP POP POP POP JUMP JUMPDEST DUP1 PUSH1 0x1 DUP2 SWAP1 SSTORE POP POP JUMP JUMPDEST PUSH1 0x60 PUSH0 PUSH1 0x1 SLOAD SUB PUSH2 0x258 JUMPI PUSH1 0x40 MLOAD DUP1 PUSH1 0x40 ADD PUSH1 0x40 MSTORE DUP1 PUSH1 0x4 DUP2 MSTORE PUSH1 0x20 ADD PUSH32 0x5A65726F00000000000000000000000000000000000000000000000000000000 DUP2 MSTORE POP SWAP1 POP PUSH2 0x2D8 JUMP JUMPDEST PUSH0 PUSH1 0x1 SLOAD SGT ISZERO PUSH2 0x29F JUMPI PUSH1 0x40 MLOAD DUP1 PUSH1 0x40 ADD PUSH1 0x40 MSTORE DUP1 PUSH1 0x8 DUP2 MSTORE PUSH1 0x20 ADD PUSH32 0x506F736974697665000000000000000000000000000000000000000000000000 DUP2 MSTORE POP SWAP1 POP PUSH2 0x2D8 JUMP JUMPDEST PUSH1 0x40 MLOAD DUP1 PUSH1 0x40 ADD PUSH1 0x40 MSTORE DUP1 PUSH1 0x8 DUP2 MSTORE PUSH1 0x20 ADD PUSH32 0x4E65676174697665000000000000000000000000000000000000000000000000 DUP2 MSTORE POP SWAP1 POP JUMPDEST SWAP1 JUMP JUMPDEST PUSH1 0x60 PUSH0 PUSH1 0x2 PUSH0 SWAP1 SLOAD SWAP1 PUSH2 0x100 EXP SWAP1 DIV PUSH2 0xFFFF AND PUSH2 0xFFFF AND SUB PUSH2 0x334 JUMPI PUSH1 0x40 MLOAD DUP1 PUSH1 0x40 ADD PUSH1 0x40 MSTORE DUP1 PUSH1 0x4 DUP2 MSTORE PUSH1 0x20 ADD PUSH32 0x5A65726F00000000000000000000000000000000000000000000000000000000 DUP2 MSTORE POP SWAP1 POP PUSH2 0x684 JUMP JUMPDEST PUSH1 0x1 PUSH1 0x2 PUSH0 SWAP1 SLOAD SWAP1 PUSH2 0x100 EXP SWAP1 DIV PUSH2 0xFFFF AND PUSH2 0xFFFF AND SUB PUSH2 0x38C JUMPI PUSH1 0x40 MLOAD DUP1 PUSH1 0x40 ADD PUSH1 0x40 MSTORE DUP1 PUSH1 0x3 DUP2 MSTORE PUSH1 0x20 ADD PUSH32 0x4F6E650000000000000000000000000000000000000000000000000000000000 DUP2 MSTORE POP SWAP1 POP PUSH2 0x684 JUMP JUMPDEST PUSH1 0x2 DUP1 PUSH0 SWAP1 SLOAD SWAP1 PUSH2 0x100 EXP SWAP1 DIV PUSH2 0xFFFF AND PUSH2 0xFFFF AND SUB PUSH2 0x3E3 JUMPI PUSH1 0x40 MLOAD DUP1 PUSH1 0x40 ADD PUSH1 0x40 MSTORE DUP1 PUSH1 0x3 DUP2 MSTORE PUSH1 0x20 ADD PUSH32 0x54776F0000000000000000000000000000000000000000000000000000000000 DUP2 MSTORE POP SWAP1 POP PUSH2 0x684 JUMP JUMPDEST PUSH1 0x3 PUSH1 0x2 PUSH0 SWAP1 SLOAD SWAP1 PUSH2 0x100 EXP SWAP1 DIV PUSH2 0xFFFF AND PUSH2 0xFFFF AND SUB PUSH2 0x43B JUMPI PUSH1 0x40 MLOAD DUP1 PUSH1 0x40 ADD PUSH1 0x40 MSTORE DUP1 PUSH1 0x5 DUP2 MSTORE PUSH1 0x20 ADD PUSH32 0x5468726565000000000000000000000000000000000000000000000000000000 DUP2 MSTORE POP SWAP1 POP PUSH2 0x684 JUMP JUMPDEST PUSH1 0x4 PUSH1 0x2 PUSH0 SWAP1 SLOAD SWAP1 PUSH2 0x100 EXP SWAP1 DIV PUSH2 0xFFFF AND PUSH2 0xFFFF AND SUB PUSH2 0x493 JUMPI PUSH1 0x40 MLOAD DUP1 PUSH1 0x40 ADD PUSH1 0x40 MSTORE DUP1 PUSH1 0x4 DUP2 MSTORE PUSH1 0x20 ADD PUSH32 0x466F757200000000000000000000000000000000000000000000000000000000 DUP2 MSTORE POP SWAP1 POP PUSH2 0x684 JUMP JUMPDEST PUSH1 0x5 PUSH1 0x2 PUSH0 SWAP1 SLOAD SWAP1 PUSH2 0x100 EXP SWAP1 DIV PUSH2 0xFFFF AND PUSH2 0xFFFF AND SUB PUSH2 0x4EB JUMPI PUSH1 0x40 MLOAD DUP1 PUSH1 0x40 ADD PUSH1 0x40 MSTORE DUP1 PUSH1 0x4 DUP2 MSTORE PUSH1 0x20 ADD PUSH32 0x4669766500000000000000000000000000000000000000000000000000000000 DUP2 MSTORE POP SWAP1 POP PUSH2 0x684 JUMP JUMPDEST PUSH1 0x6 PUSH1 0x2 PUSH0 SWAP1 SLOAD SWAP1 PUSH2 0x100 EXP SWAP1 DIV PUSH2 0xFFFF AND PUSH2 0xFFFF AND SUB PUSH2 0x543 JUMPI PUSH1 0x40 MLOAD DUP1 PUSH1 0x40 ADD PUSH1 0x40 MSTORE DUP1 PUSH1 0x3 DUP2 MSTORE PUSH1 0x20 ADD PUSH32 0x5369780000000000000000000000000000000000000000000000000000000000 DUP2 MSTORE POP SWAP1 POP PUSH2 0x684 JUMP JUMPDEST PUSH1 0x7 PUSH1 0x2 PUSH0 SWAP1 SLOAD SWAP1 PUSH2 0x100 EXP SWAP1 DIV PUSH2 0xFFFF AND PUSH2 0xFFFF AND SUB PUSH2 0x59B JUMPI PUSH1 0x40 MLOAD DUP1 PUSH1 0x40 ADD PUSH1 0x40 MSTORE DUP1 PUSH1 0x5 DUP2 MSTORE PUSH1 0x20 ADD PUSH32 0x536576656E000000000000000000000000000000000000000000000000000000 DUP2 MSTORE POP SWAP1 POP PUSH2 0x684 JUMP JUMPDEST PUSH1 0x8 PUSH1 0x2 PUSH0 SWAP1 SLOAD SWAP1 PUSH2 0x100 EXP SWAP1 DIV PUSH2 0xFFFF AND PUSH2 0xFFFF AND SUB PUSH2 0x5F3 JUMPI PUSH1 0x40 MLOAD DUP1 PUSH1 0x40 ADD PUSH1 0x40 MSTORE DUP1 PUSH1 0x5 DUP2 MSTORE PUSH1 0x20 ADD PUSH32 0x4569676874000000000000000000000000000000000000000000000000000000 DUP2 MSTORE POP SWAP1 POP PUSH2 0x684 JUMP JUMPDEST PUSH1 0x9 PUSH1 0x2 PUSH0 SWAP1 SLOAD SWAP1 PUSH2 0x100 EXP SWAP1 DIV PUSH2 0xFFFF AND PUSH2 0xFFFF AND SUB PUSH2 0x64B JUMPI PUSH1 0x40 MLOAD DUP1 PUSH1 0x40 ADD PUSH1 0x40 MSTORE DUP1 PUSH1 0x4 DUP2 MSTORE PUSH1 0x20 ADD PUSH32 0x4E696E6500000000000000000000000000000000000000000000000000000000 DUP2 MSTORE POP SWAP1 POP PUSH2 0x684 JUMP JUMPDEST PUSH1 0x40 MLOAD DUP1 PUSH1 0x40 ADD PUSH1 0x40 MSTORE DUP1 PUSH1 0xE DUP2 MSTORE PUSH1 0x20 ADD PUSH32 0x696E76616C6964206E756D626572000000000000000000000000000000000000 DUP2 MSTORE POP SWAP1 POP JUMPDEST SWAP1 JUMP JUMPDEST PUSH0 DUP1 REVERT JUMPDEST PUSH0 PUSH2 0xFFFF DUP3 AND SWAP1 POP SWAP2 SWAP1 POP JUMP JUMPDEST PUSH2 0x6A1 DUP2 PUSH2 0x68B JUMP JUMPDEST DUP2 EQ PUSH2 0x6AB JUMPI PUSH0 DUP1 REVERT JUMPDEST POP JUMP JUMPDEST PUSH0 DUP2 CALLDATALOAD SWAP1 POP PUSH2 0x6BC DUP2 PUSH2 0x698 JUMP JUMPDEST SWAP3 SWAP2 POP POP JUMP JUMPDEST PUSH0 PUSH1 0x20 DUP3 DUP5 SUB SLT ISZERO PUSH2 0x6D7 JUMPI PUSH2 0x6D6 PUSH2 0x687 JUMP JUMPDEST JUMPDEST PUSH0 PUSH2 0x6E4 DUP5 DUP3 DUP6 ADD PUSH2 0x6AE JUMP JUMPDEST SWAP2 POP POP SWAP3 SWAP2 POP POP JUMP JUMPDEST PUSH2 0x6F6 DUP2 PUSH2 0x68B JUMP JUMPDEST DUP3 MSTORE POP POP JUMP JUMPDEST PUSH0 PUSH1 0x20 DUP3 ADD SWAP1 POP PUSH2 0x70F PUSH0 DUP4 ADD DUP5 PUSH2 0x6ED JUMP JUMPDEST SWAP3 SWAP2 POP POP JUMP JUMPDEST PUSH0 DUP1 PUSH0 PUSH1 0x60 DUP5 DUP7 SUB SLT ISZERO PUSH2 0x72C JUMPI PUSH2 0x72B PUSH2 0x687 JUMP JUMPDEST JUMPDEST PUSH0 PUSH2 0x739 DUP7 DUP3 DUP8 ADD PUSH2 0x6AE JUMP JUMPDEST SWAP4 POP POP PUSH1 0x20 PUSH2 0x74A DUP7 DUP3 DUP8 ADD PUSH2 0x6AE JUMP JUMPDEST SWAP3 POP POP PUSH1 0x40 PUSH2 0x75B DUP7 DUP3 DUP8 ADD PUSH2 0x6AE JUMP JUMPDEST SWAP2 POP POP SWAP3 POP SWAP3 POP SWAP3 JUMP JUMPDEST PUSH0 DUP2 SWAP1 POP SWAP2 SWAP1 POP JUMP JUMPDEST PUSH2 0x777 DUP2 PUSH2 0x765 JUMP JUMPDEST DUP2 EQ PUSH2 0x781 JUMPI PUSH0 DUP1 REVERT JUMPDEST POP JUMP JUMPDEST PUSH0 DUP2 CALLDATALOAD SWAP1 POP PUSH2 0x792 DUP2 PUSH2 0x76E JUMP JUMPDEST SWAP3 SWAP2 POP POP JUMP JUMPDEST PUSH0 PUSH1 0x20 DUP3 DUP5 SUB SLT ISZERO PUSH2 0x7AD JUMPI PUSH2 0x7AC PUSH2 0x687 JUMP JUMPDEST JUMPDEST PUSH0 PUSH2 0x7BA DUP5 DUP3 DUP6 ADD PUSH2 0x784 JUMP JUMPDEST SWAP2 POP POP SWAP3 SWAP2 POP POP JUMP JUMPDEST PUSH0 DUP2 MLOAD SWAP1 POP SWAP2 SWAP1 POP JUMP JUMPDEST PUSH0 DUP3 DUP3 MSTORE PUSH1 0x20 DUP3 ADD SWAP1 POP SWAP3 SWAP2 POP POP JUMP JUMPDEST DUP3 DUP2 DUP4 MCOPY PUSH0 DUP4 DUP4 ADD MSTORE POP POP POP JUMP JUMPDEST PUSH0 PUSH1 0x1F NOT PUSH1 0x1F DUP4 ADD AND SWAP1 POP SWAP2 SWAP1 POP JUMP JUMPDEST PUSH0 PUSH2 0x805 DUP3 PUSH2 0x7C3 JUMP JUMPDEST PUSH2 0x80F DUP2 DUP6 PUSH2 0x7CD JUMP JUMPDEST SWAP4 POP PUSH2 0x81F DUP2 DUP6 PUSH1 0x20 DUP7 ADD PUSH2 0x7DD JUMP JUMPDEST PUSH2 0x828 DUP2 PUSH2 0x7EB JUMP JUMPDEST DUP5 ADD SWAP2 POP POP SWAP3 SWAP2 POP POP JUMP JUMPDEST PUSH0 PUSH1 0x20 DUP3 ADD SWAP1 POP DUP2 DUP2 SUB PUSH0 DUP4 ADD MSTORE PUSH2 0x84B DUP2 DUP5 PUSH2 0x7FB JUMP JUMPDEST SWAP1 POP SWAP3 SWAP2 POP POP JUMP INVALID LOG2 PUSH5 0x6970667358 0x22 SLT KECCAK256 SWAP4 0xE8 0xC8 NUMBER 0xE9 PC 0xB8 0xBA 0xB2 SWAP3 PUSH28 0xA483365BB1387F081681C8224FBD4C8115F2C431C964736F6C634300 ADDMOD BYTE STOP CALLER "
				},
				"gasEstimates": {
					"creation": {
						"codeDepositCost": "437000",
						"executionCost": "472",
						"totalCost": "437472"
					},
					"external": {
						"checksign()": "infinite",
						"largest()": "11315",
						"setNumber(int256)": "22559",
						"setNumberToWsrds(uint16)": "24651",
						"setNumbers(uint16,uint16,uint16)": "infinite",
						"words()": "infinite"
					}
				},
				"methodIdentifiers": {
					"checksign()": "d73e4276",
					"largest()": "80bc64fc",
					"setNumber(int256)": "9cf27f37",
					"setNumberToWsrds(uint16)": "56e0219d",
					"setNumbers(uint16,uint16,uint16)": "99e47c5e",
					"words()": "f2c31bd9"
				}
			},
			"storageLayout": {
				"storage": [
					{
						"astId": 3,
						"contract": "Activity/SmartContract 1/question1.sol:MathFunctions",
						"label": "number1",
						"offset": 0,
						"slot": "0",
						"type": "t_uint16"
					},
					{
						"astId": 5,
						"contract": "Activity/SmartContract 1/question1.sol:MathFunctions",
						"label": "number2",
						"offset": 2,
						"slot": "0",
						"type": "t_uint16"
					},
					{
						"astId": 7,
						"contract": "Activity/SmartContract 1/question1.sol:MathFunctions",
						"label": "number3",
						"offset": 4,
						"slot": "0",
						"type": "t_uint16"
					},
					{
						"astId": 9,
						"contract": "Activity/SmartContract 1/question1.sol:MathFunctions",
						"label": "Number",
						"offset": 0,
						"slot": "1",
						"type": "t_int256"
					},
					{
						"astId": 11,
						"contract": "Activity/SmartContract 1/question1.sol:MathFunctions",
						"label": "NUMBER",
						"offset": 0,
						"slot": "2",
						"type": "t_uint16"
					}
				],
				"types": {
					"t_int256": {
						"encoding": "inplace",
						"label": "int256",
						"numberOfBytes": "32"
					},
					"t_uint16": {
						"encoding": "inplace",
						"label": "uint16",
						"numberOfBytes": "2"
					}
				}
			},
			"userdoc": {
				"kind": "user",
				"methods": {},
				"version": 1
			}
		}
	}
}